:1000000000800020BD010000E1300000AD300000A4
:10001000AD300000AD300000AD300000AD3000006C
:10002000AD300000AD300000AD300000E130000028
:10003000E1300000AD300000E13000009D300000F4
:10004000E1300000E1300000E1300000E13000006C
:10005000E1300000E1300000E1300000E13000005C
:10006000E1300000E1300000E1300000E13000004C
:10007000E1300000E1300000E1300000E13000003C
:10008000E1300000E1300000E1300000E13000002C
:10009000E1300000E1300000E1300000E13000001C
:1000A000E1300000E1300000E1300000E13000000C
:1000B000E1300000E1300000E1300000E1300000FC
:1000C000E1300000E1300000E1300000E1300000EC
:1000D000E1300000E1300000E1300000E1300000DC
:1000E000E1300000E1300000E1300000E1300000CC
:1000F000E1300000E9360000E1300000A53D0000DD
:10010000E1300000A5420000E1300000E1300000D5
:10011000E1300000E1300000E1300000E13000009B
:10012000E1300000E1300000E1300000E13000008B
:10013000E1300000E1300000E1300000E13000007B
:10014000E1300000E1300000E1300000E13000006B
:10015000E1300000E1300000E1300000E13000005B
:10016000E130000035250000E1300000E130000002
:10017000E1300000E1300000E1300000E13000003B
:10018000E1300000E1300000E1300000E13000002B
:10019000E1300000E1300000E1300000E13000001B
:1001A000E1300000E1300000E1300000E13000000B
:1001B000E1300000E1300000E1300000564B4CF22D
:1001C000205210B51A804DF628121A8000BF00BFC9
:1001D00002F08AFF514B4FF010621A60504A9A6049
:1001E000504ADA60A3F53043203B1A6812F480725B
:1001F00004D14D490A604FF4A8521A604B4B1A784B
:10020000110703D51A7842F008021A70484B2A22C7
:100210001A700023474A48499818884204D247492F
:10022000595899500433F5E7454A464B9A424FF0E6
:10023000000302D242F8043BF7E74349434A5958C6
:1002400099500433B3F5DE7FF7D1414B802103F899
:10025000011B40498B42F9D13F4B1A603F4B8A2228
:100260001A70A3F5805324225A70A0221A709A792A
:100270009207FCD59A79D406FCD4394B9A7902F0CE
:100280000C02082AF9D103221A7140225A719A7974
:100290009006FCD5324B9A795106FBD5314A32494A
:1002A00011600221516020221A702D4B9B7903F0BE
:1002B0000C030C2BF9D12D4B2D4A1A602D4B4BF60C
:1002C0007F321A6000225A60072243F8042C2A4A1F
:1002D000C3F80C2D62B602F013F8134B1B68DA0753
:1002E00005D5264801F026FF254B264A1A60264BE5
:1002F0001B785B0609D5224C224A2368934204D11D
:100300001E4801F017FF0023236004F003FA02F0F7
:10031000F1FE02F01FFEFEE70E2005403080044093
:10032000823F04000100002B14D0034002D007409C
:1003300000E007406087FF1FCC89FF1F3C8300005F
:10034000CC89FF1F248DFF1F000000000082FF1FCB
:1003500000E400E05FE400E008ED00E0005006404B
:100360000040064044800440000013110480044013
:10037000C010050014E000E00000202048EBFC580D
:100380001CE00340A5C3945A00F00740FFFFFFFFA5
:10039000FFFFFFFFFFFFFFFFFFFFFFFFFFFFFFFF6D
:1003A000FFFFFFFFFFFFFFFFFFFFFFFFFFFFFFFF5D
:1003B000FFFFFFFFFFFFFFFFFFFFFFFFFFFFFFFF4D
:1003C000FFFFFFFFFFFFFFFFFFFFFFFFFFFFFFFF3D
:1003D000FFFFFFFFFFFFFFFFFFFFFFFFFFFFFFFF2D
:1003E000FFFFFFFFFFFFFFFFFFFFFFFFFFFFFFFF1D
:1003F000FFFFFFFFFFFFFFFFFFFFFFFFFFFFFFFF0D
:10040000FFFFFFFFFFFFFFFFFFFFFFFFDEF9FFFF23
:1004100010B5054C237833B9044B13B10448AFF33E
:1004200000800123237010BDCC89FF1F0000000055
:100430003C83000008B5064B1BB106480649AFF3E4
:1004400000800648036813B1054B03B1984708BD07
:10045000000000003C830000D089FF1FCC89FF1FF3
:100460000000000038B5044608460D4604F078F94F
:10047000236802465B6820462946984738BD08B580
:10048000FFF7F0FF08BD02F05DBD38B50446FFF789
:10049000E9FF0546204602F00DFD284438BDFFFF68
:1004A00007B5234B1A78234B002A38D0224A1278FA
:1004B000920734D0214A196812688A1A182A2ED94C
:1004C0001B6801930A22002301991D4802F002FDD6
:1004D0001C491B48FFF7D9FF0920012101F05AFEF2
:1004E0000021092001F036FE012001F0F3FE012178
:1004F000092001F02FFEC82001F0ECFE124800F0A8
:100500001FFE1148012100F06DFD00210E4800F092
:100510005BFD0E4801F04AFC03B05DF804FB1A686D
:100520000092009941F287329142C9D8B9E700BFE1
:10053000338BFF1F508AFF1F448BFF1F208DFF1F2F
:10054000488BFF1F70470000EC89FF1F108AFF1FB8
:10055000124B10B51C88A04228BF04461C80104BCB
:100560001C88A14228BF0C461C800E4B1C88A2424E
:1005700028BF14461C800C4B1C88A04228BF204674
:1005800018800A4B1888814228BF01461980084B01
:1005900019888A4228BF0A461A8010BD288AFF1F80
:1005A0002A8AFF1F2C8AFF1F3E88FF1F4288FF1FD9
:1005B0004088FF1F074B084940F6FF721A8000234E
:1005C0000B8006490A8006490B8006490A80064AC4
:1005D000138070473E88FF1F288AFF1F4288FF1F35
:1005E0002A8AFF1F4088FF1F2C8AFF1F2DE9F04F2A
:1005F000BB48BC4D89B001F0AFFC0646002800F0B6
:10060000A581B749DFF828B3B74CDFF828A306A8BF
:1006100001F094FC2978BDF81890BDF81A80BDF857
:100620001C70B24B002945D1DBF800200492049ADB
:100630001A602046039300F0C7FC20464FF6E07195
:1006400001F062FBAA4AA26120461422052101F0B2
:1006500043FBA8492046FFF712FF204640F2FF71F6
:1006600001F052FB5A2220462321C4F818A001F0C1
:1006700033FBA1492046FFF702FF5A2220466E2194
:1006800001F02AFB9D492046FFF7F9FE5A22204639
:10069000B92101F021FB9A492046FFF7F0FE2046E0
:1006A0004FF482715A2201F017FB20469549FFF75B
:1006B000E6FE039BDBF8002005921B68059ADFF835
:1006C00078B28948D31A4FF0000CCBF800303123B0
:1006D0008DE8081014227723C821CDF80CC000F053
:1006E0009FFB81484FF6E07101F00EFB804BA36148
:1006F0007D48C821142201F0EFFADBF80010DDF884
:100700000CC0DFF838B278484FF47A73B1FBF3F1DC
:100710000A226346CBF8001002F0DCFBDBF8003065
:100720000522B3FBF2F202EB8202934201D1FFF702
:1007300041FF484641463A46FFF70AFF5922002347
:100740008DE80C00684840F2211378221E2100F049
:1007500067FB65484FF4FC6101F0D6FAC4F818A0B5
:1007600078226148684CDFF8D8A1052101F0B4FA7D
:1007700066495D48FFF783FE0FFA89F978225A48E7
:10078000232101F0A9FA49465748FFF77CFE782259
:1007900055486E2101F0A0FA21885348FFF773FEF7
:1007A00078225148B92101F097FABAF800104E4862
:1007B000FFF769FE78224C484FF4827101F08CFA01
:1007C0002388BAF800104848514CDFF878A1C91ABC
:1007D000FFF759FE96224448052101F07DFA4D4964
:1007E0004148FFF74CFE0FFA88F896223E48232135
:1007F00001F072FA41463C48FFF745FE96223A481E
:100800006E2101F069FA21883748FFF73CFE9622F5
:100810003548B92101F060FABAF800103248FFF704
:1008200032FE962230484FF4827101F055FA238847
:10083000BAF800102C48384CDFF80CA1C91AFFF7A1
:1008400022FEB4222848052101F046FA3349264801
:10085000FFF715FE3FB2B4222348232101F03CFAF2
:1008600039462148FFF70FFEB4221F486E2101F0E0
:1008700033FA21881C48FFF706FEB4221A48B92132
:1008800001F02AFABAF800101748FFF7FCFDB4226D
:1008900015484FF4827101F01FFA2388BAF800104E
:1008A0001148C91AFFF7EFFD1D491E48FFF7E7FD84
:1008B00049461C48FFF7E7FD1B491A48FFF7DFFDD3
:1008C00041461848FFF7DFFD18491648FFF7D7FDE6
:1008D0003946144802F036FB124802F0EBFA5BE0AE
:1008E000108AFF1F3C88FF1FEC89FF1FE889FF1F4C
:1008F0004872000080470000864700008A470000D9
:100900008E470000924700003E88FF1F9847000076
:100910004288FF1F9A4700004088FF1F9C47000045
:100920009E470000488BFF1FA3470000AA47000016
:10093000508AFF1F84710000248AFF1F208AFF1F36
:10094000288AFF1F2A8AFF1F2C8AFF1F2B781BB3C0
:10095000154C3146204600F037FB20464FF47841D5
:1009600001F0D2F9114BA36132222046782101F027
:10097000B3F90F492046FFF782FD78222046502127
:1009800001F0AAF90B492046FFF779FDFFF712FEA7
:1009900009480A49FFF779FD64202E7001F09AFC9E
:1009A00009B0BDE8F08F00BFEC89FF1F487200005E
:1009B000B147000080470000488BFF1FB44700008C
:1009C0001FB50821FF22084801F0E4F90B210D2290
:1009D0000C238DE80E00054814211522FF2300F09A
:1009E000CDF805B05DF804FB108AFF1FEC89FF1FEE
:1009F00070B506460020CB080124F55C01F0070322
:100A0000C3F10803934209D89C40013C984025401B
:100A1000D21A45EA00001944EDD170BD9B1A9040EE
:100A200004FA02F21D41013A1540284370BDFFFF50
:100A3000054AD36A13F0F00F03F4704318BF926BAA
:100A4000B3F5405FF4D8704700C00240002AF0B50B
:100A50000CBF4FF064524FF0605200240F4E104F05
:100A6000A65B104D97FBF6F6B14255F8145004D32F
:100A7000190706D542F0806203E002342E2CEDD136
:100A8000F6E75B0707D525F4704305F4704542F09F
:100A9000007243EA15152A430260F0BDC07F0000D2
:100AA000006CDC020480000010B50446FFF7CEFFA6
:100AB000204610BD10B5184B1A7802B372B61B78D9
:100AC000D90707D5154A1649146809682140154CFD
:100AD000216011609A0707D5134A114914684968C3
:100AE0002140104C616011605B0707D50F4B0C4A29
:100AF000196892680A400B498A601A6062B60C4B0A
:100B0000DA68824207D00B4A1A60D8600A4A40F07D
:100B1000804018611A6010BD4C8AFF1F80E100E020
:100B2000348AFF1F408AFF1F84E100E088E100E073
:100B300000C0024001401F0000001F800A4B1B78CC
:100B40008BB1D90703D5094A1168094A11609A0780
:100B500003D5064A5168074A11605B0703D5034B6A
:100B60009A68054B1A6070474C8AFF1F408AFF1F26
:100B700000E100E004E100E008E100E070B5037787
:100B80009DF8103080F822309DF8143080F8233022
:100B90009DF8183080F82130F023C3804FF4A07303
:100BA0000025094E827703814FF6FF7201230571FC
:100BB00006604177C5744581858183740282C28154
:100BC0000375856170BD00BFB87F00002DE9F3415A
:100BD0000F1E04461646984672DBB0F90630BB423B
:100BE0006EDD002A6CDBB0F90830934268DD3649CF
:100BF000364D0023012201A8FFF756FF0198FFF7A9
:100C000059FF94F82020120442F0004242F02A02D8
:100C10006A63FFF70DFFE37FBFB247EA034343F088
:100C200010436B63FFF704FFE37F47EA034747F096
:100C300010476F63FFF7FCFE94F82020120442F087
:100C4000004242F02B026A63FFF7F2FEE37FB6B286
:100C500046EA034343F010436B63FFF7E9FEE37F8B
:100C600046EA034646F010466E63FFF7E1FE94F84D
:100C70002020120442F0004242F02C026A63FFF787
:100C8000D7FEE37F286848EA034848F0C0536B6307
:100C90000E4AD16A11F0805F134604D111F0F00FB3
:100CA00018BF936BF4E74FF08052DA621860DA6A8B
:100CB00012F0F00F02D0054A926BF8E7FFF73EFF03
:100CC00002B0BDE8F08100BF80C3C90100C002408E
:100CD0002DE9F3471E46C388BDF8288017461AB28F
:100CE000914204460D4680F29380B0F90810B94253
:100CF00040F38E80002FC0F28B80002D02DA2E444C
:100D000036B20025A9199142C8BFC5EB0306424976
:100D10004FF001024FF0000301A8C8BF36B2FFF741
:100D2000C3FE0198FFF7C6FE94F820301B041FFA9B
:100D300086F943F00043394E43F02A037363FFF70B
:100D400077FEE37F05F1FF3A45EA034545F010459C
:100D50007563FFF76DFECA44E37F1FFA8AFA4AEA19
:100D6000034A4AF010437363FFF762FE94F82030A1
:100D70001B0443F0004343F02B037363FFF758FE5B
:100D8000E37F47EA034343F010437363FFF750FEEA
:100D9000E37F47EA034747F010477763FFF748FED2
:100DA00094F820301B0443F0004343F02C0373639A
:100DB000FFF73EFE4E4633B2012BE27F174B09DDB3
:100DC00048EA024242F010425A63013EFFF730FE09
:100DD000B6B2F0E748EA024242F0C05218685A63DD
:100DE0000E4AD16A11F0805F134604D111F0F00F62
:100DF00018BF936BF4E74FF08052DA621860DA6A3A
:100E000012F0F00F02D0054A926BF8E7FFF796FE5A
:100E100002B0BDE8F08700BF80C3C90100C0024036
:100E20002DE9F04F0E46C18885B0044608B28642CF
:100E300015469846BDF93890BDF83CA080F2BD80BB
:100E400023891AB2954280F2B880002E03DAB044AA
:100E50000FFA88F80026002D03DAA9440FFA89F961
:100E6000002506EB08078742C8BFC6EB010805EB63
:100E70000901C8BF0FFA88F89142C8BFC5EB030942
:100E80004F49504F4FF001024FF0000303A8C8BF75
:100E90000FFA89F9FFF708FE0398FFF70BFE94F8A5
:100EA00020301B04721E43F0004343F02A034244E7
:100EB00092B27B630192FFF7BBFDE37F46EA0346F4
:100EC00046F010467E63FFF7B3FDE37F019A42EAE6
:100ED000034242F010427A63FFF7AAFD94F82030F3
:100EE0001B0443F0004343F02B037B63FFF7A0FD9B
:100EF000E37F05F1FF3B45EA034545F010457D637F
:100F0000FFF796FDCB44E37F1FFA8BFB4BEA034BC5
:100F10004BF010437B63FFF78BFD94F820301B04EC
:100F200043F0004343F02C037B63FFF781FDB9F1ED
:100F3000000F40DD4546012D224BE27F09DD4AEAE4
:100F4000024242F010425A63013DFFF771FD2DB29B
:100F5000F1E74AEA024242F0C05218685A63194B5C
:100F6000D96A11F0805F1A4604D111F0F00F18BF52
:100F70009B6BF4E74FF08053D3621060D36A13F099
:100F8000F00502D00F4B9B6BF8E7B9F1010F0DD0C4
:100F900019F0010F0AD0FFF7D1FD03A8084901227B
:100FA0002B46FFF781FD0398FFF784FD09F1FF3918
:100FB0000FFA89F9BBE7FFF7C1FD05B0BDE8F08F77
:100FC00080C3C90100C0024007B5B0F908200191F3
:100FD00000210092B0F906300A46FFF721FF03B066
:100FE0005DF804FB37B501F003010446C17401222A
:100FF0005149524D002301A8FFF756FD0198FFF714
:1010000059FD94F82020120442F0004242F03602CA
:101010006A63FFF70DFDE27C032A00F28680DFE8B9
:1010200002F002203E61E27F2868120442F0006272
:1010300042F048026A63414AD16A11F0805F134668
:1010400004D111F0F00F18BF936BF4E74FF080520A
:10105000DA621860DA6A12F0F00F3ED0374A926B0B
:10106000F8E7E27F2868120442F0006242F02802AA
:101070006A63324AD16A11F0805F134604D111F0DD
:10108000F00F18BF936BF4E74FF08052DA621860EC
:10109000DA6A12F0F00F43D0284A926BF8E7E27F49
:1010A0002868120442F0006242F088026A63234A10
:1010B000D16A11F0805F134604D111F0F00F18BF10
:1010C000936BF4E74FF08052DA621860DA6A12F03C
:1010D000F00F02D0194A926BF8E7F023E3804FF447
:1010E000A07321E0E27F2868120442F0006242F01F
:1010F000E8026A63114AD16A11F0805F134604D195
:1011000011F0F00F18BF936BF4E74FF08052DA62E2
:101110001860DA6A12F0F00F02D0084A926BF8E712
:101120004FF4A073E380F0232381FFF707FD002332
:101130006381A38103B030BD80C3C90100C00240F8
:10114000F7B590F822300B2B044602D0072B40F065
:10115000208194F8212002F0FB02082A40F0198136
:1011600094F823200D3A012A00F213818A480B2BB0
:10117000017802D101F0FE0204E0072B0CBF41F020
:1011800001020A46854D2B68DF040DD58A420BD03B
:1011900012F0010F824B834E4FF4A27140F0EA80AF
:1011A00019604FF41073336094F8213002700C2BE7
:1011B00002D102F0FD0304E0082B0CBF42F0020351
:1011C00013462968CE040DD593420BD013F0020FBD
:1011D0004FF4A2727449754E40F0D1800A604FF40A
:1011E0000072326094F8232003700D2A02D103F0BC
:1011F000FB0205E00E2A06BF43F00402D2B21A46F3
:101200002968C9040DD59A420BD012F0040F4FF48F
:10121000A2736749674D40F0B7800B604FF41073BD
:101220002B60027000F0A4FE607FA17F00F0F0FE52
:1012300030B3607F00F0FEFE0546E077A07F00F04F
:10124000F9FE284384F82000207FFF281CD00121CC
:1012500000F0A0FF207F012100F07CFF052001F0BD
:1012600039F8207F002100F075FF142001F032F8DA
:10127000207F012100F06EFF962001F02BF803E0A3
:10128000E07784F8200084E04B494C4D0122002394
:1012900001A8FFF709FC0198FFF70CFC297894F8E6
:1012A0002020474B4F1EFFB2B9B1697841EA024294
:1012B00042F000425A63FFF7BBFBAE1CF519AE4289
:1012C000ECD016F8013BE27F43EA02423C4B42F08D
:1012D00000425A63FFF7ACFBF1E7120442F00062F0
:1012E00042F0110218685A63354BD96A11F0805FD9
:1012F0001A4604D111F0F00F18BF9B6BF4E74FF0C2
:101300008053D3621060D36A2D4D13F0F00601D0E4
:10131000AB6BF8E7FFF712FC782000F0DBFF3346F9
:101320002549012201A8FFF7BFFB0198FFF7C2FB87
:1013300094F8203028681B0443F0006343F029032D
:101340006B631F4AD16A11F0805F134604D111F01C
:10135000F00F18BF936BF4E74FF08052DA62186019
:10136000DA6A12F0F00F02D0154A926BF8E7FFF735
:10137000E5FB0EE031604FF40071196014E7326054
:101380004FF400720A602DE72B604FF400730B607E
:1013900047E703B0F0BD00BF458BFF1F3C80044012
:1013A00008C0044018B004400CC004401CB0044005
:1013B00004C0044014B0044080C3C901407F000051
:1013C00000C002402DE9F04F9146B0F906208FB0E1
:1013D0008A4205460F46BDF86080BDF864A09DF8BE
:1013E000684040F31082B0F908204A4540F30B8270
:1013F000062212FB0412002A40F305824FF0080B6C
:101400001BFB0492002A40F3FE81D0450FFA83FCB7
:1014100040F03881012C11D0A300E0189BB2099351
:101420006300E2189BB20CEB8C0C0B9301230A9225
:10143000CDF81CC0089000220593BEE01FFA89F980
:1014400009F1080B0CEB8C0A1FFA8BFB00231E46DC
:101450008B4A5244D25C144218BF46F00106013355
:101460007600052BF6B2F3D176080021002E66D067
:101470001F2E08D13944CDF80080284609B20FFA52
:1014800089F2052309E01E2E0AD13944CDF80080E7
:10149000284609B20FFA89F20423FFF719FC4EE03F
:1014A00006F01C031C2B15D11FFA81FC0CEB070165
:1014B00009B2CDF8008028460FFA89F20323CDF84F
:1014C00010C0FFF705FCDDF810C03601F6B20CF1D4
:1014D000040132E006F01803182B15D11FFA81FC25
:1014E0000CEB070109B2CDF8008028460FFA89F20B
:1014F0000223CDF810C0FFF7EBFBDDF810C0F600BB
:10150000F6B20CF1030118E0F20613D51FFA81FCC4
:101510000CEB070109B228460FFA89F24346CDF8D1
:1015200010C0FFF753FBDDF810C0B600F6B20CF1A7
:10153000020102E07600F6B2013189B296E709F1C4
:1015400001091FFA89F96400D945E4B27FF47EAF3E
:1015500059E107984A4901440598C95C084218BFF7
:1015600046F0010601337600052BF6B2F1D192B2B6
:1015700004FB029A760806921FFA8AFA4FF0000CD2
:1015800066B11F2E1CD18DE810010CFB0471089B65
:10159000284609B20FFA8AF2FFF742FC059A530077
:1015A000DBB20593069B0BF1FF3B5A1C1FFA8BFB2A
:1015B00092B2BBF1000F00F0268100231E46C8E75F
:1015C0001E2E09D10CFB04718DE81001284609B2CA
:1015D0000FFA8AF2099BDFE706F01C031C2B15D1DA
:1015E0001FFA8CFC04FB0C718DE81001284609B22F
:1015F0000FFA8AF20A9BCDF810C0FFF711FCDDF854
:1016000010C03601F6B20CF1040C35E006F01803F8
:10161000182B15D11FFA8CFC04FB0C718DE81001FE
:10162000284609B20FFA8AF20B9BCDF810C0FFF7DB
:10163000F7FBDDF810C0F600F6B20CF1030C1BE06E
:10164000F30615D51FFA8CFC04FB0C7123B28DE850
:101650000801284609B20FFA8AF2CDF810C0FFF748
:10166000DFFBDDF810C0B600F6B20CF1020C03E0AF
:101670007600F6B20CF1010C1FFA8CFC80E700BF7B
:10168000457A00006149CDF810C0012200230DA861
:10169000FFF70AFA0D985E4EFFF70CFA95F8203026
:1016A000BFB204EB44021B0407EB420243F00043C9
:1016B00043F02A03013A92B273630392FFF7B8F939
:1016C000EB7F47EA034747F010477763FFF7B0F92E
:1016D000EB7F039A42EA034242F010427263FFF743
:1016E000A7F995F820301B0443F0004343F02B0387
:1016F0007363FFF79DF9EB7F1FFA89F949EA03430A
:1017000043F010437363FFF793F909EBC403EA7FD7
:10171000013B9BB243EA024343F010437363FFF77C
:1017200087F995F820301B0443F0004343F02C0365
:101730007363FFF77DF9DDF810C00CEB8C0CCDF86E
:1017400014C001274FF000095FFA89F2A24231D29A
:101750000026304A05980244925D17420CBF51465C
:1017600041460022D0B2A0420FD295F81FE028488F
:1017700041EA0E4E4EF01043436304910392FFF78B
:1017800057F9039A04990132ECE70136052EE0D1AE
:101790000026F2B2A2420AD2E97F1D4A4AEA01417A
:1017A00041F010415163FFF743F90136F1E709F1C8
:1017B0000109C9E70BF1FF3B7B001FFA8BFBDFB28E
:1017C000BBF1000FBED195F82020114B120442F05E
:1017D000006218685A630E4AD16A11F0805F13469E
:1017E00004D111F0F00F18BF936BF4E74FF0805263
:1017F000DA621860DA6A12F0F00F02D0044A926BD3
:10180000F8E7FFF79BF90FB0BDE8F08F80C3C9017F
:1018100000C00240457A00002DE9F04F85B0044633
:1018200092469B460191002900F0F2807A490122FC
:10183000002303A8FFF738F90398FFF73BF90E9E42
:1018400094F82030754D1B0443F0004343F02B0304
:101850006B63FFF7EDF8E37F1FFA86F848EA03436E
:1018600043F010436B63FFF7E3F8E37F48EA034874
:1018700048F010436B63FFF7DBF85746D846002566
:10188000013F0122019BBA401A4201D0013558E0C4
:10189000002D56D094F82020DFF88091120442F0F9
:1018A000004242F02A02C9F83420FFF7C1F8E17F74
:1018B000C5EB080292B242EA014242F01042C9F876
:1018C0003420FFF7B5F8E17F1FFA88F242EA0142BF
:1018D00042F01042C9F83420FFF7AAF894F820200B
:1018E000120442F0004242F02C02C9F83420FFF703
:1018F0009FF8013D494AE17F06D0E08940EA014175
:1019000041F010415163F2E7E089136840EA014178
:1019100041F0C05151634149C86A10F0805F0A46E6
:1019200004D110F0F00F18BF8A6BF4E74FF080512C
:10193000D1621360D16A11F0F00F02D03749896B80
:10194000F8E708F10108002F9AD10BEB0A09002DE6
:1019500055D094F82030DFF8C4801B0443F00043D6
:1019600043F02A03C8F83430FFF762F8E27FC5EB92
:1019700009039BB243EA024343F01043C8F83430F2
:10198000FFF756F8E37F1FFA89F949EA034343F06A
:101990001043C8F83430FFF74BF894F820301B049C
:1019A00043F0004343F02C03C8F83430FFF740F80D
:1019B000013D1A4BE17FE28905D042EA014242F043
:1019C00010425A63F2E742EA014242F0C0521868FC
:1019D0005A63124AD16A11F0805F134604D111F0A4
:1019E000F00F18BF936BF4E74FF08052DA62186083
:1019F000DA6A12F0F00F02D0084A926BF8E70E9BF9
:101A00000F9A01361344B3427FF41AAFFFF796F8EA
:101A100005B0BDE8F08F00BF80C3C90100C002401F
:101A20002DE9F04F8669B37B994287B0044606D30F
:101A3000F27B914203D8C91AB37C59430EE0327C41
:101A40009142C0F00581707C814200F20181F07BFF
:101A50000130C31A19448A1AB17C5143B27C3068F0
:101A6000FEF7C6FFB5680544284600210322FEF7AD
:101A7000BFFF002840F0EC8096F813800321424617
:101A80002846FEF7B5FF377D08F1030841463A4680
:101A900082462846FEF7ACFFB844777D41463A4679
:101AA00081462846FEF7A4FF4FF0010B7B1E0BFA80
:101AB00003F3184208EB070C18BF0BFA07FBB77DBE
:101AC000CDF80CC014BFCBEB000B834661463A4601
:101AD0002846FEF78DFF4FF001087B1E08FA03F33E
:101AE000DDF80CC01842F37D0493BC441ABF08FA19
:101AF00007F8C8EB000880461A4661462846CDF82C
:101B00000CC0FEF775FFB4F90A20049BDDF80CC089
:101B1000002ABCBF0022628162890BFA82F7002F83
:101B200003DACBEB020262810027B4F9062007EB4F
:101B30000A01914211DD227D002A00F08980BBF16B
:101B4000000FABBF0022CBF1000B6281A4F80AB0FA
:101B5000317EA2890A44A2810027B4F90810B4F9A1
:101B60000C20914274DD0CEB030B638918446081F7
:101B7000737E1A44C9EB0202C8EB0208B9F1000FE8
:101B800066D04FEADB030BF10106EA5C6FEA0B0358
:101B900003F0070342FA03F313F0010326D19B4637
:101BA000CBEB0A0CBCF1200F28BF4FF0200C3146C4
:101BB00062462846CDF80CC0FEF71AFFDDF80CC0CF
:101BC000CDF8008001230146019362460BEB070329
:101BD0002046FFF721FEDDF80CC0E344D345664400
:101BE000DED308F1010809F1FF392FE0314628461C
:101BF0000322FEF7FDFE02300BF1040605904FF0C4
:101C0000000BCBEB0A0CBCF1200F28BF4FF0200CCF
:101C1000314662462846CDF80CC0FEF7E9FEDDF8F5
:101C20000CC0059B0193014662460BEB0703CDF800
:101C300000802046FFF7F0FDDDF80CC0E344D345FB
:101C40006644DED3059B9844C3EB0909B34695E788
:101C500007B0BDE8F08F7FB5856904460B465DB1DE
:101C60000A2906D12A7E8389134483810023438174
:101C70002FE0FFF7D5FE2CE00A2904D1827C83896E
:101C800003EBC20323E00D2923D0C689B0F90A1063
:101C9000B0F90C200096068A0196867C0296FFF722
:101CA00091FBA37C628903EB430102EB4102217D9E
:101CB00092B2628169B1B4F906106FF0050012B2F8
:101CC00000FB03118A4204DDA28902EBC303A38156
:101CD0006581012004B070BD002910B506DBC38802
:101CE0001CB2A14203DB591E09B200E00021002A08
:101CF000418106DB038919B28A4203DB5A1E12B204
:101D000000E00022828110BD0182C1817047FFFF87
:101D1000024B1B6801221A70704700BF308AFF1FF8
:101D2000884230B5CCBFC1EB0004C0EB0104904247
:101D3000CCBFC2EB0003C0EB0203A4B28A429BB249
:101D4000CCBFC1EB0205C2EB010524B21BB2ADB2A0
:101D50009C422DB205DCAC4201DC084406E0A34203
:101D600003DCAB4201DC104400E08818C0F34F00F4
:101D700000B230BD064B4FF0004240F08050DA62B6
:101D80005863DA6A002AFCDA014B986B80B270471C
:101D900000C0024082704FF00042C2600022828088
:101DA000C2800281012241700270704710B5044662
:101DB00000F0DEF86078012100F0ECF96078012194
:101DC00000F0C8F9A078FF2809D0002100F0E2F95E
:101DD000A0780449022200F00FFA034B1C60012096
:101DE00010BD00BF111D0000308AFF1F2DE9F04F0C
:101DF000037885B00446002B00F08C80474B1B68AD
:101E00000393039FC368FB1A022B40F2838044486C
:101E1000FEF750FE6078002100F09CF9414B4FF036
:101E20000042DA62B1225A63DA6A002AFCDA3D4BD8
:101E3000C1209B6BFFF79EFFC01000F6FF7591203D
:101E4000FFF798FFA5EBE005B5F5C87F17DB9120FC
:101E5000FFF790FFD120FFF78DFFC0F3CF0A91204D
:101E6000FFF788FFC0F3CF08D120FFF783FFC0F34F
:101E7000CF099120FFF77EFFC0F3CF0603E00026D5
:101E8000B146B046B246D020FFF774FF02460020AC
:101E90000192FFF76FFF01218346607800F05AF945
:101EA000214B019A1B788BB1D80703D51F490868CD
:101EB0001F490860990703D51C4948681D490860F7
:101EC0005B0703D5194B99681B4B1960002D03DB89
:101ED000B5F5C87F0ADA00E0002500234A2D2381EA
:101EE00018DCA278FF2A15D0237013E025810FFAA1
:101EF00089F142F3CF020FFA8AF0FFF711FF31B2F6
:101F000005464BF3CF020FFA88F0FFF709FFE760B1
:101F1000A580E08005B0BDE8F08F00BF508AFF1FAC
:101F20000320013800C002404C8AFF1F408AFF1F77
:101F300000E100E004E100E008E100E038B50D4612
:101F400004460846FFF752FFEA882B89A9882180BA
:101F50006280A380204638BD10B50446FFF746FFD7
:101F6000B4F90800B0F5C87FB4BF0020012010BD4F
:101F7000164B1A6842F480521A60154B154A1A60C3
:101F8000154ADA6002F180421A61144A1A60144B51
:101F90001B78DA0755BF134A134A4FF410714FF4F8
:101FA000007113F0020F11600CBF104910495B075C
:101FB0004FF4007254BF0F4B0F4B0A6054BF4FF4E5
:101FC00010724FF400721A60704700BF3C800440EA
:101FD00000C0024001401F000110003800001F80B7
:101FE000458BFF1F18B0044008C004401CB00440DB
:101FF0000CC0044014B0044004C004400238C0B215
:1020000015289ABF014B185C00207047EE7F000036
:1020100038B50D46FFF7F2FF044650B12846FFF7EA
:10202000EDFF30B12040C0B2D0F1010038BF002038
:1020300038BD38BD023815283AD8DFE800F00F392E
:102040003939193939150B39393939333939393978
:102050001F292D234FF40072164B02E0164B4FF44C
:1020600000721A60012070474FF40072134B02E0B7
:10207000134B4FF400721A60022070474FF4007245
:10208000104B02E0104B4FF400721A6004207047AE
:102090004FF400720D4B02E00D4B4FF400721A60CA
:1020A000082070470B4B4FF400721A6010207047E5
:1020B0000020704710B0044000C004400CB0044041
:1020C00010C0044014C0044008B0044018C00440CC
:1020D00004B0044000B004407047FFFF00F14040EE
:1020E000A0F592237C2B14D9A0F594237C2B12D934
:1020F000A0F596237C2B10D9A0F598237C2B06D92C
:10210000A0F59A207D28064828BF00207047054882
:10211000704705487047054870470548704700BF3D
:102120001C89FF1FFC88FF1F4488FF1F7C88FF1F3E
:10213000CC88FF1F044B054900221A600A60044A3C
:10214000106010221A60704714D0034004D003407E
:1021500000D00340212810B518D80D4A52F830306D
:1021600093F880423CB1012211B183F8802010BD68
:1021700083F8002110BD02EBC00043681A6811B15A
:1021800042F0030201E022F002021A6010BD00BF1B
:1021900060800000212810B52BD8164A02EBC0033E
:1021A00001295B68144601D004290FD154F830206E
:1021B000012082F880024FF4A2721A601A68042982
:1021C0000CBF42F0200222F0200211E052F8300051
:1021D000002280F8802211B94FF4807208E00229B1
:1021E00002D140F2031203E0032908BF4FF48172C9
:1021F0001A6010BD60800000212870B50D463CD8E3
:10220000042A3AD8DFE802F00709050B03000B2384
:1022100006E00A2304E0082302E00C2300E009237F
:102220001E04164B03EBC0035C68216811F4E061E7
:1022300001D1FFF7AFFF124B124AC3F89C21124A9B
:10224000C3F8A021114AC3F8A421114AC3F8A82158
:102250002046104AC3F8AC21FFF740FF68B172B6C0
:10226000226822F470222260C4F3840342F0807258
:10227000164340F82350266062B670BD60800000AF
:102280000082FF1F1188FF1FE587FF1FB987FF1F0F
:102290008D87FF1F6187FF1F72B60B4B0B491A68B2
:1022A0000B4B1B68096862B6490102D5322A88BF08
:1022B0000133C2F53B4230217F32B2FBF1F24FF4E1
:1022C0007A7000FB0320704718E000E004ED00E0A6
:1022D000508AFF1F38B50446FFF7DEFF054624B9D4
:1022E00038BD013C0AD005F57A75FFF7D5FF401BD4
:1022F000B0F57A7FF5D200F055FEF6E738BDFFFF66
:10230000204B4FF4000210B51A604FF080721A6033
:102310004FF000721A604FF080621A604FF0006256
:102320001A60194B194A1A4C00204BF6FF711860BD
:102330005960282313609360136193611362936261
:10234000136393630922226004F5805404342060EF
:102350006160A360236144F8042C04F5FE2420602E
:102360000C4801600C490B608B600C4B1A6000F04C
:1023700039FE4FF4C870FFF7ADFFBDE8104000F024
:10238000D7BB00BF08E100E0048003400C8003409D
:102390000080034008800B400C800B4000800B4005
:1023A000F0B50C4B0C4C1A7842F0020504EBC50654
:1023B00082F00102706009481A700678002E0CBF86
:1023C0008827C82786F0010647EA0141067044F8CD
:1023D0003510F0BDBC8AFF1F0080FF1F348BFF1F2C
:1023E000431E032B10B510D872B6094A52F82300C9
:1023F00048B1416842F82310064A018832F8134078
:10240000611A22F8131062B610BD002010BD00BF83
:10241000AC8AFF1F108DFF1F013803280AD872B63F
:10242000054B53F82030002013B101305B68FBE707
:1024300062B6704700207047008BFF1F10B572B660
:102440000123174A1A4412F8012C12071CD59900CF
:10245000144A52F831402CB902EB4313083058604B
:10246000114B09E041F0010152F8314064B902EB2F
:10247000C103083058600D4B42F831300C4B1A78CC
:10248000013A1A7062B610BD0133052BD9D162B67C
:10249000074B00221A70BDE8104000F0A7BB00BF38
:1024A000A08100000080FF1F88004000C80040009D
:1024B0002A8BFF1F431E032B30B532D8194A400127
:1024C00040F01000104472B6174CE25C032A09D8A1
:1024D000DFE802F0160218050830022213E0083087
:1024E000042210E01148124A50F8234014B940F871
:1024F000231002E052F82300416042F823100FE05D
:10250000032200E00522E25410F0080F01F1080355
:102510000A8843600CBF8823C82343EA0243036050
:1025200062B630BD0080FF1F688AFF1F008BFF1F4F
:10253000108BFF1F2DE9F84FAB4F3C78E4B214F03D
:10254000040F3D4619D0A94B1B78A3B1A84A1178B6
:1025500001F0FF0321B1013BDBB2137003B900BEF0
:10256000A44A117801F0FF0329B1013BDBB21370DB
:102570000BB900F069FC04233B7004F0080303F07E
:10258000FF02002B00F067829B4B9C4C1A78D2B262
:1025900015094FEA920840F0E48104EBC80359683A
:1025A00054F83830C3F38303013B0C2B00F2D6817F
:1025B000DFE813F095019501D401D401D401D401D1
:1025C000D401D401B001D401D401D4010D008C4D4B
:1025D0000A684B688B486B6001218B4B44F838309C
:1025E0002A60DFF85082017092B240F281600023CD
:1025F0008242C8F800302361A36117D8B2F5D06FCA
:1026000080F01E81B2F5817F00F0CF8006D8802A4D
:1026100000F0BA80822A00F0BB8031E140F2023340
:102620009A4200F0D180B2F5A06F1CE042F2210086
:10263000824200F051810ED8B2F5086F00F09E8002
:10264000B2F5106F40F01C81684B6C4EAA781A707E
:1026500006F180090AE042F221218A4200F0088155
:1026600042F221339A4200F00F8109E1336A1B06DE
:1026700003D5706A083800F0B9FA08364E45F5D12E
:102680000026B146DFF8B0A156F80A0028B1D0F80C
:1026900004B000F0ABFA5846F8E74AF806005B4B86
:1026A000DFF898A1F05056F80A0028B1D0F804B02D
:1026B00000F09CFA5846F8E7554B4AF80600F050EF
:1026C000544B23F81900544B19F80320023A032AFB
:1026D00008D8DFE802F002040204002200E0012230
:1026E00003F8092009F10109B9F1040F06F1040604
:1026F000C8D14A4B00221A7001269A46484A494BD3
:102700003244334412F8012C9B0012F0080F1A7067
:102710004FEA860925D000F04BFA38B104EB461396
:1027200008305860404B44F8393006E09AF80030E1
:1027300044F8390001338AF8003000F039FA49F0E2
:10274000010338B104EBC302083050602E4A44F84C
:10275000332006E044F833009AF8003001338AF859
:10276000003049F00202013649F003090023052E2A
:1027700044F8323044F83930C0D186E01B4B2B4C42
:102780001B7823700B4683E0284C237063707EE037
:10279000AA88042A74D8254C920023706370244BB5
:1027A0009B5C9E0773D5217071E0AA8802F07F02BE
:1027B000042A65DC6B88002B62D191001C4A0A4414
:1027C000117821F0020159E0AA8802F07F02042A60
:1027D00056DC6B88002B53D19100154A0A441178BE
:1027E00041F002014AE000BF80200740338BFF1F09
:1027F000BD8AFF1F358BFF1F902007400080FF1F01
:10280000208BFF1F348BFF1FC8004000588AFF1F1A
:10281000108BFF1F108DFF1F688AFF1F2A8BFF1F61
:10282000A081000030C80110880040002B8BFF1FE2
:10283000C0200740548AFF1FAC8AFF1F008BFF1F78
:102840006A88A9889F4B53F8084CA3F10C00BCB1CF
:1028500033F80C6C964209D133F80A6C8E4205D1DC
:10286000120A032A0CBF2378038911E00C33EAE72C
:10287000954A1168954A1160A978954A117004E04B
:10288000944B0F221A7027E000231C4600E002231D
:10289000EE88B34238BF1E46402E34BF3546402531
:1028A00020462946FFF77CFD761B2C4403D1402DA2
:1028B00012D1354603E0402E34BF35464025204630
:1028C0002946FFF76DFD761B2C4401D1402D03D125
:1028D000814AC8F8004016800122804B3DE0804BC1
:1028E0001A8842F221039A4210D100237D4AC85C23
:1028F00098540133072BF9D11368862B02D17A4BF8
:102900000F221A7000200146FFF74AFD774B44F86A
:10291000383023E0764E3568B5B1DFF8BC81B8F8C1
:102920000090B9F1400F34BF4C4640242846214660
:10293000FFF736FDC4EB09039BB2A8F800300BB9D2
:10294000402C00D12B193360654B1A88B2F5A06F6B
:1029500004D100225A709A78664B1A7001225F4B9C
:102960006CE004EBC806013D736802F00802A3F1B5
:102970000800EDB202F0FF01002A36D000F036F96F
:102980005D485E4B50F82520EAB1516840F82510AB
:1029900002F108017160595D03290BD8DFE801F0ED
:1029A00002040608032104E0022102E0052100E000
:1029B0000421595516F0080F12880CBF8823C8232C
:1029C00043EA024342E05A5D032A07D8DFE802F0F7
:1029D00040400204002206E0012204E016F0080F45
:1029E0000CBF022203225A5532E054F83820120C50
:1029F00023F8082C22B3DFF834E123F8061C43F84F
:102A0000041C5EF825303E4913B94EF8250002E05B
:102A100051F8253058603B4B41F8250033F815102C
:102A20000A4423F8152000F0C3F810B10830706094
:102A300006E0354B44F838001A7801321A7007E086
:102A40002A4B324A16F0080F08BF134644F83830B4
:102A500008233B7070E5E0071FD520492B482C4C1C
:102A600002230B702B4B1A702B4B186098602B486D
:102A7000D8601A619A615C60164B0D201870284866
:102A8000FF2303702B700274264A1370264B9F227B
:102A90001A7001230B70BDE8F88F210604D50D4B89
:102AA0000D221A7080232B70A20705D51C4B1A78B3
:102AB000D2B21A7002232B70E30644BF10232B708E
:102AC000BDE8F88FB0810000508AFF1F208DFF1FE6
:102AD000448BFF1FC0200740288BFF1F9420074016
:102AE000208BFF1F188DFF1FBD8AFF1FC8004000ED
:102AF000548AFF1F98200740008BFF1F688AFF1F22
:102B0000588AFF1F108DFF1F2A8BFF1F880040006F
:102B10006C8AFF1FBC8AFF1F0080FF1FC08AFF1F37
:102B2000882007408C20074084200740AC8AFF1F84
:102B300008B501F01FFC00221A4B0021D150981853
:102B40000832882A4160F7D1174A106840F4802083
:102B5000106002F528326832C3F307201070C3F307
:102B600007401B0E10751376FF2302F81C3C02F879
:102B7000143C02F88C3C012302F8083C82F86410F3
:102B800002F8183C094B70226FF450711A700B4414
:102B90004FF400721A6003F1C04303F5C8231022FA
:102BA0001A7008BD0080FF1F3480044049E400E033
:102BB00072B60C4A1168B1FA81F30B2B02D962B6D6
:102BC000002070474FF00040D84021EA000111601A
:102BD00062B6054948225343C8180022CA504260D1
:102BE000704700BF2489FF1F0084FF1F0C4B482241
:102BF000C31AB3FBF2F30B2B11D80A4A127822B195
:102C0000094A12780AB1FFF719BC72B6074A4FF0A9
:102C1000004121FA03F311681943116062B670474D
:102C20000084FF1F2A8BFF1F338BFF1F2489FF1F88
:102C300010B5104C23686BB120684288531C0244C5
:102C4000147A0288934212D3FFF7D0FF094B002277
:102C50001A600DE0084B1B7813B94FF0FF3010BD20
:102C60000320FFF7BDFB20600028E5D1F5E7438096
:102C7000204610BD408BFF1F338BFF1F10B50B4C40
:102C8000236813B123686BB902E0094B1B7813B9B1
:102C90004FF0FF3010BD0320FFF7A2FB206000289B
:102CA000F0D1F5E75A881344187A10BD408BFF1F06
:102CB000338BFF1F044B9888044B1B681BB11A8889
:102CC0005B88D31A18447047108DFF1F408BFF1F7D
:102CD00010B5094B1B786BB1084C206818B1FFF791
:102CE00085FF002323600320FFF77AFB10B1FFF775
:102CF0007DFFF8E710BD00BF338BFF1F408BFF1F28
:102D00002DE9F0472E4E01230746894633700C46C5
:102D1000002C50D02B4D2B68AA462BBB47F20958EC
:102D2000294B1B7803F0FF020BB9327015E0042029
:102D3000FFF772FB072808D801233370FFF738FF2D
:102D4000CAF8000080B91E4B1870B8F101081F4B7B
:102D500001D01A782AB101221A704FF0FF30BDE875
:102D6000F08700F01FF9DBE7184B00221A702B6880
:102D70005888C0F140018C4238BF214600F1080C50
:102D800008449C445880641A8A4204D0B85C0CF809
:102D900002000132F8E717445A883F2A07D9402237
:102DA0001A8019460420FFF785FB00232B60084B8F
:102DB00005221A70ACE734704846BDE8F08700BFC2
:102DC000368BFF1F388BFF1F338BFF1F3C8BFF1F82
:102DD000358BFF1F07B502AB012103F8010D184623
:102DE000FFF78EFF03B05DF804FBFFFF2DE9F04114
:102DF000114B1B78F3B1114E114B3468114D012763
:102E00001F7098464CB1002763882F7004202380E0
:102E10002146FFF74FFB376009E0FFF7C9FE014687
:102E200020B104202C70FFF745FB00E02F70002339
:102E300088F80030BDE8F081338BFF1F388BFF1F0F
:102E4000368BFF1F358BFF1F38B50E4B1B7803F0F9
:102E5000FF05ABB90C4C216831B14B880B800420C5
:102E6000FFF728FB256038BDFFF7A2FE014620B121
:102E70000420BDE83840FFF71DBB044B01221A7047
:102E800038BD00BF368BFF1F388BFF1F358BFF1FF0
:102E9000F8B506460C468F180025BC4207D03368AB
:102EA00014F8011B1B68304698470544F5E728468F
:102EB000F8BDFFFF07B5064B1B88ADF8043003686B
:102EC00001A95B680222984703B05DF804FB00BFCC
:102ED0007081000070B505468AB022B90368C9B296
:102EE0001B6898472CE0012A08BF0A2221B930222A
:102EF0008DF82520212413E02124B1FBF2F002FB00
:102F00001011C9B209290AAE94BF303137312644B5
:102F1000C9B206F8241C014610B1013CE4B2ECE74A
:102F200033B1013CE4B20AAB23442D2203F8242C34
:102F30002B6801A95B6828462144C4F12202984706
:102F40000AB070BD0029BABF49422D2300230A22CE
:102F5000FFF7C0BF08B5FDF7A3FAFDF747FB00F088
:102F600021F8FAE7FFF7A6BEFFF762BEFFF786BEBD
:102F7000FFF73CBFFFF7ACBE0846FFF72BBF084684
:102F80001146FFF7BDBE7047044B00221A714FF483
:102F90007A711A73024A99601A607047488BFF1F52
:102FA0008081000010B50E4C2378BBB9012323703B
:102FB000FFF780FE08B1FFF7E6FF00F01FFB08B146
:102FC00001F089FA00F078FE08B101F00CFB01F085
:102FD00005F908B101F08FFB0023237010BD00BF7D
:102FE000588BFF1F10B5204B2048214960221A70D2
:102FF000E1225A701F4B204A1C78204B082C01D12B
:10300000012402E00A2C03D139240460132005E0D6
:103010000C2C0CBF35243D24046012200860146081
:103020001860174B17491B78174A03B101230B602F
:103030001360164B164A1978164B012901D88021C6
:103040000BE0042901D8842107E0082901D8852153
:1030500003E0102994BF86218721116019600E4B6F
:1030600001221A7010BD00BF0040074008B00340A5
:103070000CB003402889FF1F08B00B400CB00B4078
:103080005A8BFF1F20B0034020B00B402989FF1F3F
:1030900024B0034024B00B40598BFF1F024B1A6829
:1030A00001321A60704700BF508AFF1F08B50B4CF1
:1030B0002368580301D5FFF73DFA2368590501D568
:1030C00000F012FB23681A0501D500F06BFE23689F
:1030D000DB04ECD501F0E6F8E9E700BF34800440FA
:1030E00008B5FFF7E3FFFFFF014B10221A8070477E
:1030F000002005407047FFFFEFF313839BB9EFF308
:10310000108098B9EFF3058323B10F2B04D9084A37
:10311000985C01E04FF48070EFF311833BB1834280
:1031200038BF184670474FF0FF3070471846704759
:10313000F0E300E010B50023B0FBF2F402FB140052
:10314000092894BF30303730C0B2C85420460CB183
:103150000133F1E7CA18547022469A4206DA885CB5
:10316000CC5C8C54C8540132013BF6E7084610BDD4
:10317000234B1A6842F480621A60224A00231370BB
:10318000214A1370214A1370214A1370214A137087
:10319000214B1B782BB1152B07D140F213321F4B5B
:1031A00002E01F4B40F213321A601E4B1B78012BBA
:1031B00005D0052B07D14FF451721B4B02E01B4B7E
:1031C0004FF451721A601A4BC0F344321A70C0F3B4
:1031D00047125A700221042200F01F0098729A7060
:1031E000D9745A7588221A743C22DA70114B402225
:1031F0006FF44A711A700B444FF400521A60704712
:1032000034800440E38BFF1F618BFF1FEC8BFF1F9B
:10321000E48BFF1F608BFF1FA28BFF1F18C00440B1
:1032200040A004402A89FF1F1CC0044044A0044061
:1032300000A006402DE400E0134A937800F003015B
:1032400003F0EC030B43410748BF43F010039370B6
:1032500000F00F03042B0C4903D18B7943F040039A
:103260008B715379C20603F0EF03074A48BF43F05E
:10327000100353719379810603F0EF0348BF43F0C5
:1032800010039371704700BF00A0064008B5114BB2
:103290001B685B0500D408BD0F4B1A7802F0FF03D2
:1032A00012B1FFF77FFEF7E70C4A4FF400511160AF
:1032B0000B4A0C49D37040F203120A604A600A4A72
:1032C00013700A4A13700A4B1B680BB101221A7063
:1032D00008BD00BF34800440608BFF1F84E100E024
:1032E00000A0064040A00440E38BFF1F618BFF1F3E
:1032F0005C8BFF1F38B50446094B1B7803F0FF05B4
:10330000002BF9D120460121FEF744FF2046294633
:10331000FEF720FF034B53F83420034B1A6038BDEF
:10332000608BFF1F60800000E88BFF1F10B509B1A4
:1033300040F08000144A13789842144622D0134A71
:10334000126852051DD503F07F03012B04D0052B15
:1033500005D100220E4B01E00E4B00221A6000291D
:1033600000F07F020CBF44236023012A05D0052A08
:1033700007D143F44073064A02E0064A43F440731F
:103380001360207010BD00BF2A89FF1F34800440E5
:103390001CC0044044A004400E4A1378984218D040
:1033A0000D490968490513D52BB1152B05D10B4BD8
:1033B0000021196001E00A490B6028B1152807D1E6
:1033C00040F21331054B02E0054B40F21331196016
:1033D00010707047A28BFF1F3480044018C0044057
:1033E00040A004400D4A38B5146814F480624FF0D0
:1033F000000410D021280A4D0AD80A4A012152F8A7
:1034000030302B60FEF7C6FE2B681C70012038BDE3
:103410002C60204638BD104638BD00BF34800440C3
:103420005C8BFF1F608000000E4B1B6813F48063F1
:1034300016D012280C4B03D140F202310B4A04E0A3
:10344000142809D10A4A40F2023111605A7B42F035
:1034500001025A73012070475A7B02F0FE025A7330
:10346000002070473480044000A006400CA00440B7
:1034700014C00440F8B51D4B1B685A05064633D5E9
:103480001B4B1B680BB101221A701A4B1C780134BC
:10349000402C1F4628BF0024174D2B78A34218D17B
:1034A000FFF72AFE40280FDC144A13791B06F3D5D8
:1034B0002B7813490133402B28BF0023C95CDBB2B2
:1034C000C9B2D1712B70E7E7FF28E5DDFFF76AFD90
:1034D000E2E70B4BF6B21E550A4B01221A70074B5E
:1034E000E4B2BC223C70DA70F8BD00BF3480044006
:1034F000E88BFF1FEC8BFF1FE48BFF1F00A0064033
:10350000628BFF1F608BFF1F274B1B685A052DE93D
:10351000F04707468A4644D5244B1B680BB101226D
:103520001A703D4607EB0A039D4237D2DFF89080C0
:103530001F4E98F8004096F800900134402C28BFA8
:1035400000245FFA89F9A1451DD11A4BBC22DA701B
:10355000FFF7D2FD40280FDC164A13791B060FD562
:10356000337815490133402B28BF0023C95CDBB2F7
:10357000C9B2D171337003E0FF2801DDFFF712FDFE
:1035800033784B45E4D00C4B15F8012B1A550B4BF7
:103590000122E4B21A7088F80040C3E7054BBC2250
:1035A000DA70BDE8F08700BF34800440E88BFF1F6D
:1035B000E48BFF1F00A00640628BFF1F608BFF1F84
:1035C000EC8BFF1F08B5034B1B7813B1FFF7EAFC28
:1035D000F9E708BD608BFF1F064A074B1B78107880
:1035E000DBB2C0B283422CBF3F3000F1FF30C01AC3
:1035F000704700BFE48BFF1FEC8BFF1F054B187853
:10360000054B1B78C0B2DBB2984238BF4030C01ABD
:10361000704700BFE38BFF1F618BFF1F10B5104B7E
:1036200010491A780B78D2B2DBB29A4214D0013327
:10363000402B28BF00230C48DCB2C05C0C700B4947
:103640000968C0B251B19A4238BF4032D31A1A2B1E
:1036500004DC00230B7010BD4FF0FF3010BD00BF25
:10366000E38BFF1F618BFF1FA38BFF1F5C8BFF1F73
:10367000084B1A78084B1B78DBB29A4207D001330B
:10368000402B28BF0023054AD05CC0B270474FF0E2
:10369000FF307047E38BFF1F618BFF1FA38BFF1F62
:1036A0000C4B1B685B0514D50B4BDA7802F0CB0290
:1036B000DA7040225A74DA7842F03402DA70074B3A
:1036C0001A78074BD2B21A70064B1B680BB1002256
:1036D0001A7070473480044000A00640618BFF1FC1
:1036E000E38BFF1F5C8BFF1F30B5374B1A7912F04D
:1036F000300F31D072B69A7D02F0FF0022B9DA792C
:1037000040225A7462B627E062B6304A30491378D4
:103710000978DBB2C9B214462B4AD5795A1C402A23
:1037200028BF00228A42EDB202D02A4B9D54134694
:10373000421E12F0FF00EFD1DAB22270264A126860
:1037400052B18B4236BFC1F14001C1EB03035B189C
:10375000272BC4BF012313701B4BD978C9B20C06A9
:1037600020D51B7918061DD51C4B1D4A1D781378D2
:10377000EDB2DBB21046AB420CD0134A0133402B02
:103780001479184C28BF0023E45CE4B2D471127D94
:10379000072AF0D9DBB203700B4B1A79120644BF2B
:1037A0007C22DA704B060ED5074B1A7912F0400FC7
:1037B000194608D00C4B00221A700C4B1B6803B141
:1037C0001A703C23CB7030BD00A00640E38BFF1F76
:1037D000618BFF1FA38BFF1F5C8BFF1FEC8BFF1FF9
:1037E000E48BFF1F628BFF1F608BFF1FE88BFF1FA7
:1037F000234B1A6842F400621A60224A00231370B5
:10380000214A1370214A1370214A1370214A137000
:10381000214B1B78092B05D01A2B07D140F213320C
:103820001E4B02E01E4B40F213321A601D4B1B78F8
:103830000A2B05D01F2B07D14FF451721A4B02E00F
:103840001A4B4FF451721A60194BC0F344321A707C
:10385000C0F347125A7000F01F0004220221987230
:103860009A70D9745A7588221A743C22DA70114BF6
:1038700040221A70A3F22B334FF400421A607047B3
:10388000348004405E8CFF1FF58BFF1F648CFF1F8C
:103890005F8CFF1FF48BFF1F2B89FF1F04D0044098
:1038A0000CB004402C89FF1F00D0044010B004402D
:1038B00000B006402FE400E0134A937800F00301C3
:1038C00003F0EC030B43410748BF43F01003937030
:1038D00000F00F03042B0C4903D18B7943F0400314
:1038E0008B715379C20603F0EF03074A48BF43F0D8
:1038F000100353719379810603F0EF0348BF43F03F
:1039000010039371704700BF00B0064008B51E4B0E
:103910001B681B0500D408BD1C4B1B7803F0FF027D
:1039200013B1FFF73FFBF7E7194B4FF40041196064
:10393000184BDA70184B1B78092B05D01A2B07D1BE
:1039400040F20312154B02E0154B40F203121A60CD
:10395000144B1B7803F07F030A2B05D01F2B07D1D4
:1039600040F20312104B02E0104B40F203121A60B7
:103970000F4A002313700F4A13700F4B1B680BB1D3
:1039800001221A7008BD00BF34800440F48BFF1F71
:1039900084E100E000B006402B89FF1F04D0044002
:1039A0000CB004402C89FF1F00D0044010B004402C
:1039B0005E8CFF1FF58BFF1FF08BFF1F38B5044691
:1039C000094B1B7803F0FF05002BF9D1204601219C
:1039D000FEF7E0FB20462946FEF7BCFB034B53F8FD
:1039E0003420034B1A6038BDF48BFF1F6080000049
:1039F000608CFF1F10B509B140F08000144A1378A5
:103A00009842144622D0134A126812051DD503F0BD
:103A10007F030A2B04D01F2B05D100220E4B01E09F
:103A20000E4B00221A60002900F07F020CBF4423D5
:103A300060230A2A05D01F2A07D143F44073064A9F
:103A400002E0064A43F440731360207010BD00BFCB
:103A50002C89FF1F3480044000D0044010B0044083
:103A60000F4A137898421AD00E490968090515D5EE
:103A7000092B04D01A2B05D100210B4B01E00B4B75
:103A800000211960092805D01A2807D140F2133106
:103A9000054B02E0054B40F213311960107070477E
:103AA0002B89FF1F3480044004D004400CB0044034
:103AB0000D4A38B5146814F400624FF0000410D0B9
:103AC00021280A4D0AD80A4A012152F830302B60C9
:103AD000FEF760FB2B681C70012038BD2C6020466F
:103AE00038BD104638BD00BF34800440F08BFF1F46
:103AF000608000000B4B1B6813F4006310D0172884
:103B0000094B09D1094A40F2023111605A7B42F057
:103B100001025A73012070475A7B02F0FE025A7369
:103B2000002070473480044000B0064008B00440D4
:103B3000F8B51D4B1B681A05064633D51B4B1B6891
:103B40000BB101221A701A4B1C780134282C1F4625
:103B500028BF0024174D2B78A34218D1FFF7CCFAC9
:103B600040280FDC144A13791B06F3D52B78134930
:103B70000133282B28BF0023C95CDBB2C9B2D17145
:103B80002B70E7E7FF28E5DDFFF70CFAE2E70B4BC8
:103B9000F6B21E550A4B01221A70074BE4B2BC2242
:103BA0003C70DA70F8BD00BF34800440608CFF1FA9
:103BB000648CFF1F5F8CFF1F00B00640F68BFF1F59
:103BC000F48BFF1F274B1B681A052DE9F0470746AA
:103BD0008A4644D5244B1B680BB101221A703D461E
:103BE00007EB0A039D4237D2DFF890801F4E98F80A
:103BF000004096F800900134282C28BF00245FFA7A
:103C000089F9A1451DD11A4BBC22DA70FFF774FA6D
:103C100040280FDC164A13791B060FD53378154957
:103C20000133282B28BF0023C95CDBB2C9B2D17194
:103C3000337003E0FF2801DDFFF7B4F933784B451B
:103C4000E4D00C4B15F8012B1A550B4B0122E4B2B2
:103C50001A7088F80040C3E7054BBC22DA70BDE853
:103C6000F08700BF34800440608CFF1F5F8CFF1F13
:103C700000B00640F68BFF1FF48BFF1F648CFF1F04
:103C800008B5034B1B7813B1FFF78CF9F9E708BDB2
:103C9000F48BFF1F064A074B1B781078DBB2C0B2CB
:103CA00083422CBF273000F1FF30C01A704700BF9D
:103CB0005F8CFF1F648CFF1F054B1878054B1B782A
:103CC000C0B2DBB2984238BF4030C01A704700BF64
:103CD0005E8CFF1FF58BFF1F10B5104B10491A7833
:103CE0000B78D2B2DBB29A4214D00133402B28BFFA
:103CF00000230C48DCB2C05C0C700B490968C0B2F0
:103D000051B19A4238BF4032D31A1A2B04DC002337
:103D10000B7010BD4FF0FF3010BD00BF5E8CFF1F59
:103D2000F58BFF1F1E8CFF1FF08BFF1F084B1A78AF
:103D3000084B1B78DBB29A4207D00133402B28BFD7
:103D40000023054AD05CC0B270474FF0FF30704787
:103D50005E8CFF1FF58BFF1F1E8CFF1F0C4B1B681B
:103D60001B0514D50B4BDA7802F0CB02DA70402237
:103D70005A74DA7842F03402DA70074B1A78074B3B
:103D8000D2B21A70064B1B680BB100221A70704732
:103D90003480044000B00640F58BFF1F5E8CFF1F8F
:103DA000F08BFF1F30B5374B1A7912F0300F31D03E
:103DB00072B69A7D02F0FF0022B9DA7940225A7475
:103DC00062B627E062B6304A304913780978DBB230
:103DD000C9B214462B4AD5795A1C402A28BF002262
:103DE0008A42EDB202D02A4B9D541346421E12F075
:103DF000FF00EFD1DAB22270264A126852B18B422C
:103E000036BFC1F14001C1EB03035B18272BC4BFD0
:103E1000012313701B4BD978C9B20C0620D51B792E
:103E200018061DD51C4B1D4A1D781378EDB2DBB268
:103E30001046AB420CD0134A0133282B1479184C8E
:103E400028BF0023E45CE4B2D471127D072AF0D9C4
:103E5000DBB203700B4B1A79120644BF7C22DA7076
:103E60004B060ED5074B1A7912F0400F194608D0B1
:103E70000C4B00221A700C4B1B6803B11A703C23C8
:103E8000CB7030BD00B006405E8CFF1FF58BFF1F6E
:103E90001E8CFF1FF08BFF1F648CFF1F5F8CFF1FAA
:103EA000F68BFF1FF48BFF1F608CFF1F174B1A68E8
:103EB00042F480521A60164A00231370154A137098
:103EC000154A1370154A1370154A1370154A40F2BB
:103ED000133111604FF451715160134AC0F34431F2
:103EE0001170C0F3471100F01F0051709072937071
:103EF00013742C23D3700D4B40226FF44B711A7046
:103F00000B444FF400321A60704700BF3480044005
:103F1000D68CFF1F6D8CFF1FDC8CFF1FD78CFF1F03
:103F20006C8CFF1F08C0044000C0064031E400E074
:103F3000134A937800F0030103F0EC030B434107AD
:103F400048BF43F01003937000F00F03042B0C499B
:103F500003D18B7943F040038B715379C20603F090
:103F6000EF03074A48BF43F010035371937981066A
:103F700003F0EF0348BF43F010039371704700BF95
:103F800000C0064008B5114B1B68DB0400D408BD17
:103F90000F4B1A7802F0FF0312B1FFF703F8F7E7AF
:103FA0000C4A4FF4003111600B4A0C49D37040F2B7
:103FB00003120A604A600A4A13700A4A13700A4BD5
:103FC0001B680BB101221A7008BD00BF3480044089
:103FD0006C8CFF1F84E100E000C0064008C0044074
:103FE000D68CFF1F6D8CFF1F688CFF1F38B50446F1
:103FF000094B1B7803F0FF05002BF9D12046012166
:10400000FEF7C8F820462946FEF7A4F8034B53F8FC
:104010003420034B1A6038BD6C8CFF1F6080000099
:10402000D88CFF1F10B509B140F080000E4A1378FC
:10403000984217D00D4C2468E40412D503F07F0396
:10404000082B02D10A4B00241C60002900F07F03DA
:104050000CBF44216021082B03D1054B41F4407172
:104060001960107010BD00BF2D89FF1F34800440FF
:104070000CC004407047FFFF0D4A38B5146814F4B3
:1040800080524FF0000410D021280A4D0AD80A4A65
:10409000012152F830302B60FEF77CF82B681C7041
:1040A000012038BD2C60204638BD104638BD00BF09
:1040B00034800440688CFF1F608000000B4B1B683D
:1040C00013F4805310D00E28094B09D1094A40F24D
:1040D000023111605A7B42F001025A73012070478D
:1040E0005A7B02F0FE025A7300207047348004406D
:1040F00000C0064004C00440F8B51D4B1B68DA043C
:10410000064633D51B4B1B680BB101221A701A4BA4
:104110001C780134282C1F4628BF0024174D2B780B
:10412000A34218D1FEF7E8FF40280FDC144A1379A8
:104130001B06F3D52B7813490133282B28BF002306
:10414000C95CDBB2C9B2D1712B70E7E7FF28E5DDAE
:10415000FEF728FFE2E70B4BF6B21E550A4B012291
:104160001A70074BE4B2AC223C70DA70F8BD00BFA5
:1041700034800440D88CFF1FDC8CFF1FD78CFF1FBE
:1041800000C006406E8CFF1F6C8CFF1F38B50446C4
:104190004518AC4204D014F8010BFFF7ADFFF8E767
:1041A00038BDFFFF08B5034B1B7813B1FEF7FAFECD
:1041B000F9E708BD6C8CFF1F064A074B1B78107887
:1041C000DBB2C0B283422CBF273000F1FF30C01AEF
:1041D000704700BFD78CFF1FDC8CFF1F054B187882
:1041E000054B1B78C0B2DBB2984238BF4030C01AD2
:1041F000704700BFD68CFF1F6D8CFF1F10B5104B92
:1042000010491A780B78D2B2DBB29A4214D001333B
:10421000402B28BF00230C48DCB2C05C0C700B495B
:104220000968C0B251B19A4238BF4032D31A1A2B32
:1042300004DC00230B7010BD4FF0FF3010BD00BF39
:10424000D68CFF1F6D8CFF1F968CFF1F688CFF1F85
:10425000084B1A78084B1B78DBB29A4207D001331F
:10426000402B28BF0023054AD05CC0B270474FF0F6
:10427000FF307047D68CFF1F6D8CFF1F968CFF1F81
:10428000054B1A78054BD2B21A70054B1B680BB15F
:1042900000221A70704700BF6D8CFF1FD68CFF1F65
:1042A000688CFF1F10B5294B1A79920620D5284A31
:1042B000D879137827490133402B097828BF002388
:1042C0008B42C0B203D02449C854D9B21170234ADA
:1042D000116869B1224A1278D2B2934236BFC2F154
:1042E0004002C2EB03039B18272BC4BF01230B70B2
:1042F000164AD178C9B20C0616D51379180613D50B
:10430000184B17481C780378DBB29C4202D16C230F
:10431000D37009E00133282B28BF0023124CE45C42
:10432000DBB2E4B2D47103704B060ED5074B1A7999
:1043300012F0400F194608D00C4B00221A700C4B9B
:104340001B6803B11A702C23CB7010BD00C006404F
:10435000D68CFF1F6D8CFF1F968CFF1F688CFF1F74
:10436000D78CFF1FDC8CFF1F6E8CFF1F6C8CFF1F18
:10437000D88CFF1F1FB572B6154B70221A70154AE4
:10438000412111700F2102F8011C80221A701A7845
:104390001206FCD5104B186862B6104B984298BFB5
:1043A0000A2301AC98BF584321460A22FEF7C2FEF9
:1043B0000023E15C0A4A29B102EB430001330A2BD6
:1043C0004180F6D101335B00137004B010BD00BF13
:1043D0000000024007000240080002407F9698005B
:1043E000B689FF1F08B50368C9B21B68984708BDA6
:1043F00008B50368C9B21B68984708BD08B50368CB
:10440000C9B21B68984708BD08B50368C9B21B68E4
:10441000984708BD4B0803F1B76000F55840B0FB62
:10442000F1F0FEF7A5BE10B54B0803F1B76000F53B
:1044300058401446B0FBF1F0FEF79AFE2046BDE866
:104440001040FEF7F9BEFEF721BF0846FEF752BF47
:104450000846FEF7A1BF08461146FEF767BF08B53C
:104460000846FEF7BFFF003018BF012008BD08B5A1
:104470000846FEF7D9FF003018BF012008BDFFF73E
:10448000BDB8FFF7F5B8FFF7C9B8FFF79BB8FFF75E
:1044900007B9FFF7A1B808B50846FEF7EBFF012002
:1044A00008BD08B50846FEF7E5FF012008BD10B5B8
:1044B000084614461146FFF727F8204610BD38B5C8
:1044C00008460D4600F04CF9044621462846FFF701
:1044D0001BF8204638BD7047044B00221A714FF478
:1044E0007A711A73024A99601A607047E08CFF1F54
:1044F0000082000008B50368C9B21B68984708BD70
:1045000008B50368C9B21B68984708BD08B50368B9
:10451000C9B21B68984708BD08B50368C9B21B68D3
:10452000984708BD4B0803F1B76000F55840B0FB51
:10453000F1F0FFF75DB910B54B0803F1B76000F576
:1045400058401446B0FBF1F0FFF752F92046BDE8A1
:104550001040FFF7B1B9FFF7D9B90846FFF72EBAF7
:104560000846FFF77DBA08461146FFF743BA08B57B
:104570000846FFF79DFA003018BF012008BD08B5B6
:104580000846FFF7B7FA003018BF012008BDFFF753
:1045900093BBFFF7CBBBFFF79FBBFFF771BBFFF7E9
:1045A000DDBBFFF777BB08B50846FFF7C1FA01206E
:1045B00008BD08B50846FFF7BBFA012008BD10B5D5
:1045C000084614461146FFF7FDFA204610BD38B5DF
:1045D00008460D4600F0C4F8044621462846FFF779
:1045E000F1FA204638BD7047044B00221A714FF48F
:1045F0007A711A73024A99601A607047F08CFF1F33
:104600006082000008B50368C9B21B68984708BDFE
:1046100008B50368C9B21B68984708BD08B50368A8
:10462000C9B21B68984708BD08B50368C9B21B68C2
:10463000984708BD4B0803F1B76000F55840B0FB40
:10464000F1F0FFF733BC10B54B0803F1B76000F58C
:1046500058401446B0FBF1F0FFF728FC2046BDE8B7
:104660001040FFF765BCFFF78DBC0846FFF7BEBCE6
:104670000846FFF7FFBC08461146FFF7D3BC08B554
:104680000846FFF7F9FC003018BF012008BD08B547
:104690000846FFF713FD003018BF012008BDFFF7E3
:1046A0009DBDFFF7D5BDFFF7A9BDFFF77BBDFFF7A8
:1046B000E7BDFFF781BD08B50846FFF71DFD0120E6
:1046C00008BD08B50846FFF717FD012008BD10B565
:1046D000084614461146FFF759FD204610BD38B56F
:1046E00008460D4600F03CF8044621462846FFF7F0
:1046F0004DFD204638BD7047044B00221A714FF41F
:104700007A711A73024A99601A607047008DFF1F10
:10471000C082000070B50E4B0E4DED1AAD10002496
:104720001E46AC4204D056F8242090470134F8E7E6
:1047300003F0F2FD084D094BED1AAD1000241E46A2
:10474000AC4204D056F8242090470134F8E770BDFD
:1047500024830000248300003C83000024830000A5
:10476000034613F8012B002AFBD1181A01387047B1
:1047700020494C4939333431205465737421200069
:10478000546F756368006E6F77006D696E006D61C0
:10479000780064656C746100580059005A007820F4
:1047A0003D20002C2079203D20002C207A203D2027
:1047B000004E6F006E6F20746F756368000000001C
:1047C000026001B04002DBFEFF3F9FD7ADE1D8653C
:1047D000819F80049119F31BF81FD7E07F8F00F0B1
:1047E00009300004B0000FC03F0000FE03F0A0003D
:1047F000FC03F0000FE03F05000FC03F0000FE0388
:10480000F033FFFFFFFFE001F807E0000FC07F017A
:10481000401F807E0001FC07E00801F807E00CFF64
:10482000FFFFFFF01F80FE00503F00FC0001F80F6B
:10483000E00283F00FC0001F80FE00103F00FC006C
:104840000007FA1F94B200070000003FE00001FFDC
:10485000FC0007FFFF000FFFFF801FFFFFC03FFFAF
:10486000FFE07FE73FE07F870FF07F0707F0FE075D
:1048700003F0FC0703F8FC0701F8FC0701C21F80E6
:10488000E0001FC0E0000FC0E0000FE0E0000FF804
:10489000E00007FEE00003FFE00001FFFC0000FF76
:1048A000FF80003FFFE0000FFFF00001FFFC000071
:1048B000FFFC0000E3FE0000E0FF0000E07F0000DE
:1048C000E03F0000E03FC0001C03F0E01C03F7E005
:1048D0001C03F7F01C03F7F01C07F3F01C07F3F8B8
:1048E0001C0FE3FC1C1FE1FE1C3FC1FF9CFFC0FF2F
:1048F000FFFF807FFFFF003FFFFE001FFFFC000760
:10490000FFF00000FF800C000380000D3227F780CD
:104910001F8000007E0003FF000003E0007FFC001A
:10492000003F0003FFF00003F0003F0FC0001F0036
:1049300003F03F0001F8001F00F8000F8000F807A7
:10494000C000FC000F801F0007C0007C00F8007E44
:104950000003E007C003E0001F003E003F00011F0E
:10496000003E007E0000F801F007E00007C00F8065
:104970003E00003E007C03F00001F003E01F000059
:1049800007C03E01F800003E01F00F800001F81F53
:1049900000FC000007E1F807C000001FFF807E0058
:1049A00000007FF807E0000001FF803F007E000369
:1049B000F003F00FFC0000001F01FFF0000001F801
:1049C0000FFFC000000F80FC3F000000FC0FC0FC88
:1049D000000007C07C03E000007E03E01F0000032E
:1049E000E03E007C00003F01F003F000007E01F09B
:1049F00003E00007E00F801F00003E007C00F8008D
:104A000003F003E007C0001F001F003E0001F80094
:104A1000F801F0000F8007C00F8000FC001F00F8B5
:104A20000007C000F807C0007E0007E07C0007E038
:104A3000001F87E0003E00007FFE0003F00001FF42
:104A4000E0001F000007FE0001F800000FC0000A90
:104A5000321FF5A0003F800000007FF8000000FF3B
:104A6000FE000000FFFF800000FFFFE00000FFFFEE
:104A7000F800007F83FC00003F80FF00003F803F84
:104A8000800A03F001F80001FC00FC00007E00FC3D
:104A900000003F80FE00000FE0FE000007F0FE0077
:104AA0000001FDFE0000007FFE0000003FFE000050
:104AB000000FFC0000001FFC0000001FFE000000B3
:104AC0003FFF8000003FEFE000003FC7F800003FDD
:104AD000C1FE03C03FC07F03F81FC01FC1FC1FC041
:104AE00007F0FC0FC003FCFE0FE000FF7E07E000B4
:104AF0003FFF03F0000FFF01F80003FF80FC0001FF
:104B0000FF807E00007FC03F80001FE01FC0001FAD
:104B1000F807F0001FFE03FC001FFF80FF001FFFCF
:104B2000E07FE07FF7F81FFFFFF3FE07FFFFF0FFD6
:104B300081FFFFF03F807FFFE00F800FFFC0038009
:104B400000FF000080019119F1BBFD7F8F00043D43
:104B50002732C000F000F000F800F80078007C4038
:104B60000F8401F0403E0407C007E003E0107E0020
:104B70003E00A7E003E006FE0067E005BF0049F83D
:104B8000007C003F0101F0100F81007C1003E00069
:104B9000F8003C001F00078001E00078043D173258
:104BA000CF0003C001F0007C001E000F80407C0499
:104BB00003E0401F0400F8007E001F1001F8007C95
:104BC000B007ED003FC003FA007E003E4807E00357
:104BD000E003F1003E1007C100F8101F001F000F96
:104BE000000F800780078007800005D411C356009E
:104BF000F800E0F838FC71F8FF7FF9FFFFFC7FFF59
:104C0000F003FF0001FC0003FE0007DF000F9F80A0
:104C10001F8FC207E0FC01C0700080200008201830
:104C200074FA000FC0018000FC0019FFFFFFFFA015
:104C300000FC0018000FC0000190376279FD0E3EA5
:104C40000E38F0C0048610E2D9FFFF8001863002E2
:104C500079F804F00002700007E4001F0003F480FC
:104C600007C9001F0003F10007C000FC2401F04841
:104C700007C000FC0901F01207C000FC0241F0046B
:104C800087C000FC0081F0003F00127C0025F0008E
:104C90003F0003E0000007F11FF4A001FF00000740
:104CA000FFC0001FFFF0003FFFF8007FFFFC00FF88
:104CB000FFFE01FF83FE01FE00FF03F8007F03F803
:104CC000003F83F0001F87F0001F94FC0001F9F8FB
:104CD0000000FB7F00001FEFE00003F8FC00007FF6
:104CE0004FC0001F8FE0003F87E0003F07F0007FCC
:104CF00007F800FF03FC01FE03FF07FE01FFFFFCB6
:104D000000FFFFF8007FFFF0003FFFE0001FFF8083
:104D10000003FE000004703804A0007C0007C003FC
:104D2000F001FC00FF007FC03FF01FFC1FFF0FFFE2
:104D3000CFFBF7FCFDFE3F7E0FDE03F700FF4007D1
:104D4000FA003FD001FE800FE4007E07F01004A0BF
:104D500000FF800007FFF0001FFFF8007FFFFE103C
:104D60001FFFFFE03FF03FF07F8007F87F0003F870
:104D70007E0001F8FE0001FE1F80001F8380001FDF
:104D8000C8000003F8000000FC000001FC00000364
:104D9000F8000007F800000FF000001FE000003FDF
:104DA000C000007FC00000FF800001FF000003FE84
:104DB000000007F800000FF000001FE000007FC0B7
:104DC0000000FF800001FF000003FE000007F80064
:104DD000000FF000000FE000001FC0000107F0000E
:104DE0000021FFFFFFFD7FFFFFFF07F11FF4A0037E
:104DF000FC00001FFF80003FFFE000FFFFF001FF0D
:104E0000FFF801FFFFFC03FE03FE07F801FE07F0B9
:104E1000007E07E0007F0FE0003F0FC0003F01C0B1
:104E2000003F10000007E000000FC000001FC0009E
:104E3000003F800000FF00001FFE00001FFC00007C
:104E40001FF800001FFF00001FFF800018FFC000B8
:104E5000001FE0000007F0000003FA0000003F58C8
:104E6000000003F0E00003F7E00003F7F00007F7AD
:104E7000F00007E3F8000FE3FC001FC1FE003FC194
:104E8000FF80FF80FFFFFF007FFFFE003FFFFC0071
:104E90001FFFF80007FFE00000FF0000086F080494
:104EA000A000003E0000001F8000000FE040000056
:104EB000FF0000007FC000003FF0200003FF8000E3
:104EC00001FFE040001FFF00000FEFC00007F3F0FC
:104ED0000003FCFC0000FE3F00007F0FC0003F838A
:104EE000F0001FE0FC0007F03F0003F80FC001FCDA
:104EF00003F000FF00FC003F803F001FC00FC00F09
:104F0000F003F003F800FC01FC003F00FE000FC0BE
:104F10007F8003F033FFFFFFFFA00000FC0A0000CA
:104F200007E00007F01FF4B007FFFFE281FFFFFC7E
:104F300001F8000003F80000507E0000081FC000C8
:104F4000001F8000001F83F8001F9FFE003FBFFF6F
:104F5000803FFFFFC03FFFFFE03FFFFFF03FF01F3C
:104F6000F87FC007F87F8003FC7F0001FC0E000083
:104F7000FC000000FFA000000FC000000FE3F000E5
:104F800003F3F80003F1F80007E1FC000FE0FE0076
:104F90001FC0FF807FC07FFFFF803FFFFF001FFF1C
:104FA000FE000FFFFC0003FFF000007F80000831CF
:104FB00017F4A0007F800001FFF80003FFFF00034B
:104FC000FFFFC003FFFFF003FFFFFC03FF03FE0131
:104FD000FC007F81FC001FC0FE0007E0FE0003F81C
:104FE0007E0000FC3F000000A7E0000003E01FC0BF
:104FF00003F07FFC01F87FFF80FCFFFFE07EFFFFF6
:10500000F83F7FFFFE1FFF01FF8FFC003FC7FC0042
:105010000FF3FC0003F9FC0000FCFE00007FAFC0B2
:105020000003F97C00003F3F00003F9F80001F8786
:10503000E0000FC3F0000FE0FC000FE07F800FF0F6
:105040001FF01FF100FFFFFE001FFFFE0007FFFC27
:105050000000FFFC00000FF00007EF1804B7FFFF8F
:10506000FFFDFFFFFFF8000000F8000001F0000066
:1050700003E0000007C000000FC000001F80000018
:105080001F0000003F0000007E0000007C000000C8
:10509000FC0200003F0040000FC0080003F00100C8
:1050A00000FC0020003F0004800FC0009003F000CF
:1050B0001400FC0002C03F0000580FC0000007F1C0
:1050C0001FF4A001FF000007FFC0001FFFF0003F1A
:1050D000FFF8007FFFFC00FFFFFE01FF01FF01FC66
:1050E000007F01F8003F03F8003F967E0003F07F49
:1050F0000007F03F0007E03F800FE01FE03FC00FD8
:10510000FFFF8007FFFF0001FFFC0003FFFE000F11
:10511000FFFF801FFFFFC03FE03FE07F800FF07E7A
:105120000007F0FE0003F8FC0001F9FC0001FF3F5E
:1051300000001FBF80003F9F80003F1F80007F1F37
:10514000C0007F0FF001FE0FFC07FE07FFFFFC030E
:10515000FFFFF801FFFFF000FFFFE0003FFF8000CE
:1051600007FC000007F11FF4A001FE00000FFF8004
:10517000003FFFE0007FFFF000FFFFFC01FFFFFCAE
:1051800001FF01FE03FC007F07F8003F07F0001F4E
:1051900087F0000F8FE0000FCFE00007D1F800008C
:1051A000FAFF00001FBF80003F9F80003F9FC000AC
:1051B0007F9FE000FF8FF001FF8FFC07FF87FFFF5D
:1051C000DF83FFFFDF81FFFF9F80FFFE1F803FFC2B
:1051D0001F800FE01FD0000007E000000FC87E0016
:1051E00001F87F0003F03F0007F03F800FE01FE071
:1051F0003FE01FFFFFC00FFFFF8007FFFF0003FF1F
:10520000FE0001FFF800003FC00001A3300279FE5C
:1052100081A06810067E01AD376279FE81A068101A
:10522000067F438F1C79E1C10007E12074E0000094
:105230000020000000E0000007E000001FE0000088
:105240007FE00001FFE00007FFC0003FFE0000FF1D
:10525000F80003FFE0000FFF00003FFC0001FFF03B
:105260000007FF80000FFE00000FF000000FC000DD
:10527000000FF000000FFE000007FF800001FFF0AC
:1052800000003FFC00000FFF000003FFE00000FFF4
:10529000F800003FFE000007FFC00001FFE0000033
:1052A0007FE000001FE0000007E0000000E00000D9
:1052B0000020081418E4F9FFFFFFFFA00000000021
:1052C0000000000CFFFFFFFF07E12074E800000072
:1052D0000E0000000FC000000FF000000FFC0000E7
:1052E0000FFF000007FFC00000FFF800003FFE00B6
:1052F000000FFF800001FFE000007FF800001FFFAB
:10530000000003FFC00000FFE000001FE0000007F6
:10531000E000001FE00000FFE00003FFC0001FFFEF
:1053200000007FF80001FFE0000FFF80003FFE005B
:1053300000FFF80007FFC0000FFF00000FFC000097
:105340000FF000000FC000000E0000000800000079
:105350000007F11804A001FF00000FFFE0003FFF6D
:10536000F8007FFFFC00FFFFFE01FFFFFF03FF01CE
:10537000FF83FC007FC7F8003FC7F0001FC7E000B5
:105380000FEFE0000FEFE00007EFC00007E1C00003
:1053900007F0000000FC000001F8000003F8000026
:1053A00007F000000FF000001FE000003FC0000009
:1053B0007F800000FF000001FE000003FC000007EA
:1053C000F8000007F000000FE000000FC00200032B
:1053D000F80058007E000B000000018001F800007A
:1053E0000FBF1F2880000003FFC000000000007FE7
:1053F000FFF80000000007FFFFFE000000003FFF75
:10540000FFFF00000001FFFFFFFF8000000FFFFF14
:10541000FFFF8000003FFF001FFF800000FFF00043
:1054200003FF800003FF000000FF80000FF8000072
:1054300000FF80003FC00000007F8000FF000000F0
:10544000007F8001FC000000007F0007F0007E006C
:10545000007F001FC007FF03F07E003F001FFF8793
:10546000E07E00FC00FFFF9F807C01F003FFFFBF98
:1054700000FC07E00FFFFFFE00F80F803FF07FFC0D
:1054800001F03F00FF803FF803E07C01FC003FE0BB
:1054900007E0F807F0003FC007C3F00FE0007F808F
:1054A0000F87C03F80007F001F0F807E0000FC0040
:1054B0003E1F01FC0001F8007C7E03F00003F000B9
:1054C000F8F807E00007E001F1F01FC0000F8003CB
:1054D000E3E03F00001F000FC7C07E00003E001F3A
:1054E0000F80FC0000FC003E1F01F80001F800FCEA
:1054F0003E03F00003E001F07C07E0000FC007E08E
:10550000F80FC0001F800F81F01F80007F003F0355
:10551000E03F8001FC00FC07E03F0007F803F807CC
:10552000C07F001FF00FE00F80FF007FE07F801F33
:1055300080FF83FFE3FE003F00FFFFFFFFF8003E18
:1055400001FFFFBFFFE0007E01FFFE7FFF80007EC6
:1055500001FFF87FFE0000FC00FFC0FFF00000FC30
:10556000007E007F000FC1FC00000000003F01FC36
:105570000000000000FE03FC0000000007F803FE2E
:10558000000000001FE003FF00000000FF8003FF99
:1055900080000007FE0003FFE000007FF80003FF2B
:1055A000FC000FFFE00001FFFFFFFFFF000001FF15
:1055B000FFFFFFFC000000FFFFFFFFE00000003FD7
:1055C000FFFFFF000000000FFFFFF00000000000E1
:1055D000FFFC0000000B70F805B000007FC0000960
:1055E00000007FF000000003FFE00000000FDF80FC
:1055F0000040000FEFE00000003F1F80000001FCB2
:105600007F00000007E1FC00080007F07F000000B9
:105610001F80FC0010001FC07F0000007E00FC0007
:1056200020007F007F0010007F001FC00001F800F5
:105630003F002001FC001FC01001FC0007F0000724
:10564000FFFFFFC02007FFFFFFF01207FFFFFFFC77
:105650000807F000007F003FC00001FE101FC000DF
:10566000007F00FF000001FE207F0000007F107F10
:105670000000001FC3FC0000007FA1FC0000001F11
:10568000CFF00000007FBF80000000FE09702805F9
:10569000AFFFFFF0003FFFFFFC00FFFFFFFC03FF39
:1056A000FFFFF80FFFFFFFF03FFFFFFFE0FE0001ED
:1056B000FF83F80001FF0FE00003FC3F800007F9C3
:1056C0007FC00001FC7F000007E1FC00003F87F085
:1056D0000001FC1FC0000FF07F0000FF81FFFFFFF3
:1056E000F808FFFFFFF803FFFFFFF80FFFFFFFF8C9
:1056F0003FFFFFFFF0FE0000FFE3F80000FF8FE038
:105700000000FF3F800001FCFE000007FE7F00005C
:1057100001FDFC00000FF7F000003F9FC00001FEFC
:105720007F00000FF1FC0001FFC7FFFFFFFE1FFF1E
:10573000FFFFF07FFFFFFF81FFFFFFFC07FFFFFF81
:10574000C01FFFFFF0000AB21FF6000007FE0000B6
:105750000007FFF8000003FFFFC00001FFFFFE008D
:1057600000FFFFFFE0003FFFFFFE000FFF00FFE034
:1057700003FF0007FE007F80003FC01FE00003FC26
:1057800007F800007FC0FE000007F83FC000007F60
:1057900007F000000FF0FE000000FC3F8000001842
:1057A00012FE000000006FF0000000017FC000004A
:1057B0000001FC000000003F8000000C07F000002A
:1057C00001FCFE0000007FC1FC000001FC3FC000A6
:1057D000007F83F800001FE07F800003FC07F800D3
:1057E00000FF007F80003FE00FFC001FF800FFF08B
:1057F0001FFE000FFFFFFF8000FFFFFFE0000FFF15
:10580000FFF800007FFFFC000003FFFE0000000720
:10581000FE00000A3028060FFFFFF00007FFFFFF21
:105820008003FFFFFFF001FFFFFFFE00FFFFFFFF10
:10583000807FFFFFFFE03F80007FF81FC00007FC74
:105840000FE00001FF07F000007FC3F800001FE138
:10585000FC000007F91FC000003F95FC000001FD9F
:10586000BFC000000FF7FC000000FF3FC000001F9A
:10587000CFE000001FE8FE000001FC7F000001FEF9
:1058800047F000003FC3F800007FC1FC00007FC06C
:10589000FE0001FFE07FFFFFFFE03FFFFFFFE01F93
:1058A000FFFFFFC00FFFFFFFC007FFFFFF8003FFE9
:1058B000FFFC000009302805B9FFFFFFFFDBFC00FB
:1058C00000001BFC00000019FFFFFFFF1BFC000095
:1058D000001BFC00000011FC00000019FFFFFFFF8F
:1058E000E00870280539FFFFFFFFDFE0000006FF3A
:1058F00000000033FFFFFFE1BFC000000DFE00000D
:10590000006FF0000001FC0000000B721FF6800029
:1059100001FFC00000007FFFE000000FFFFFE0007C
:10592000007FFFFFE00007FFFFFFC0003FFFFFFF1A
:105930008001FFE00FFF000FFC0007FE007FE0008A
:1059400007FC03FE00000FF00FF000001FE07F8057
:1059500000003F81FC000000FE0FF0000001FC3F52
:1059600080000007F0FE0000001F14FE0000000091
:105970000BFE00000000067F00003FFFFE5FC0003E
:105980000000FE7F80000003F8FE0000000FE3FC33
:105990000000003F87F0000000FE1FE0000003F859
:1059A0003FC000000FE0FF800000FF81FF80000784
:1059B000FE03FF8000FFF807FFC01FFFC00FFFFFBF
:1059C000FFFC001FFFFFFFE0001FFFFFFE00001FA6
:1059D000FFFFE000001FFFFC00000007FF000009C0
:1059E000B028061BFC000003FEFF000000FF7FC084
:1059F00000003FE7FFFFFFFFFBFC000003FEFF008E
:105A00000000FFBFC000003FC7F000000FE001F042
:105A100030027BFF7FEFFDFFBFF7FE7F06F117F43B
:105A20005A00001FF400003FE800007FD00000FF94
:105A3000800001FC3C001FE7F8003FBFC003FBFCF7
:105A4000007F1FC007F1FE00FF1FF83FE0FFFFFED1
:105A50000FFFFFC07FFFF803FFFF000FFFC0001F15
:105A6000F0000A302805AFE000007FC7F000007F9B
:105A7000C3F800007FC1FC00007FC0FE00007FC0B3
:105A80007F00007FC03F80007FC01FC0007FC00F2D
:105A9000E0007FC007F0007FC003F8007FC001FC7A
:105AA00000FFC000FE00FFC0007F00FFC0003F807D
:105AB000FFC0001FC0FFC0000FE0FFC00007F0FFE5
:105AC000C00003F8FFC00001FCFFC00000FEFFE0C3
:105AD00000007FFFF800003FFFFE000023FFFFF003
