:1000000000800020BD01000011890000D58800009B
:10001000D5880000D5880000D5880000D58800006C
:10002000D5880000D5880000D5880000118900001F
:1000300011890000D588000011890000C5880000E2
:100040001189000011890000118900001189000048
:100050001189000011890000118900001189000038
:100060001189000011890000118900001189000028
:100070001189000011890000118900001189000018
:100080001189000011890000118900001189000008
:1000900011890000118900001189000011890000F8
:1000A000A1870000B18700001189000011890000BC
:1000B00011890000118900001189000011890000D8
:1000C00011890000118900001189000011890000C8
:1000D00011890000118900001189000011890000B8
:1000E00011890000118900001189000011890000A8
:1000F00011890000B1A700001189000019AF0000AC
:10010000118900009DB400001189000011890000D0
:100110001189000011890000118900001189000077
:100120001189000011890000118900001189000067
:100130001189000011890000118900001189000057
:100140001189000011890000118900001189000047
:100150001189000011890000118900001189000037
:1001600011890000318F0000118900001189000001
:100170001189000011890000118900001189000017
:100180001189000011890000118900001189000007
:1001900011890000118900001189000011890000F7
:1001A00011890000118900001189000011890000E7
:1001B000118900001189000011890000564B4CF292
:1001C000205210B51A804DF628121A8000BF00BFC9
:1001D00008F0A2FB514B4FF010621A60504A9A602F
:1001E000504ADA60504A136813F4807304D14F49BF
:1001F0000B604FF4A85313604D4B1A78110703D5C9
:100200001A7842F008021A704A4B4B492A221A7097
:100210004A4A4B4B8B4204D252F8040F43F8040B6A
:10022000F8E7484B484900228B4202D243F8042B9E
:10023000FAE74649464A002352F8230041F82300D2
:1002400001336F2BF8D1434B434A802103F8011B44
:100250009342FBD1414B3D4A1A60414B8A221A70AE
:10026000A3F5805324225A70A0221A709A7992071B
:10027000FCD59A79D406FCD43A4A937903F00C035E
:10028000082B384BF9D103221A7140225A719A79FE
:100290009006FCD5334A9179324B4906FBD5324A58
:1002A000324911600221516020221A709A7902F0BD
:1002B0000C020C2AFAD12E4B2E4A1A602E4B4BF60A
:1002C0007F321A6000225A60072243F8042C2B4A1E
:1002D000C3F80C2D62B608F0E9FC144B1B68DA0772
:1002E00005D5274808F0A6FB264B274A1A60274B5E
:1002F0001B785B0609D5234C234B22689A4204D114
:100300001F4808F097FB002323600CF05DFA08F00B
:1003100009FB09F075FDFEE70E2005403080044022
:10032000823F04000100002B10D0034014D0034092
:1003300002D0074000E007402898FF1FC465010075
:100340002087FF1F2898FF1FA49DFF1F0082FF1F0B
:100350000000000000E400E05FE400E008ED00E0E1
:100360000050064000400640448004400000131145
:1003700004800440C010050014E000E000002020CC
:10038000BFDF68591CE00340A5C3945A00F0074042
:10039000FFFFFFFFFFFFFFFFFFFFFFFFFFFFFFFF6D
:1003A000FFFFFFFFFFFFFFFFFFFFFFFFFFFFFFFF5D
:1003B000FFFFFFFFFFFFFFFFFFFFFFFFFFFFFFFF4D
:1003C000FFFFFFFFFFFFFFFFFFFFFFFFFFFFFFFF3D
:1003D000FFFFFFFFFFFFFFFFFFFFFFFFFFFFFFFF2D
:1003E000FFFFFFFFFFFFFFFFFFFFFFFFFFFFFFFF1D
:1003F000FFFFFFFFFFFFFFFFFFFFFFFFFFFFFFFF0D
:10040000FFFFFFFFFFFFFFFFFFFFFFFFDEF9FFFF23
:1004100010B5054C237833B9044B13B10448AFF33E
:1004200000800123237010BD2898FF1F00000000EA
:10043000C0650100084B10B51BB108490848AFF36F
:1004400000800848036803B910BD074B002BFBD0A0
:10045000BDE81040184700BF000000002C98FF1FA7
:10046000C06501002898FF1F0000000070B594B01F
:100470000221042008F020FB02210A2008F01CFBC6
:100480000221082008F018FB0221142008F014FBB8
:100490000221152008F010FB0221092008F00CFBB6
:1004A000012008F0EDFB0121092008F005FB0021E7
:1004B000092008F0CFFA012008F0E2FB0121092011
:1004C00008F0C8FA0A2008F0DBFB0121162008F02A
:1004D000F3FA0021162008F0BDFA012008F0D0FB45
:1004E0000121162008F0B6FA642008F0C9FBAF4CD1
:1004F000204601F007FC0121204601F0B1FA4FF43B
:10050000FC61204601F09CFAA94802F0A5FCA94C28
:10051000A94B25460FCB07C52B7020460CF050FF8A
:1005200005462218A54B03CB605151601B7813720E
:1005300020460CF045FF01462218A14B1868605078
:1005400099889B799180937120460CF039FF06467B
:1005500025189C4B07CBA0516960AA609A4B18687C
:100560009A499B4C1A469B4E0B7813F0FF0F00F0F4
:100570007D81237813F0030F00F0788113683568CC
:100580005B1B182B40F272819049914C8E4A914E20
:1005900042F20F700B7813F0FF0F00F06E8123789A
:1005A00013F0030F00F06981136835685B1B182B8B
:1005B00040F26381844B1B680693069B864D2B603B
:1005C000864C23685B681922854920469847204657
:1005D00009F0C8FA7B4B794A8249204609F0DAFAD9
:1005E000744E30460CF0ECFE23685B6802463146E0
:1005F00020469847204609F0B5FA2A687A492046ED
:1006000009F0C8FA794B1B68794A12687949096878
:100610000191794909680091784907A80CF092FE88
:1006200023685B68252276492046984707A80CF086
:10063000C7FE23685B68024607A920469847204604
:1006400009F090FA6F4D284606F04CFD6B682A6859
:10065000E9680191A96800916B49204609F09AFA6E
:1006600006F010FD694B186006F00CFD0246684963
:10067000204609F08FFA674D284606F01BFD6B787F
:100680002A786979039129790291E9780191A97809
:1006900000916149204609F07DFA604B1093604B50
:1006A0005B68119310A9284603F008F85D4803F031
:1006B000F1F923685B680D225B492046984712A830
:1006C00003F012F8129B1B68214612A89847204697
:1006D00009F048FA554D4821284606F091FD284674
:1006E00006F016FD284606F02FFD0246504920462A
:1006F00009F050FA23685B6809224E492046984762
:10070000002310228021204609F052FA23685B68FA
:1007100001224949204698478021284606F054FE88
:1007200040B2464B187028B1204623685B681122FE
:1007300043499847434D4FF4A8732B80274C2368B7
:100740005B6809223B4920469847002310222988EC
:10075000204609F02DFA23685B68012236492046BD
:1007600098472A880121314806F0D6FD40B2334B24
:10077000187028B1204623685B68112230499847D9
:1007800000212A4806F08EFD2C4B1870134809F002
:10079000E9F9064C0021204601F052F94FF6E071CC
:1007A000204602F041FB284BA3614FE05498FF1F05
:1007B0009498FF1F5099FF1FD40A0100E40A01001A
:1007C000F00A0100F80A0100809AFF1F649BFF1FD6
:1007D000749BFF1F9C9DFF1F3499FF1F849BFF1F6D
:1007E000040B0100200B0100300B01005880044075
:1007F00054800440608004405C8004404C0B010045
:10080000640B01003899FF1F8C0B01003099FF1F0A
:10081000C80B01000C99FF1FE00B0100546101009F
:100820008098FF1F1499FF1F140C0100A898FF1F48
:10083000240C0100400C01005C0C01000188FF1F2A
:100840004C0C01000899FF1FCC5601001422052111
:10085000204602F0D1FA23685B680A220B49204641
:1008600098474FF4FA6008F00BFA0DE013681B1A72
:10087000B3F57A7F7FF678AE86E613680593059B1D
:1008800083427FF687AE95E614B070BD600C010020
:1008900030B585B0224B234A1A60C0241C71A820B1
:1008A0005871012199710A25DD711F4B1A601C7165
:1008B00058719971D9711D4B1A60FF241C715C71BC
:1008C0009C710025DD711A4B5D7046F2A0025A80C2
:1008D0004FF496629A804FF4A062DA804EF2804222
:1008E0005A814FF496429A8122460821114802F01B
:1008F000A7FA0C2302930D2301930B2300932346A5
:10090000152214210C4800F0E3FB0C4B1D710C4A1E
:100910001A6041F69072DA8004221A7205B030BD76
:100920008098FF1F54610100D499FF1F4C98FF1F4E
:10093000A898FF1F9498FF1F5498FF1F1499FF1F3A
:10094000585D01002DE9F0418AB0544B1B680493B7
:10095000049B534A1360534A126864329A4210D27D
:10096000504A1360504AA2FB031292094F490A6091
:100970004F4909688A4204D94D490A604D4A1360BB
:1009800003E04D4B1B78002B6FD000224A4B1A70AE
:100990004A4A136801331360494A1268934284BF7C
:1009A000474A1360474803685B68012246499847F5
:1009B000464B1A886FEA42426FEA524292B21A805C
:1009C000434C0121204606F0A7FC424D287000212F
:1009D000204606F067FC28703F4E3146204606F060
:1009E0002FFC28703188204606F018FC3B4B18601D
:1009F0002F4B1A683A4BA3FB0213DB0803EB83036C
:100A0000B2EB430F02D10121364B1970364BA3FBD9
:100A100002135B09C3EB0313B2EB830F02D1012274
:100A2000324B1A70324C002301933C23009340F266
:100A30003F130F220521204600F050FE4FF6E071D3
:100A4000204602F0F1F92B4BA361142250212046DD
:100A500002F0D2F9214B18680BF022F9022300931F
:100A600002460B46204609F0DFF8234906A803F0AA
:100A700061F89DF82530032B00F21B821F491148B5
:100A800009F088F804F0D4FE054B1A681C4B1A6074
:100A90000126DFF870800B4C004F36E0809AFF1F74
:100AA0003499FF1F4898FF1FD34D62109098FF1F85
:100AB0002499FF1F7898FF1F8898FF1F2899FF1F10
:100AC0004899FF1F849BFF1F6C0C01000899FF1FB2
:100AD000A898FF1F0188FF1F4C99FF1F8C98FF1FCC
:100AE000CDCCCCCC2099FF1F898888884498FF1FE3
:100AF0005498FF1FE85601001499FF1F700C010065
:100B0000D099FF1FC80D0100012606A802F0A4FE1F
:100B1000002800F07B8106A802F050FF002800F0BA
:100B2000578106A802F05EFFC5B223681B682946FC
:100B3000204698470A2D40F00D81002EE4D0874CC6
:100B400023685B681322864920469847854D2B68A9
:100B500001332B60069B5B680F22834906A89847E8
:100B600006A808F0FFFF069B5B6817227F4906A8CE
:100B7000984706A808F0F6FF069B5B6811227C499F
:100B800006A8984706A808F0EDFF069B5B680A22B6
:100B9000784906A8984706A808F0E4FF06A808F0D8
:100BA000E1FF069B5B680F22734906A8984706A8D9
:100BB00008F0D8FF069B5B680622704906A8984794
:100BC00006A808F0CFFF069B5B6830226C4906A898
:100BD000984706A808F0C6FF6A4E30460CF0F0FBB6
:100BE000069B5B680246314606A89847664E069B00
:100BF0005B680622314606A8984706A808F0B2FFAF
:100C0000069B5B681522614906A8984700230A22C3
:100C10005F49097806A808F0CBFF069B5B680E22A7
:100C20005C4906A8984706A808F09CFF069B5B68ED
:100C30000122594906A89847DFF8908100230A222B
:100C4000D8F8001006A808F0B3FF069B5B680622E0
:100C5000524906A8984706A808F084FF504B186828
:100C60000BF01EF80227009702460B4606A808F074
:100C7000DBFF069B5B680D224A4906A898470023C4
:100C80000A22296806A808F093FF069B5B681022D9
:100C9000454906A8984728680BF0DCFB0546D8F8BC
:100CA00000000BF0D7FB014628460BF0DFFC0AF0F2
:100CB000F7FF009702460B4606A808F0B5FF069B13
:100CC0005B680822394906A89847069B5B6806229C
:100CD000314606A8984700230A223549096806A824
:100CE00008F066FF069B5B680B22324906A898470E
:100CF00006A808F037FF00230A222F49096806A832
:100D000008F056FF069B5B680F222C4906A89847FF
:100D100006A808F027FF069B5B680622314606A856
:100D2000984706A808F01EFF069B5B680722244927
:100D300006A8984706A808F015FF23685B680422F8
:100D4000204920469847204608F00CFF00221E4B01
:100D50001A605BE00D2D18BF0026D6E6849BFF1FAE
:100D6000900C01007C98FF1FA40C0100B40C010042
:100D7000CC0C0100E00C0100EC0C0100FC0C0100AB
:100D8000040D01005099FF1F580D0100380D01009E
:100D90000088FF1F500D0100600D0100640D01006F
:100DA0008C98FF1F6C0D01007C0D0100900D01005F
:100DB0002C99FF1F9C0D01004899FF1FA80D0100F1
:100DC000B80D0100C00D01002899FF1F9098FF1F6A
:100DD00023685B6801224146204698473B6805939B
:100DE000059A404B1B6803F57A739342BFF48DAEAE
:100DF0003D4C23685B6831223C4920469847204699
:100E000008F0B0FE3A4A136801331360012007F07E
:100E100037FF354C23685B680F22364920469847D8
:100E2000204608F09FFE06A802F002FE23685B68D9
:100E30001322314920469847204608F093FE2F4E52
:100E400035682F4B18680AF02BFFCDE900012A46C0
:100E50002C49204608F09EFE2B4B1D68244B1B6836
:100E6000029328460BF0F6FA074630680BF0F2FAC8
:100E7000014638460BF0FAFB0AF012FFCDE90001FB
:100E80002A462249204608F085FE00230A222049EE
:100E90000968204608F08CFE23685B6813221D4910
:100EA00020469847204608F05DFE204608F05AFE8E
:100EB00014E0194B1B7843B10022174B1A700A48F3
:100EC00003685B68012215499847154B1B782BB1C5
:100ED0000022134B1A70044808F044FE0AB0BDE823
:100EE000F08100BFD099FF1F849BFF1FCC0D010034
:100EF0002C99FF1F000E0100100E01009098FF1F9B
:100F00008C98FF1F240E01007C98FF1F400E0100EB
:100F10004899FF1F700E01002099FF1F840E0100E9
:100F20004498FF1FF0B400240127CB08C55C01F0F2
:100F30000703C3F108039A4209D39C4007FA03F65A
:100F4000013E35402C431944D21AEED10BE004FA8D
:100F500002F19B1A45FA03F3012404FA02F2541E2B
:100F60002340DCB20C432046F0BC7047F0B5002AA9
:100F700014BF4FF060574FF06457174A1268174C70
:100F80002588174C94FBF5F4A1421BD309E055F8D2
:100F9000042F36F8024F9EFBF4F4A14201D2AC4577
:100FA000F5D113F0080F18BF47F0806713F0040F56
:100FB0000FD047F0007722F47043120902F47062F8
:100FC0001A4306E0044D054E05F1580CDFF810E019
:100FD000DDE73A430260F0BDAC5C01007C5C0100DF
:100FE000006CDC021D4B1B78002B28D072B61B4B0B
:100FF0001B7813F0010F07D0194A1168194B1B68B1
:101000000B4019490B601360144B1B7813F0020F4F
:1010100007D0164A1168134B5B680B4012494B60AE
:1010200013600E4B1B7813F0040F07D0104A1168A1
:101030000C4B9B680B400C498B60136062B60D4BE8
:10104000DB68834208D00B4B0B4A1A60D86040F033
:1010500080401861094A1A60704700BFF899FF1F65
:1010600080E100E0E099FF1FEC99FF1F84E100E0C0
:1010700088E100E000C0024001401F0000001F8026
:101080000E4B1B78C3B113F0010F03D00C4B1A6841
:101090000C4B1A60094B1B7813F0020F03D0084B5E
:1010A0005A68094B1A60054B1B7813F0040F03D0E4
:1010B000034B9A68054B1A60704700BFF899FF1FF1
:1010C000EC99FF1F00E100E004E100E008E100E02E
:1010D00070B400250571114E066041778277037761
:1010E0009DF80C3080F822309DF8103080F82330C5
:1010F0009DF8143080F82130F023C3804FF4A073A2
:101100000381C57445818581012383744FF6FF7285
:101110000282C2810375856170BC7047745C0100F6
:101120000029C0F230812DE9F041B0F906408C422F
:1011300040F32781002AC0F22481B0F9084094428C
:1011400040F31F81904CD4F800E0904C2668904CFE
:101150002588904C94FBF5F4A6450FD28B4C8C4F10
:1011600004F15808DFF82CC254F8046F37F8025F16
:101170009CFBF5F5AE4501D2A045F5D146F0605592
:10118000854C2478002C34D072B6834C247814F02B
:10119000010F0BD0814FD7F800E0814C24680EEA94
:1011A0000404DFF814E2CEF800403C607A4C247866
:1011B00014F0020F0BD07B4FD7F800E0784C646836
:1011C0000EEA0404DFF8F0E1CEF804403C60724C13
:1011D000247814F0040F0BD0734FD7F800E0704C54
:1011E000A4680EEA0404DFF8D0E1CEF808403C60C1
:1011F00062B66E4CE468AC4208D06C4C6C4F276011
:10120000E56046F0F04626616A4D256089B292B2EB
:1012100090F82040240444F0004444F02A04634D34
:101220006C63EC6A14F0F00F18BFAE6B04F47044FA
:10123000B4F5405FF5D8C47F41EA044444F010445B
:101240005A4D6C63EC6A14F0F00F18BFAE6B04F4E7
:101250007044B4F5405FF5D8C47F41EA044141F0E1
:101260001041524C6163E16A11F0F00F18BFA56B99
:1012700001F47041B1F5405FF5D890F820100904F1
:1012800041F0004141F02B01484C6163E16A11F0EB
:10129000F00F18BFA56B01F47041B1F5405FF5D8B0
:1012A000C17F42EA014141F01041404C6163E16A73
:1012B00011F0F00F18BFA56B01F47041B1F5405F5C
:1012C000F5D8C17F42EA014242F0104237494A63F1
:1012D000CA6A12F0F00F18BF8C6B02F47042B2F5BC
:1012E000405FF5D890F82020120442F0004242F00E
:1012F0002C022E494A63CA6A12F0F00F18BF8C6B99
:1013000002F47042B2F5405FF5D8284A1168C07FF8
:1013100043EA004343F0C0535363D36A13F0805F42
:1013200004D113F0F00FF8D0936BF6E71F4B4FF09A
:101330008052DA621960DB6A13F0F00F05D01B4BA4
:101340009A6BDA6A12F0F00FFAD1134B1B78C3B123
:1013500013F0010F03D0184B1A68184B1A600E4B8C
:101360001B7813F0020F03D0134B5A68144B1A600A
:10137000094B1B7813F0040F03D00F4B9A68114BE5
:101380001A60BDE8F08170470488FF1FAC5C010063
:101390007C5C0100006CDC02F899FF1F80E100E03A
:1013A000E099FF1F84E100E088E100E000C0024016
:1013B00001401F0000001F80EC99FF1F00E100E0CA
:1013C00004E100E008E100E02DE9F043BDF81C5025
:1013D000B0F906608E4240F35E81B0F90840944255
:1013E00040F35981002AC0F25681002902DA5C18C4
:1013F00023B20021CC18013CB442C0F24881761AD5
:1014000033B2A64CD4F800C0A54C2668A54C27885A
:10141000A54C94FBF7F4A44510D2A14FDFF884E269
:1014200007F15809DFF8808257F8046F3EF8024F41
:1014300098FBF4F4A44501D24F45F5D146F060572E
:101440009A4C2478002C3AD072B6984C247814F038
:10145000010F0DD0DFF874E2DEF800C0944C246870
:101460000CEA0404DFF854C2CCF80040CEF8004087
:101470008E4C247814F0020F0DD0DFF854E2DEF821
:1014800000C08B4C64680CEA0404DFF830C2CCF86E
:101490000440CEF80040854C247814F0040F0DD0A1
:1014A000DFF830E2DEF800C0814CA4680CEA0404E6
:1014B000DFF808C2CCF80840CEF8004062B67D4C98
:1014C000E468BC420AD07B4CDFF80CE2C4F800E0D0
:1014D000E76046F0F0462661774E26608EB29CB2F9
:1014E000771E2744BFB292B290F820301B0443F01D
:1014F000004343F02A036F494B63CB6A13F0F00FAC
:1015000018BFD1F838E003F47043B3F5405FF4D866
:10151000C37F46EA034343F0104366494B63CB6AFB
:1015200013F0F00F18BF8E6B03F47043B3F5405FF8
:10153000F5D8C37F47EA034343F010435D494B634B
:10154000CB6A13F0F00F18BF8E6B03F47043B3F542
:10155000405FF5D890F820301B0443F0004343F07F
:101560002B0354494B63CB6A13F0F00F18BF8E6BFB
:1015700003F47043B3F5405FF5D8C37F42EA0343F9
:1015800043F010434B494B63CB6A13F0F00F18BF85
:101590008E6B03F47043B3F5405FF5D8C37F42EA26
:1015A000034343F01043434A5363D36A13F0F00FED
:1015B00018BF916B03F47043B3F5405FF5D890F812
:1015C00020301B0443F0004343F02C03394A53639B
:1015D000D36A13F0F00F18BF916B03F47043B3F5A7
:1015E000405FF5D8334A23B2012B12DDC37F45EAB1
:1015F000034343F010435363D36A13F0F00F18BF53
:10160000916B03F47043B3F5405FF5D8013CA4B28D
:10161000E9E7284A1168C37F45EA034343F0C05312
:101620005363D36A13F0805F04D113F0F00FF8D046
:10163000936BF6E71F4B4FF08052DA621960DB6A5A
:1016400013F0F00F05D01B4B9A6BDA6A12F0F00F13
:10165000FAD1164B1B78F3B113F0010F03D0174BDF
:101660001A68174B1A60114B1B7813F0020F03D046
:10167000124B5A68134B1A600C4B1B7813F0040F73
:1016800009D00E4B9A68104B1A60BDE8F083034CEA
:10169000D4F800C0B8E6BDE8F08300BF0488FF1F9F
:1016A000AC5C01007C5C0100006CDC02F899FF1F5F
:1016B000E099FF1F00C0024000001F80EC99FF1F4F
:1016C00000E100E004E100E008E100E080E100E08A
:1016D00084E100E088E100E001401F002DE9F047CF
:1016E00082B09846BDF92870BDF82C60B0F906307C
:1016F0008B4240F382810546B0F90800904240F3E6
:101700007C81002903DA88440FFA88F80021002A36
:1017100002DA17443FB2002201EB0804013C9C426C
:10172000A4BF5B1A0FFA83F8D319013B8342C0F2BE
:101730006181871A3FB2B24B1C68B24B1B68B2483A
:10174000B0F800E0B14890FBFEF0844210D2AD4802
:10175000DFF8B4C200F1580ADFF8B09250F8043F45
:101760003CF802EF99FBFEFE744501D28245F5D1AB
:1017700043F06054A648007800283AD072B6A448D6
:10178000007810F0010F0DD0DFF8A4E2DEF800C001
:10179000A04800680CEA0000DFF884C2CCF8000022
:1017A000CEF800009A48007810F0020F0DD0DFF854
:1017B00084E2DEF800C0974840680CEA0000DFF8D9
:1017C00060C2CCF80400CEF800009148007810F018
:1017D000040F0DD0DFF860E2DEF800C08D488068AD
:1017E0000CEA0000DFF838C2CCF80800CEF80000A0
:1017F00062B68948C068A0420AD08748DFF83CE258
:10180000C0F800E0C46043F0F0430361834B036021
:101810008CB204F1FF3EC6441FFA8EFE91B24A1EFE
:101820003A4492B295F820301B0443F0004343F051
:101830002A0379484363C36A13F0F00F18BFD0F846
:1018400038C003F47043B3F5405FF4D8EB7F44EA4B
:10185000034343F0104370484363C36A13F0F00F2F
:1018600018BF846B03F47043B3F5405FF5D8EB7F8A
:101870004EEA034343F0104367484363C36A13F0DF
:10188000F00F18BF846B03F47043B3F5405FF5D8D5
:1018900095F820301B0443F0004343F02B035E48CF
:1018A0004363C36A13F0F00F18BF846B03F47043F3
:1018B000B3F5405FF5D8EB7F41EA034343F01043B3
:1018C00055494B63CB6A13F0F00F18BF886B03F4D4
:1018D0007043B3F5405FF5D8EB7F42EA034343F032
:1018E00010434D4A5363D36A13F0F00F18BF916B46
:1018F00003F47043B3F5405FF5D895F820301B042E
:1019000043F0004343F02C03434A5363D36A13F07C
:10191000F00F18BF916B03F47043B3F5405FF5D837
:10192000002F4ADD3C4CB8F1010F14DD4146EB7F3E
:1019300046EA034343F010436363E36A13F0F00F96
:1019400018BFA26B03F47043B3F5405FF5D80139BB
:1019500009B20129EBDC2268EB7F46EA034343F03E
:10196000C0536363E36A13F0805F04D113F0F00F98
:10197000F8D0A36BF6E74FF08053E3622260E36A8E
:1019800013F0F00F04D0A36BE36A13F0F00FFAD159
:10199000012F0EDD17F0010F0BD0FFF771FB0023B5
:1019A00001221749096801A8FFF7E0FA0198FFF73B
:1019B00019FB013F3FB2002FB5D1154B1B78E3B1A6
:1019C00013F0010F03D0164B1A68164B1A60104B18
:1019D0001B7813F0020F03D0114B5A68124B1A6098
:1019E0000B4B1B7813F0040F07D00D4B9A680F4B6D
:1019F0001A6002E0024B1C689FE602B0BDE8F08767
:101A00000488FF1FAC5C01007C5C0100006CDC0200
:101A1000F899FF1FE099FF1F00C0024000001F80DF
:101A2000EC99FF1F00E100E004E100E008E100E0C4
:101A300080E100E084E100E088E100E001401F0077
:101A400000B583B0B0F906300191B0F908200092DA
:101A500000221146FFF742FE03B05DF804FB00BF11
:101A6000F0B401F00301C174964B1D68964B1968E0
:101A7000964B1A88964B93FBF2F39D420ED2924BF3
:101A8000924C03F15807924E53F8041F34F8022F7A
:101A900096FBF2F2954201D29F42F5D141F060529D
:101AA0008C4B1B78002B28D072B68A4B1B7813F016
:101AB000010F07D0884C2568884B1B682B40884D48
:101AC0002B602360834B1B7813F0020F07D0854CEB
:101AD0002568824B5B682B40814D6B6023607D4B9A
:101AE0001B7813F0040F07D07F4C25687B4B9B6855
:101AF0002B407B4DAB60236062B67C4BDB6893422E
:101B000008D07A4B7A4C1C60DA6041F0F0411961E0
:101B1000784A1A6090F820301B0443F0004343F0E9
:101B20003603724A5363D36A13F0F00F18BF916BF8
:101B300003F47043B3F5405FF5D8C37C032B00F288
:101B40009F80DFE803F002295077684A1168C37F5D
:101B50001B0443F0006343F048035363D36A13F05C
:101B6000805F04D113F0F00FF8D0936BF6E75F4B72
:101B70004FF08052DA621960DB6A13F0F00F05D083
:101B80005A4B9A6BDA6A12F0F00FFAD1F023C38045
:101B90004FF4A073038173E0544A1168C37F1B04A0
:101BA00043F0006343F028035363D36A13F0805F6C
:101BB00004D113F0F00FF8D0936BF6E74B4B4FF0D6
:101BC0008052DA621960DB6A13F0F00F05D0474BE0
:101BD0009A6BDA6A12F0F00FFAD14FF4A073C38057
:101BE000F02303814CE0414A1168C37F1B0443F09A
:101BF000006343F088035363D36A13F0805F04D11A
:101C000013F0F00FF8D0936BF6E7384B4FF080529B
:101C1000DA621960DB6A13F0F00F05D0334B9A6B70
:101C2000DA6A12F0F00FFAD1F023C3804FF4A073F8
:101C3000038125E02D4A1168C37F1B0443F0006334
:101C400043F0E8035363D36A13F0805F04D113F0C9
:101C5000F00FF8D0936BF6E7244B4FF08052DA6226
:101C60001960DB6A13F0F00F05D0204B9A6BDA6A2B
:101C700012F0F00FFAD14FF4A073C380F023038168
:101C8000144B1B78C3B113F0010F03D0144B1A6827
:101C9000194B1A600F4B1B7813F0020F03D0104B37
:101CA0005A68164B1A600B4B1B7813F0040F03D0C5
:101CB0000B4B9A68124B1A60002343818381F0BC5E
:101CC000704700BF0488FF1FAC5C01007C5C010012
:101CD000006CDC02F899FF1F80E100E0E099FF1F33
:101CE000EC99FF1F84E100E088E100E000C00240C1
:101CF00001401F0000001F8000E100E004E100E05F
:101D000008E100E0F8B590F822300B2B02D0072B49
:101D100040F0748290F8212002F0FB02082A40F083
:101D20006D8290F823200D3AD2B2012A00F2668229
:101D3000A74A11780B2B02D101F0FE0204E0072B19
:101D400040F0508241F00102A24B1B6813F4805F07
:101D500016D0914240F02E8212E04FF4A2719E4BB9
:101D600019604FF41071A3F57F63196008E04FF418
:101D7000A2719A4B19604FF4007103F57F631960EB
:101D8000934B1A7090F821300C2B02D102F0FD0316
:101D900004E0082B40F02A8242F002038D490968D2
:101DA00011F4805F16D0934240F0098212E04FF4A4
:101DB000A2718B4A11604FF40071A2F57F6211602D
:101DC00008E04FF4A271874A11604FF4007102F5E8
:101DD0007F6211607E4A137090F823200D2A02D191
:101DE00003F0FB0205E00E2A40F0048243F00402F7
:101DF000D2B27849096811F4805F16D09A4240F057
:101E0000E38112E04FF4A271774B19604FF4107127
:101E1000A3F57F63196008E04FF4A271734B19605A
:101E20004FF4007103F57F6319600446684B1A7024
:101E300001F036F8A17F607F01F09CF870B1607FFF
:101E400001F0AEF80546E077A07F01F0A9F828433D
:101E500084F82000207FFF2805D1BAE10023E37732
:101E600084F82030F8BD012106F026FE0121207FF4
:101E700006F0F0FD052006F003FF0021207F06F0AC
:101E8000E9FD142006F0FCFE0121207F06F0E2FDB2
:101E9000962006F0F5FE564B1968564B1B68564ABD
:101EA0001088564A92FBF0F28A420ED9514A524D9E
:101EB00002F15807514E52F8043F35F8020F96FBD5
:101EC000F0F0884201D99742F5D143F060514C4A75
:101ED0001278002A28D072B6494A127812F0010FFF
:101EE00007D048480568484A12682A40474D2A608A
:101EF0000260434A127812F0020F07D04448056886
:101F0000414A52682A40414D6A6002603C4A127858
:101F100012F0040F07D03F4805683B4A92682A40F8
:101F20003A4DAA60026062B63B4AD2688A4208D043
:101F3000394A3A481060D16043F0F0431361384B9E
:101F40001360384F344A3B785D1EEDB263B3BE1C5C
:101F500094F820107B7843EA014343F00043536335
:101F6000D36A13F0F00F18BF916B03F47043B3F50D
:101F7000405FF5D8AB1C1F443046B84201D17719F9
:101F8000E1E7E17F10F8013B43EA014343F00043FE
:101F90005363D36A13F0F00F18BF916B03F47043CF
:101FA000B3F5405FF5D8E8E71B4A116894F8203094
:101FB0001B0443F0006343F011035363D36A13F02F
:101FC000805F31D113F0F00FF8D0936BF6E700BFCC
:101FD000789BFF1F3C80044008C0044018B00440B8
:101FE0000CC004401CB0044004C0044014B00440C1
:101FF0000488FF1FAC5C01007C5C0100006CDC020B
:10200000F899FF1F80E100E0E099FF1FEC99FF1FA6
:1020100084E100E088E100E000C0024001401F00D0
:1020200000001F80005C0100754B4FF08052DA62A7
:102030001960DB6A13F0F00F05D0714B9A6BDA6A06
:1020400012F0F00FFAD16F4B1B78002B00F0C48018
:1020500013F0010F03D06C4B1A686C4B1A60694B7C
:102060001B7813F0020F03D0674B5A68684B1A6055
:10207000644B1B7813F0040F03D0634B9A68654BD5
:102080001A60782006F0FCFD634B1968634B1B68EF
:10209000634A1088634A92FBF0F28A420ED95F4A83
:1020A0005F4D02F158075F4E52F8043F35F8020FBA
:1020B00096FBF0F0814201D29742F5D143F0605196
:1020C000504A1278002A28D072B64E4A127812F07E
:1020D000010F07D054480568544A12682A404A4DF7
:1020E0002A600260474A127812F0020F07D0504867
:1020F00005684E4A52682A40434D6A600260414A70
:10210000127812F0040F07D04A480568474A9268CF
:102110002A403D4DAA60026062B6394AD2688A42BE
:1021200008D0374A44481060D16043F0F04313614F
:10213000424B1360324A116894F820301B0443F07C
:10214000006343F029035363D36A13F0805F04D123
:1021500013F0F00FF8D0936BF6E7294B4FF0805255
:10216000DA621960DB6A13F0F00F05D0244B9A6B2A
:10217000DA6A12F0F00FFAD1224B1B78002B3DD017
:1021800013F0010F03D0204B1A68204B1A601D4B2F
:102190001B7813F0020F03D01B4B5A681C4B1A60BC
:1021A000184B1B7813F0040F28D0174B9A68194B63
:1021B0001A60F8BD12F0010F3FF4CFADD7E513F070
:1021C000020F3FF4F4ADFCE512F0040F3FF41AAE39
:1021D00022E6114B196860E6782006F051FD0E4B9F
:1021E000196853E7164B1B680A46C9E5144B1B6870
:1021F0001346EFE5124A12681A4616E6F8BD00BF0C
:1022000000C00240F899FF1FEC99FF1F00E100E0B9
:1022100004E100E008E100E00488FF1FAC5C01007D
:102220007C5C0100006CDC0280E100E0E099FF1FB3
:1022300084E100E088E100E001401F0000001F8011
:102240003C8004402DE9F04F91B0BDF868A0BDF886
:102250006C709DF87060B0F906408C4240F36D825E
:10226000B0F90840944240F3688206EB460401EB63
:102270004404012C00F1618202EBC604012C00F140
:102280005C82984603928B460446BA4540F04481EE
:10229000012E40F08A8003EB8309BDF80C7007F132
:1022A00008039BB204934FF0010809F10503994A12
:1022B0001344059354468246964B09EB03020023D0
:1022C00012F8011B11EA080F18BF43F001035B006D
:1022D000DBB205998A42F3D15E08002B5BD01F2E3A
:1022E00007D01E2E10D000253BB2039317E046B94D
:1022F00051E0009405233AB259465046FFF764F87E
:1023000049E01E2E0BD100E000250BEB05010094E7
:1023100004233AB209B25046FFF756F83BE006F004
:102320001C031C2B0ED1ADB205EB0B010094032353
:10233000039A09B25046FFF747F83601F6B2043562
:102340002DB2D4E706F01803182B0ED1ADB205EB71
:102350000B0100940223039A09B25046FFF734F8A8
:10236000F600F6B203352DB2C1E716F0100F0DD00E
:10237000ADB205EB0B012346039A09B25046FEF7B6
:10238000CFFEB600F6B202352DB2B0E77600F6B257
:1023900001352DB2ABE74FEA48085FFA88F80137FC
:1023A000BFB2049B9F4287D1C7E103EB830308932D
:1023B0001FFA86F84FEA4802099208EB48020A928F
:1023C0004FEA88020B9208EB88020C9208220792CF
:1023D0004FF000090122069205334E4A13440D9333
:1023E00004905446089B4B4A9A18002312F8011B8C
:1023F0000698014218BF43F001035B00DBB20D9960
:102400008A42F3D15F08002B73D01F2F04D01E2FF8
:1024100020D110E067B96CE0039B09FB08320194FE
:1024200000960C9B12B259460498FFF757F960E0EA
:102430001E2F18D100E00023039A09FB082203FB9A
:1024400008B1019400960B9B12B209B20498FFF7F1
:1024500045F94EE0039B09FB08331BB205930023AB
:102460000FFA86FA554607F01C021C2A11D11FFAF2
:1024700083FA03FB08B1019400950A9B059A09B2FF
:102480000498FFF72BF93F01FFB20AF104031BB2D6
:10249000C0E707F01802182A11D11FFA83FA03FBCC
:1024A00008B101940095099B059A09B20498FFF7B9
:1024B00015F9FF00FFB20AF103031BB2AAE717F0F8
:1024C000100F11D01FFA83FA03FB08B10194009595
:1024D0002B46059A09B20498FFF700F9BF00FFB236
:1024E0000AF102031BB295E77F00FFB201331BB272
:1024F00090E7069B5B00DBB2069309F101090FFA36
:1025000089F9079B013B9BB20793002B7FF46AAFCD
:1025100013E100BF04570100002301228849096824
:102520000FA8FEF723FD0F98FEF75CFDB3B21FFA6C
:102530008BFB03EB43020BEB4202013A92B2BDF874
:102540000C1001EBC303013B9BB294F82000000484
:1025500040F0004040F02A007A4D6863E86A10F0CD
:10256000F00F18BFD5F838E000F47040B0F5405FC8
:10257000F4D8E07F4BEA004B4BF01040714D68639C
:10258000E86A10F0F00F18BFD5F838E000F470409A
:10259000B0F5405FF4D8E07F42EA004242F01042DA
:1025A00068484263C26A12F0F00F18BF856B02F4EC
:1025B0007042B2F5405FF5D894F82020120442F042
:1025C000004242F02B025F484263C26A12F0F00FF1
:1025D00018BF856B02F47042B2F5405FF5D8E27F18
:1025E00041EA024242F0104256494A63CA6A12F076
:1025F000F00F18BF886B02F47042B2F5405FF5D857
:10260000E27F43EA024343F010434E4A5363D36AE6
:1026100013F0F00F18BF916B03F47043B3F5405FF4
:10262000F5D894F820301B0443F0004343F02C030A
:10263000444A5363D36A13F0F00F18BF916B03F44D
:102640007043B3F5405FF5D808EB8808082303937F
:102650004FF0010C08F105093B4B9944394A002E13
:102660003ED04FF0000B384B08EB030E1EF8010B69
:1026700000EA0C00002814BF504638460021E37FD2
:1026800040EA034343F010435363D36A13F0F00F5F
:1026900018BF956B03F47043B3F5405FF5D8013173
:1026A000CBB29E42EBD8F145E0D10021E37F47EA6F
:1026B000034343F010435363D36A13F0F00F18BF82
:1026C000906B03F47043B3F5405FF5D80131CBB2A2
:1026D0009E42EBD80BF1010B5FFA8BF39E42C2D8FE
:1026E0004FEA4C0C5FFA8CFC039B013B9BB20393BB
:1026F000002BB4D1134A116894F820301B0443F026
:10270000006353631346DA6A12F0805F04D112F05B
:10271000F00FF8D09A6BF6E70A4B4FF08052DA626E
:102720001960DB6A13F0F00F05D0064B9A6BDA6A7A
:1027300012F0F00FFAD1FEF7A3FC11B0BDE8F08F54
:102740000488FF1F00C00240045701002DE9F04F2C
:1027500083B000920193DDF83090002900F0D98118
:102760008E46884B1D68884B1B68884A1188884AAA
:1027700092FBF1F295420ED2834A844C02F1580743
:10278000834E52F8043F34F8021F96FBF1F18D425C
:1027900001D2BA42F5D143F060517E4A1278002A44
:1027A00028D072B67B4A127812F0010F07D07A4C0B
:1027B00025687A4A12682A40794D2A602260754A53
:1027C000127812F0020F07D0764C2568734A5268CF
:1027D0002A40734D6A6022606E4A127812F0040F2C
:1027E00007D0714C25686D4A92682A406C4DAA60EA
:1027F000226062B66D4AD2688A4208D06B4A6C4C3D
:102800001460D16043F0F04313616A4B13600D9B79
:1028100009EB030A0022654B01274FF0805801990C
:10282000009C01EB040B90F82010090441F00041DA
:1028300041F02B015963D96A11F0F00F18BF9C6B5E
:1028400001F47041B1F5405FF5D81FFA89F4C17FFA
:1028500044EA014141F010415963D96A11F0F00F87
:1028600018BF9D6B01F47041B1F5405FF5D8C17F91
:1028700044EA014141F010415963D96A11F0F00F67
:1028800018BF9C6B01F47041B1F5405FF5D8009C16
:10289000019D013C07FA04F111EA0E0F01D001324B
:1028A00096E0002A40F3948090F82010090441F04B
:1028B000004141F02A015963D96A11F0F00F18BFA5
:1028C0009E6B01F47041B1F5405FF5D8C67FA91A3F
:1028D00089B241EA064141F010415963D96A11F0C9
:1028E000F00F18BF9E6B01F47041B1F5405FF5D851
:1028F000C67FA9B241EA064141F010415963D96A45
:1029000011F0F00F18BF9E6B01F47041B1F5405FFC
:10291000F5D890F82010090441F0004141F02C0155
:102920005963D96A11F0F00F18BF9E6B01F4704122
:10293000B1F5405FF5D8013A11D0C67FC18941EAAF
:10294000064141F010415963D96A11F0F00F18BFE8
:102950009E6B01F47041B1F5405FF5D8EBE71E685E
:1029600090F81FC0C18941EA0C4141F0C051596340
:10297000D96A11F0805F1FD111F0F00FF8D0996B78
:10298000F6E700BF0488FF1FAC5C01007C5C01001F
:10299000006CDC02F899FF1F80E100E0E099FF1F66
:1029A000EC99FF1F84E100E088E100E000C00240F4
:1029B00001401F0000001F80C3F82C801E60D96AF0
:1029C00011F0F00F04D0996BD96A11F0F00FFAD121
:1029D0000135002C7FF45DAF002A79DD90F82010DE
:1029E000090441F0004141F02A015963D96A11F00C
:1029F000F00F18BF9C6B01F47041B1F5405FF5D842
:102A0000C47FC2EB0B0189B241EA044141F010419D
:102A10005963D96A11F0F00F18BF9C6B01F4704133
:102A2000B1F5405FF5D8C47F1FFA8BF141EA04414C
:102A300041F010415963D96A11F0F00F18BF9C6B37
:102A400001F47041B1F5405FF5D890F82010090409
:102A500041F0004141F02C015963D96A11F0F00FA7
:102A600018BF9C6B01F47041B1F5405FF5D8013A95
:102A700011D0C47FC18941EA044141F0104159633A
:102A8000D96A11F0F00F18BF9C6B01F47041B1F5D9
:102A9000405FF5D8EBE71C68C57FC18941EA054175
:102AA00041F0C0515963D96A11F0805F04D111F02F
:102AB000F00FF8D0996BF6E7C3F82C801C60D96A48
:102AC00011F0F00F04D0996BD96A11F0F00FFAD120
:102AD00009F10109D1457FF4A6AE0F4B1B78C3B1B4
:102AE00013F0010F03D00D4B1A680D4B1A600A4BFF
:102AF0001B7813F0020F03D0084B5A68094B1A6079
:102B0000054B1B7813F0040F03D0044B9A68064B57
:102B10001A6003B0BDE8F08FF899FF1FEC99FF1F12
:102B200000E100E004E100E008E100E02DE9F04F01
:102B300087B0D0F818A09AF80E308B4209D89AF8CE
:102B40000F20914205D8C91A9AF8123001FB03F1FF
:102B500013E09AF810209142C0F003819AF81140D6
:102B6000A14200F2FE809AF80F400134E31A1944A2
:102B7000891A9AF8123001FB03F104909AF8122096
:102B8000DAF80000FEF7CEF9DAF8083003440393D0
:102B9000032200211846FEF7C5F9002840F0E18025
:102BA0009AF813502A460321DDF80C804046FEF7C0
:102BB000B9F9044603359AF814703A462946404656
:102BC000FEF7B0F906463D449AF815703A46294694
:102BD0004046FEF7A7F97A1E01239340034204D032
:102BE0000123BB40C31A059300E00590DDF814B043
:102BF0003D449AF816703A4629460398FEF792F932
:102C00007A1E0123934003421DBF4FF0010808FACA
:102C100007F8C8EB000880463D449AF817703A461A
:102C200029460398FEF77EF9049BB3F90A30002B7E
:102C300002DA0023049A5381049BB3F90A3013EBA0
:102C40000B0905D5059A9B1A049A53814FF0000988
:102C500004EB09030499B1F90620934214DD0B7DBE
:102C6000002B7ED0BBF1000F02DB00234B8103E081
:102C7000059B5B42049A53819AF8182004998B892A
:102C800013448B814FF000090499B1F90C30B1F96C
:102C900008209A4265DD4A89104448819AF8192033
:102CA00013449B1BC8EB03080596002E59D02F44F4
:102CB0004FF0010A02E0059B002B52D07E1CFB085E
:102CC000039AD25CFB4303F0070342FA03F313F0C9
:102CD000010F1FD10027E51B202D28BF20252A46E4
:102CE00031460398FEF71EF9CDF804A0CDF8008018
:102CF00009EB07032A4601460498FFF727FD2E44F7
:102D00002F44BC42E7D808F10108059B013B05931D
:102D10003746D0E7032231460398FEF703F900F166
:102D2000020B04370026A51B202D28BF20252A468C
:102D300039460398FEF7F6F8CDF804B0CDF80080D8
:102D400009EB06032A4601460498FFF7FFFC2F44CF
:102D50002E44B442E7D8D844059BCBEB030305933C
:102D6000A9E707B0BDE8F08F10B584B004468369C9
:102D70005BB10A2906D11A7E83891344838100231B
:102D8000438136E0FFF7D2FE33E00A2907D1827C87
:102D9000838903EBC20383810023438129E00D294A
:102DA00027D0B0F90C20B0F90A00A37C0293238A43
:102DB0000193E38900930B4601462046FFF742FA50
:102DC000A27C91B201EB4100638903EB40031BB28B
:102DD0006381207D68B1B4F90600A2EB820200EBAA
:102DE0004202934205DDA38903EBC101A1810023C7
:102DF0006381012004B010BD002906DBB0F9063064
:102E0000994203DB591E09B200E000214181002AEA
:102E100006DBB0F908309A4203DB5A1E12B200E01A
:102E200000228281704700BF0182C181704700BFCC
:102E3000024B1B6801221A70704700BFDC99FF1F0C
:102E4000417082704FF00042C26000228280C280D6
:102E5000028101220270704710B5044600F020F88C
:102E60000121607805F028FE0121607805F0F2FD6F
:102E7000A078FF280DD0002105F01EFEA0782228A2
:102E80004FF00202044928BFFF2005F055FE034B16
:102E90001C60012010BD00BF312E0000DC99FF1F17
:102EA000184A136843F480531360174B174A1A608B
:102EB000174ADA6002F180421A61164A1A60164B0C
:102EC0001B7813F0010F07BF4FF41072134B4FF430
:102ED0000072134B1A60104B1B7813F0020F4FF463
:102EE00000720CBF0F4B104B1A600B4B1B7813F08A
:102EF000040F07BF4FF410720C4B4FF400720C4BD1
:102F00001A6070473C80044000C0024001401F002E
:102F10000110003800001F80789BFF1F18B004408C
:102F200008C004401CB004400CC0044014B004406D
:102F300004C004400238152818D8DFE800F019173B
:102F400017170B17170B1917171717151717171729
:102F50000D11130F022070470420704704207047A2
:102F600008207047082070471020704700207047E5
:102F70000120704738B50C46FFF7DCFF60B105460D
:102F80002046FFF7D7FF034640B12B4013F0FF0F59
:102F90000CBF0120002038BD002038BD002038BD06
:102FA0000238152842D8DFE800F0114141411D41A7
:102FB00041170B414141413B41414141232F3529BB
:102FC0004FF400721A4B1A60012070474FF40072E0
:102FD000184B1A60012070474FF40072164B1A60AC
:102FE000022070474FF40072144B1A6002207047A1
:102FF0004FF40072124B1A60042070474FF40072B5
:10300000104B1A60042070474FF400720E4B1A6088
:10301000082070474FF400720C4B1A60082070476C
:103020004FF400720A4B1A6010207047002070475E
:1030300010B0044000C004400CB0044010C0044074
:1030400014C0044008B0044018C0044004B0044058
:1030500000B004404B68436000230381704700BF09
:1030600070B40139002528462E4611F8013FBBB146
:10307000A3F13004E4B2092C08D800EB8000303B07
:1030800003EB400398B2FF28EFD90EE02E2B0ED1B0
:10309000032D0ED06B1C15442871DDB23046E4E7D9
:1030A000032D08D1D071012006E0002004E00020AB
:1030B00002E0002000E0002070BC7047024B034A91
:1030C0001A6000225A607047FC99FF1F546101008A
:1030D0002DE9F04182B00C463E4B1B680093009BEB
:1030E000038100F10C07022200F10801384600F0CC
:1030F000E5FD02AD012325F8023D022229463846AE
:1031000000F0DCFD4FF48073ADF806300222294652
:10311000384600F0D3FD0023ADF8063002222946E0
:10312000384600F0CBFD02222946384600F0C6FDA5
:1031300002222946384600F0C1FD23786BB32646AB
:103140004FF0010801E0144626462378DBB12E2B10
:1031500002D11CE02E2B1AD014F8013F002BF9D11C
:1031600011E08DF8055042460DF10501384600F09A
:10317000A5FD2A463146384600F0A0FD621C2378A2
:10318000002BE0D109E0A51B002DEADC05E0A51B22
:10319000002DD8BF0134D7DDE3E702A9002301F8F1
:1031A000033D0122384600F089FD4FF4807502ACE2
:1031B00024F8025D02222146384600F07FFDADF87A
:1031C000065002222146384600F078FD012002B068
:1031D000BDE8F081809AFF1F2DE9F04F89B081464C
:1031E0000F469246994B1B680293029E00F10C0415
:1031F000964D4FF03208A346204600F09DFD002872
:103200000ADC2B680393039B9B1BBB4200F20C81DF
:10321000404605F035FDEEE7D9F80420D9F8203016
:103220009A4240F00481B9F82430352B40F00281F5
:10323000204600F0C9FC0B2840F3FF800C2205A9B2
:10324000204600F061FDBDF81620130A43EA022370
:103250001BB29AB2ADF81220B9F80800BDF81410EC
:10326000884201D1002B05DB584600F0BBFC4FF62D
:10327000FC70E8E040F20F231A4205D0204600F02F
:10328000B1FC4FF6FB70DEE0BDF81A40230A43EABA
:103290000424A4B254B1BDF8182013029BB253EA1F
:1032A000122300F0CD800025012605E0584600F0ED
:1032B00099FC4FF6FA70C6E032460DF10601584609
:1032C00000F022FD9DF806307BB1013B8DF8063001
:1032D000584600F0FFFC9DF80620531EDBB28DF827
:1032E0000630002AF4D1002BE6D1584600F0F2FC5B
:1032F000584600F0EFFC584600F0ECFC584600F051
:10330000E9FC0135ADB2BDF8182013029BB243EAC7
:1033100012239D42D0DB93E032460DF10301584663
:1033200000F0F2FC9DF8033013F0C00F0FD1BBB1D9
:10333000013B8DF80330584600F0CCFC9DF803208B
:10334000531EDBB28DF80330002AF4D106E0584654
:1033500000F0C0FC00238DF8033001E0002BDBD12E
:10336000022201A9584600F0CFFC02220DF106010D
:10337000584600F0C9FC584600F0ACFC584600F036
:10338000A9FC584600F0A6FC584600F0A3FC022217
:103390000DF11201584600F0B7FCBDF804201302ED
:1033A0009BB243EA1223012B08D0BDF8122013026E
:1033B0009BB253EA12232CD000271DE0BDF8062053
:1033C00013029BB243EA1223012BEED1BDF8122067
:1033D00013029BB243EA1223042B05D0584600F097
:1033E00001FC4FF6F7702EE004220AEB020158466A
:1033F00000F08AFC012026E0584600F06BFC013703
:10340000BFB2BDF8122013029BB243EA12239F42BF
:10341000F2DB0135ADB2AC427FF47EAF584600F02E
:10342000E1FB4FF6F6700EE04FF6FF700BE04FF643
:10343000FE7008E04FF6FE7005E04FF6FD7002E00A
:103440000025012668E709B0BDE8F08F809AFF1FCC
:103450002DE9F04184B005460F469046FFF700FE87
:10346000002837D104466A68294B5B689A4233D0FA
:1034700005F10C06274B1B680193019901F00F0120
:1034800001F58061304600F0BBFB01283CD1224BA6
:1034900002936B680393352202A9304600F000FCCA
:1034A000044698B139462846FFF712FE68B1304607
:1034B00000F0FEFB044690B908E0424641F2883134
:1034C0002846FFF789FE044600E00024304600F05D
:1034D0008BFB19E0012417E06FF0010414E0424671
:1034E00041F288312846FFF777FE0446B0F1FF3FEE
:1034F000ECD1424641F288312846FFF76DFE044682
:10350000B0F1FF3FD9D0E1E7204604B0BDE8F0813B
:10351000FC99FF1F809AFF1F54610100F8B5074610
:103520000E4614461D4603F05FFB394B1B78002BFB
:1035300028D072B6364B1B7813F0010F07D0354AEE
:103540001168354B1B680B4034490B601360304BDE
:103550001B7813F0020F07D0314A11682E4B5B68BD
:103560000B402E494B601360294B1B7813F0040F5E
:1035700007D02C4A1168284B9B680B4027498B6069
:10358000136062B6284BDB68B3F1605F0AD0264B4C
:10359000264A1A604FF06052DA604FF0F0421A612A
:1035A000234A1A6006223946092002F09FF90422B4
:1035B000B1180F2002F09AF90422A918012002F094
:1035C00095F9042206991144052002F08FF9104B59
:1035D0001B78C3B113F0010F03D0104B1A68154BC1
:1035E0001A600B4B1B7813F0020F03D00B4B5A6879
:1035F000114B1A60064B1B7813F0040F03D0074BD6
:103600009A680E4B1A6062680D4B5A60F8BD00BF95
:10361000F899FF1F80E100E0E099FF1FEC99FF1F80
:1036200084E100E088E100E000C0024001401F00AA
:1036300000001F8000E100E004E100E008E100E09C
:10364000049AFF1F10B58AB00E4C0294496803918A
:1036500004945268059206945B6807930894FF23CC
:103660008DF824308DF825308DF8263000238DF824
:10367000273008AB009306AB04AA02A9FFF74EFF60
:103680000AB010BD5461010000B589B049680191CC
:10369000094B029303910493526805920693012308
:1036A0008DF80730019B079306AB04AA02A9FFF728
:1036B000C9FF09B05DF804FB5461010000B587B093
:1036C0004A680192074B02930392049301238DF8F9
:1036D0000730019B059304AA02A9FFF7D5FF07B0A5
:1036E0005DF804FB5461010010B50446314B0360E2
:1036F00000234360304B1B78002B28D072B62E4B32
:103700001B7813F0010F07D02C4A11682C4B1B6853
:103710000B402C490B601360274B1B7813F0020FF2
:1037200007D0294A1168264B5B680B4025494B603E
:103730001360214B1B7813F0040F07D0234A116844
:103740001F4B9B680B401F498B60136062B6204B78
:10375000DB68B3F1605F0AD01D4B1E4A1A604FF060
:103760006052DA604FF0F0421A611B4A1A6004227C
:10377000A1180F2002F0E4FB0F4B1B78C3B113F02C
:10378000010F03D00F4B1A68144B1A600A4B1B78B9
:1037900013F0020F03D00B4B5A68114B1A60064B03
:1037A0001B7813F0040F03D0064B9A680D4B1A6078
:1037B000204610BD54610100F899FF1F80E100E030
:1037C000E099FF1FEC99FF1F84E100E088E100E031
:1037D00000C0024001401F0000001F8000E100E027
:1037E00004E100E008E100E0024B034A1A60002215
:1037F0005A607047049AFF1F54610100407B032800
:103800008CBF00200120704781F00100704700BF8D
:103810000846704708B503689B6B984780F0010025
:10382000C0B208BD10B582B002AB03F8011D02683A
:10383000546801221946A04702B010BD704700BF6E
:10384000407B4B7B834204D103288CBF00200120A6
:1038500070470020704700BF437B032B19D810B579
:103860000446184600F0DAFE182804D80A4BC34074
:1038700013F0010F09D11C2809D123689B68204649
:103880009847003018BF012010BD002010BD012056
:1038900010BD0020704700BF0100100170B592B04C
:1038A00004460D4616461E4A0392002304938DF8E3
:1038B0001C304FF47A7108918DF824301949069123
:1038C0000A920B9304218DF8341001920293407BED
:1038D000032807D800F0A2FE10B1607B01F0E0F8E9
:1038E000042363730E4B0E930F4B5B680F930EA96B
:1038F00003A8FFF7AFFB01AA294603A8FFF7A8FD1D
:10390000034650B123689B69054A1092029A1192AE
:10391000324610A9204698470346184612B070BD9B
:10392000546101006C5D0100049AFF1F70B50446EC
:103930000D461646407B032807D800F06FFE10B1F5
:10394000607B01F0ADF8042363736B68013B13F1F6
:10395000030F17D80021012000F01CFB607303281F
:1039600012D83246291D01F007F80125607B00F0CE
:1039700055FE17280AD01C280AD058B1284605F051
:103980007FF9F3E7002070BD002070BD012070BDFD
:10399000012070BD002070BD38B5437B032B09D8D2
:1039A0001446054692B2184601F008FB20B90123DF
:1039B0002B7138BD002038BD204638BD407B032820
:1039C00003D808B501F0ECF908BD0020704700BF2E
:1039D000407B032804D808B512B201F0D7F808BD1F
:1039E0000020704700B583B001220DF10701407B34
:1039F00001F0CCF80028CCBF9DF807004FF0FF3055
:103A000003B05DF804FB00BF437B032B09D810B55E
:103A1000044603689B68984730B1607B01F03EFA2A
:103A200010BD4FF0FF3070474FF0FF3010BD00BFAA
:103A3000437B032B1ED8F0B583B00446184601F033
:103A40002FF80D4B1B680093009F01260A4D607BE9
:103A500000F0E4FD60B1304605F012F92B680193E7
:103A6000019BDB1BB3F57A7FF1D3607B00F05CFE3A
:103A700003B0F0BD704700BF809AFF1F10B582B041
:103A800002AB03F8011D0268546801221946A047E1
:103A900002B010BD10B50446C188012000F07AFACA
:103AA0002072032806D800F0B5FEE188227A024B86
:103AB00023F8121010BD00BF0C9AFF1F10B504466A
:103AC000007A03280CD800F0A9FD14280CD01C287B
:103AD00006D1207A01F064F910B9207A00F0E0FFF5
:103AE00023689B682046984710BD00BF2DE9F0472A
:103AF00006468A469046FFF7E1FF0D4D00241FFA67
:103B000088F9E7B235F8023BF2889A4209D1384683
:103B100000F084FD172804D14A465146384601F08A
:103B20004DFA0134042CECD14046BDE8F08700BFCB
:103B30000C9AFF1F2DE9F04106460F460846FFF795
:103B4000BDFF174D00245FFA84F835F8023BFA8870
:103B50009A4215D1404600F061FD172801D01C287B
:103B60000ED1404601F01CF950B1002333714FF4DF
:103B70007A72B26033730B4B336086F80D800CE0C1
:103B80000134042CDFD1002333714FF47A72B26018
:103B90003373044B3360042373733046BDE8F08104
:103BA0000C9AFF1F105D010008B503681B6B984756
:103BB00008BD00BF024A02604A694260704700BF08
:103BC00054610100008B7047C08B704710B582B004
:103BD00002AB03F8011D0268546801221946A04790
:103BE00002B010BD704700BF037F032B07D810B58C
:103BF0000446184600F098FD0423237710BD704753
:103C000038B504460D46007F032801D800F08CFD2E
:103C10002946022000F0BEF92077032804D8E58168
:103C20000023E383012038BD002038BD70B592B079
:103C300005460C461646174A0392002304938DF856
:103C40001C304FF47A7108918DF824301249069196
:103C50000A920B9304218DF83410019202930E9274
:103C60000E4B5B680F930EA903A8FFF7F3F901AAA7
:103C7000214603A8FFF7ECFB012809D12B681B6A3A
:103C8000044A1092029A1192324610A92846984787
:103C900012B070BD546101006C5D0100049AFF1FF9
:103CA00008B5002343830431007F01F0DBFB08BD2E
:103CB00008B5007F01F078FC08BD00BF10B50446D0
:103CC00093B20A46418B007F01F046FB638B0344AD
:103CD000638310BDC38B83B110B582B0044601224B
:103CE0000DF10701007F00F051FF002808DDE38B94
:103CF000013BE3839DF8070004E04FF0FF3070477D
:103D00004FF0FF3002B010BDC38B73B110B5044645
:103D1000934294BF1AB212B2007F00F037FF00281E
:103D200006DDE38B1B1AE38310BD4FF0FF307047B5
:103D30004FF0FF3010BD00BF10B582B00446C38BFA
:103D400033B12368DB6820469847E38B002BF8D11A
:103D5000207F01F025F810B308226946207F00F08B
:103D600015FF00281CDD9DF8003023759DF80130FB
:103D700063759DF80230A3759DF80330E3759DF8D7
:103D800004209DF8053003EB022323839DF80600F1
:103D90009DF8073003EB002080B2E08300E00020B4
:103DA00002B010BD08B5037F032B05D8C28B32B11A
:103DB000184601F073F808BD4FF0FF3008BD4FF012
:103DC000FF3008BD70B582B004460E461546007F30
:103DD000032801D800F0A8FC094B009373680193F5
:103DE0002A466946822000F085FA2077032804D805
:103DF000E5810023E383012000E0002002B070BDD4
:103E0000546101002DE9F04383B007460C4690460B
:103E10001E460502274B188824302844022201A997
:103E200080B202F08DF89DF804109DF8053043EA49
:103E3000012121448CB2204BB3F8009004EA090917
:103E40001E4B33F81700484480B21D4B1B78372BAC
:103E500005D01C4B1B8809EB06029A4204DC324653
:103E6000414601F043FD11E0C9EB03091FFA89F94E
:103E70004A46414601F03AFDC9EB060292B208EB10
:103E800009010E4B33F8170001F030FD3444A4B2A1
:103E900023128DF804308DF80540064B1888243025
:103EA0002844022201A980B201F020FD03B0BDE840
:103EB000F08300BF409AFF1F4C9AFF1F449AFF1FD8
:103EC0003E9AFF1F3C9AFF1F2DE9F04182B08046C9
:103ED0000502154B188820302844022201A980B21F
:103EE00002F02EF89DF804409DF8053043EA0424C2
:103EF0000D4F022600E00446388820302844324620
:103F000001A980B202F01CF89DF804009DF805306C
:103F100043EA00208442EED1044B03EBC808A8F822
:103F2000040002B0BDE8F081409AFF1F1C9AFF1FF9
:103F30002DE9F04182B080460502144B18882630E6
:103F40002844022201A980B201F0FAFF9DF8044042
:103F50009DF8053043EA04240C4F022600E0044695
:103F6000388826302844324601A980B201F0E8FFA3
:103F70009DF804009DF8053043EA00208442EED10C
:103F8000034B23F8380002B0BDE8F081409AFF1FD0
:103F90001C9AFF1F2DE9F04F85B083468A460B46D9
:103FA00002468149814805F0F5FD814B1B78002BC5
:103FB00028D072B67E4B1B7813F0010F07D07D4AD4
:103FC00011687D4B1B680B407C490B601360784B7C
:103FD0001B7813F0020F07D0794A1168764B5B68A3
:103FE0000B4076494B601360714B1B7813F0040F44
:103FF00007D0744A1168704B9B680B406F498B6007
:10400000136062B6704BDB68B3F1605F0AD06E4B31
:104010006E4A1A604FF06052DA604FF0F0421A6157
:104020006B4A1A6003AF3E460025DFF8CC914FF093
:104030000108ECB2B9F80000033000EB052042465D
:1040400002A980B201F07CFF9DF8083006F8013B20
:10405000002B69D00135042DEBD15E49534805F0A2
:1040600099FD9DF80C501D2D07D84FF03453EB40AF
:1040700013F0010F4DD1012400E001244FF0345220
:1040800017F8013F1D2B04D822FA03F313F0010F98
:1040900042D10134E4B2042CF2D14F49434805F037
:1040A00079FD1C2D37D09DF80D301C2B0AD09DF8C2
:1040B0000E301C2B08D09DF80F301C2B08BF03249A
:1040C0002AD003E0012427E0022425E0384B1B78A6
:1040D000C3B113F0010F03D0384B1A683F4B1A607D
:1040E000334B1B7813F0020F03D0344B5A683C4B10
:1040F0001A602F4B1B7813F0040F03D02F4B9A68D4
:10410000384B1A6004223849284805F043FD042042
:10411000D8E0002400E000243449244805F03AFDAA
:104120001021204602F070FFA046224630491F4869
:1041300005F030FD00222F4B23F814204FF47A6352
:10414000013BFDD126022C4D2888304404A901F8FA
:1041500009BD012280B201F0C9FB28880230304439
:1041600004A9FF2301F80A3D012280B201F0BEFB41
:10417000BAF1000F0ED04FEA2A238DF808308DF8DF
:1041800009A0288804303044022202A980B201F03C
:10419000ADFB49E0194B1B8801339BB2B3F5404F8F
:1041A0002ED3164A13802FE0EC5D0100849BFF1F85
:1041B000F899FF1F80E100E0E099FF1FEC99FF1FD5
:1041C00084E100E088E100E000C0024001401F00FF
:1041D00000001F80185E01002C5E010000E100E07D
:1041E00004E100E008E100E0405E0100585E0100EB
:1041F0006C5E01000C9AFF1F409AFF1F0888FF1F8A
:104200004FF44042314B1A80304B1B881A128DF804
:1042100008208DF809302E4B1888043030440222D3
:1042200002A980B201F062FB0121204602F0ECFEFF
:10423000284D002725F83870DFF89490B9F8000071
:1042400028303044022202A980B201F079FE9DF8A4
:1042500008209DF8093043EA022305EBC8056B806E
:10426000AF71AF80B9F800003044012202A980B2DA
:1042700001F066FE6B889DF808201749174805F085
:1042800089FC174B1B78D3B113F0010F03D0154BEA
:104290001A68154B1A60124B1B7813F0020F03D0EB
:1042A000104B5A68114B1A600D4B1B7813F0040F1A
:1042B00007D00C4B9A680E4B1A60204602E020464D
:1042C00000E0204605B0BDE8F08F00BF0888FF1F62
:1042D000409AFF1F1C9AFF1F7C5E0100849BFF1FFA
:1042E000F899FF1FEC99FF1F00E100E004E100E0F6
:1042F00008E100E02DE9F04F89B00190894692462F
:10430000B04B1B78002B28D072B6AE4B1B7813F045
:10431000010F07D0AC4A1168AC4B1B680B40AC498D
:104320000B601360A74B1B7813F0020F07D0A94A4C
:104330001168A64B5B680B40A5494B601360A14B0D
:104340001B7813F0040F07D0A34A11689F4B9B689A
:104350000B409F498B60136062B6A04BDB68B3F1E2
:10436000605F0AD09D4B9E4A1A604FF06052DA603F
:104370004FF0F0421A619B4A1A6007AF3E46002494
:10438000DFF874824FF0010B04E09DF81C201D2A19
:104390001DD814E0E5B2B8F80000033000EB0420AB
:1043A0005A4604A980B201F0CBFD9DF8103006F802
:1043B000013B002B41D00134042CEBD1E5E74FF059
:1043C0003453D34013F0010F32D1012500E0012511
:1043D0004FF0345217F8013F1D2B04D822FA03F393
:1043E00013F0010F25D10135EDB2042DF2D1754B3B
:1043F0001B78002B00F0088113F0010F03D0744BE1
:104400001A68794B1A606F4B1B7813F0020F03D0B8
:104410006F4B5A68754B1A606A4B1B7813F0040F88
:1044200000F0F4806A4B9A68714B1A600420F2E045
:1044300000251021284602F0E7FD2F4600226D4B93
:1044400023F815204FF47A63013BFDD12C026A4E0C
:104450003088204408A99DF8043001F8113D01225C
:1044600080B201F043FA30880230204408A9FF23CB
:1044700001F8123D012280B201F038FABAF1000FC2
:104480000ED04FEA2A238DF810308DF811A0308815
:1044900004302044022204A980B201F027FA1DE072
:1044A000564B1B8801339BB2B3F5404F02D3534A9E
:1044B000138003E04FF44042504B1A804F4B1B884F
:1044C0001A128DF810208DF811304B4B18880430DB
:1044D0002044022204A980B201F008FA484B18686F
:1044E000059099F8053003F07F038DF8173099F89F
:1044F00006308DF8183099F807308DF81930DFF84C
:10450000F8B0BBF800000C302044042209EB020193
:1045100080B201F0EBF94FEA2A238DF810308DF8C4
:1045200011A0BBF8000010302044022204A980B280
:1045300001F0DCF9BBF8000006302044062205A992
:1045400080B201F0D3F90121284602F05DFD2D4E25
:104550004FF0000826F83780BBF8000028302044D0
:10456000022204A980B201F0EBFC9DF810209DF816
:10457000113043EA022206EBC7035A8083F8068013
:10458000A3F804800F4B1B78002B41D013F0010FD0
:1045900003D00F4B1A68144B1A600A4B1B7813F0A8
:1045A000020F03D00A4B5A68104B1A60054B1B7858
:1045B00013F0040F2ED0064B9A680D4B1A60284654
:1045C00029E000BFF899FF1F80E100E0E099FF1F9C
:1045D000EC99FF1F84E100E088E100E000C00240A8
:1045E00001401F0000001F8000E100E004E100E046
:1045F00008E100E00C9AFF1F409AFF1F0888FF1F88
:10460000B05D01001C9AFF1F042004E0042002E0BA
:10461000284600E0284609B0BDE8F08F00B583B019
:10462000344B1B78002B28D072B6324B1B7813F01A
:10463000010F07D0304A1168304B1B680B403049DE
:104640000B6013602B4B1B7813F0020F07D02D4A21
:1046500011682A4B5B680B4029494B601360254B5E
:104660001B7813F0040F07D0274A1168234B9B686F
:104670000B4023498B60136062B6244BDB68B3F1B7
:10468000605F0AD0214B224A1A604FF06052DA6014
:104690004FF0F0421A611F4A1A601F4B1B88033308
:1046A00003EB002001220DF1070180B201F048FC6C
:1046B0009DF807000F4B1B78C3B113F0010F03D017
:1046C0000F4B1A68154B1A600A4B1B7813F0020F38
:1046D00003D00B4B5A68124B1A60064B1B7813F031
:1046E000040F03D0064B9A680E4B1A6003B05DF8B6
:1046F00004FB00BFF899FF1F80E100E0E099FF1F75
:10470000EC99FF1F84E100E088E100E000C0024076
:1047100001401F0000001F80409AFF1F00E100E0E1
:1047200004E100E008E100E008B52E4B1B78002B07
:1047300028D072B62B4B1B7813F0010F07D02A4AF2
:1047400011682A4B1B680B4029490B601360254BED
:104750001B7813F0020F07D0264A1168234B5B68C1
:104760000B4023494B6013601E4B1B7813F0040F62
:1047700007D0214A11681D4B9B680B401C498B6078
:10478000136062B61D4BDB68B3F1605F0AD01B4B50
:104790001B4A1A604FF06052DA604FF0F0421A6123
:1047A000184A1A60102102F02FFC0E4B1B78C3B17F
:1047B00013F0010F03D00E4B1A68134B1A60094B0C
:1047C0001B7813F0020F03D0094B5A680F4B1A6085
:1047D000044B1B7813F0040F03D0054B9A680C4B65
:1047E0001A6008BDF899FF1F80E100E0E099FF1F03
:1047F000EC99FF1F84E100E088E100E000C0024086
:1048000001401F0000001F8000E100E004E100E023
:1048100008E100E010B582B004464A4B1B78002B3B
:1048200028D072B6474B1B7813F0010F07D0464AC9
:104830001168464B1B680B4045490B601360414BA8
:104840001B7813F0020F07D0424A11683F4B5B6898
:104850000B403F494B6013603A4B1B7813F0040F39
:1048600007D03D4A1168394B9B680B4038498B6033
:10487000136062B6394BDB68B3F1605F0AD0374B27
:10488000374A1A604FF06052DA604FF0F0421A6116
:10489000344A1A60344B1888033000EB042001229C
:1048A0000DF1070180B201F04BFB9DF80730132B8F
:1048B00021D0244B1878002842D010F0010F03D0EB
:1048C000234B1A68294B1A601E4B1B7813F0020FFA
:1048D00003D01F4B5A68264B1A601A4B1B7803F003
:1048E000040303F0FF00002B2AD0194B9A68214BD8
:1048F0001A60002024E00221204602F085FB114BC3
:104900001B78D3B113F0010F03D0114B1A68174B6A
:104910001A600C4B1B7813F0020F03D00C4B5A6833
:10492000134B1A60074B1B7813F0040F07D0084B8A
:104930009A68104B1A60012002E0012000E001207B
:1049400002B010BDF899FF1F80E100E0E099FF1F61
:10495000EC99FF1F84E100E088E100E000C0024024
:1049600001401F0000001F80409AFF1F00E100E08F
:1049700004E100E008E100E0F0B583B0044615462C
:104980003A4B1B78002B28D072B6384B1B7813F0AB
:10499000010F07D0364A1068364B1B680340364873
:1049A00003601360314B1B7813F0020F07D0334ABA
:1049B0001068304B5B6803402F48436013602B4BFB
:1049C0001B7813F0040F07D02D4A1068294B9B6801
:1049D000034029488360136062B62A4BDB68B3F159
:1049E000605F0AD0274B284A1A604FF06052DA60A5
:1049F0004FF0F0421A61254A1A602602244F388887
:104A00000C303044042280B200F070FF2B128DF87D
:104A100004308DF80550388810303044022201A946
:104A200080B200F063FF0421204602F0EDFA0F4B44
:104A30001B78C3B113F0010F03D00F4B1A68154B4D
:104A40001A600A4B1B7813F0020F03D00A4B5A6806
:104A5000114B1A60054B1B7813F0040F03D0064B63
:104A60009A680E4B1A6003B0F0BD00BFF899FF1FA3
:104A700080E100E0E099FF1FEC99FF1F84E100E076
:104A800088E100E000C0024001401F0000001F80DC
:104A9000409AFF1F00E100E004E100E008E100E0CF
:104AA00008B52E4B1B78002B28D072B62B4B1B78E9
:104AB00013F0010F07D02A4A11682A4B1B680B40DC
:104AC00029490B601360254B1B7813F0020F07D0A8
:104AD000264A1168234B5B680B4023494B601360E7
:104AE0001E4B1B7813F0040F07D0214A11681D4B91
:104AF0009B680B401C498B60136062B61D4BDB68E2
:104B0000B3F1605F0AD01B4B1B4A1A604FF0605232
:104B1000DA604FF0F0421A61184A1A60082102F078
:104B200073FA0E4B1B78C3B113F0010F03D00E4B79
:104B30001A68134B1A60094B1B7813F0020F03D04D
:104B4000094B5A680F4B1A60044B1B7813F0040F83
:104B500003D0054B9A680C4B1A6008BDF899FF1FEB
:104B600080E100E0E099FF1FEC99FF1F84E100E085
:104B700088E100E000C0024001401F0000001F80EB
:104B800000E100E004E100E008E100E02DE9F0438D
:104B900083B00446894616466F4B33F830106F4B8E
:104BA0001B78002B28D072B66C4B1B7813F0010FCA
:104BB00007D06B4A10686B4B1B6803406A48036060
:104BC0001360664B1B7813F0020F07D0674A10681A
:104BD000644B5B6803406448436013605F4B1B7821
:104BE00013F0040F07D0624A10685E4B9B680340C5
:104BF0005D488360136062B65E4BDB68B3F1605F53
:104C00000AD05C4B5C4A1A604FF06052DA604FF099
:104C1000F0421A61594A1A600D46B14203DA204641
:104C2000FFF786F90546ADB9554B1888033000EB00
:104C30000420012201A980B201F082F99DF804301C
:104C4000142B69D0002B67D0B3F11C0518BF4FF0AF
:104C5000FF3561E0B542A8BF35463F4B03EBC403C7
:104C60005E88AFB2474BB3F8008006EA0808464BAF
:104C700033F81400404480B2444B1B78372B05D0E6
:104C8000434B1B8818FA85F29A4204DC3A4649469F
:104C900001F056F911E0C8EB03081FFA88F8424604
:104CA000494601F04DF9C8EB070292B209EB080141
:104CB000354B33F8140001F043F9F3199BB2264940
:104CC00001EBC400438031F83420D21B92B221F8AA
:104CD00034208179394489B2F92900D8C2B91E4AF1
:104CE00002EBC402002191711A128DF804208DF894
:104CF0000530234B1888283000EB0420022201A93C
:104D000080B200F0F3FD4021204602F07DF903E07F
:104D1000114B03EBC404A171104B1B78C3B113F00A
:104D2000010F03D0104B1A681A4B1A600B4B1B78FB
:104D300013F0020F03D00C4B5A68174B1A60074B45
:104D40001B7813F0040F03D0074B9A68134B1A60BB
:104D5000284603B0BDE8F0831C9AFF1FF899FF1F97
:104D600080E100E0E099FF1FEC99FF1F84E100E083
:104D700088E100E000C0024001401F0000001F80E9
:104D8000409AFF1F4C9AFF1F509AFF1F3E9AFF1F29
:104D90003C9AFF1F00E100E004E100E008E100E0D0
:104DA00008B50346304A32F8300000285BD12F4A5C
:104DB0001278002A28D072B62C4A127812F0010F0D
:104DC00007D02B4908682B4A126802402A48026023
:104DD0000A60264A127812F0020F07D027490868A5
:104DE000244A52680240244842600A601F4A1278EE
:104DF00012F0040F07D0224908681E4A9268024048
:104E00001D4882600A6062B61E4AD268B2F1605FD5
:104E10000AD01C4A1C4911604FF06051D1604FF01C
:104E2000F0411161194911601846FFF781F80F4BE5
:104E30001B78C3B113F0010F03D00F4B1A68144B4A
:104E40001A600A4B1B7813F0020F03D00A4B5A6802
:104E5000104B1A60054B1B7813F0040F03D0064B60
:104E60009A680D4B1A6008BD1C9AFF1FF899FF1F26
:104E700080E100E0E099FF1FEC99FF1F84E100E072
:104E800088E100E000C0024001401F0000001F80D8
:104E900000E100E004E100E008E100E000B583B0DB
:104EA000374B1B78002B28D072B6354B1B7813F08C
:104EB000010F07D0334A1168334B1B680B4033494D
:104EC0000B6013602E4B1B7813F0020F07D0304A93
:104ED00011682D4B5B680B402C494B601360284BCD
:104EE0001B7813F0040F07D02A4A1168264B9B68E1
:104EF0000B4026498B60136062B6274BDB68B3F129
:104F0000605F0AD0244B254A1A604FF06052DA6085
:104F10004FF0F0421A61224A1A60224B03EBC003A1
:104F20005A88214B1B881A40204B33F81030D01878
:104F300001220DF1070180B201F002F8104B1B783D
:104F4000C3B113F0010F03D0104B1A68184B1A604D
:104F50000B4B1B7813F0020F03D00C4B5A68154B08
:104F60001A60074B1B7813F0040F03D0074B9A68A5
:104F7000114B1A609DF8070003B05DF804FB00BFF9
:104F8000F899FF1F80E100E0E099FF1FEC99FF1FF7
:104F900084E100E088E100E000C0024001401F0021
:104FA00000001F801C9AFF1F4C9AFF1F509AFF1F82
:104FB00000E100E004E100E008E100E02DE9F04F4D
:104FC00085B006460191844B1D88954228BF154641
:104FD0004FEA0028814CDFF834B2DFF82CA2DFF86A
:104FE0002492237843B372B6237813F0010F08D0CC
:104FF000D9F800207A4B1B6813407A4A1360C9F82D
:105000000030237813F0020F08D0DAF80020744B38
:105010005B681340734A5360CAF80030237813F07A
:10502000040F08D0DBF800206D4B9B6813406D4ADD
:105030009360CBF8003062B66B4BDB68B3F1605F16
:105040000AD0694B694A1A604FF06052DA604FF03B
:10505000F0421A61664A1A603046FEF735FF07468D
:10506000644B18880330404401220DF10F0180B2D7
:1050700000F066FF9DF80F302278B2B112F0010FF8
:1050800003D0584A11685C4A1160227812F0020F6E
:1050900003D0544A526859490A60227812F0040F2A
:1050A00003D0504A926856490A60172B01D01C2B36
:1050B00004D104F0E5FEAF4293D300E00025474B56
:1050C0001B78002B28D072B6444B1B7813F0010FCD
:1050D00007D04C4A1168424B1B680B4041490B609A
:1050E00013603E4B1B7813F0020F07D0464A11683D
:1050F0003B4B5B680B403B494B601360374B1B7865
:1051000013F0040F07D0414A1168354B9B680B40E0
:1051100034498B60136062B6334BDB68B3F1605F78
:105120000AD0314B314A1A604FF06052DA604FF0CA
:10513000F0421A612E4A1A602B46019A002130462D
:10514000FEF760FE2021304601F05EFF294C2C4E18
:10515000DFF8A8B0DFF8B4A0DFF8AC90294F2088C2
:105160000230404401220DF10F0180B200F0E8FE50
:105170009DF80F3013F0100F40F0A6802088033008
:10518000404401220DF10F0180B200F0D9FE9DF8DC
:105190000F30002B3CD1114B1B78002B00F0BE8050
:1051A00013F0010F03D00F4B1A68134B1A600B4B0F
:1051B0001B7813F0020F03D00A4B5A680F4B1A608A
:1051C000064B1B7813F0040F00F0AA80054B9A6879
:1051D0000B4B1A600020A8E03C9AFF1FF899FF1FB4
:1051E000E099FF1FEC99FF1F00C0024001401F0023
:1051F00000001F80409AFF1F00E100E004E100E092
:1052000008E100E080E100E084E100E088E100E006
:10521000474B1B78BBB113F0010F03D0454B1A6805
:10522000454B1A60424B1B7813F0020F03D0414BE1
:105230005B68CBF800303E4B1B7813F0040F02D0B4
:105240003C4B9B68336004F01BFE394B1B784BB31F
:1052500072B6374B1B7813F0010F06D03A68374B04
:105260001B681340334A13603B60314B1B7813F0CB
:10527000020F08D0D9F80020304B5B6813402D4A4C
:105280005360C9F800302A4B1B7813F0040F08D084
:10529000DAF80020294B9B681340264A9360CAF82D
:1052A000003062B6264BDB68B3F1605F3FF457AF66
:1052B000234B244A1A604FF06052DA604FF0F042FC
:1052C0001A61214A1A604AE7204B1888023040448C
:1052D00004A9102301F8013D012280B200F006FB71
:1052E000134B1B78F3B113F0010F03D0114B1A6865
:1052F000114B1A600E4B1B7813F0020F03D00D4BAD
:105300005A68134B1A600A4B1B7813F0040F0BD02A
:10531000084B9A680F4B1A60284606E0002004E00C
:10532000002002E0284600E0284605B0BDE8F08FE6
:10533000F899FF1FEC99FF1F00E100E0E099FF1FC3
:1053400000C0024001401F0000001F80409AFF1F64
:1053500004E100E008E100E0F8B505460E46174616
:105360001C46344B1B78002B28D072B6314B1B786F
:1053700013F0010F07D0304A1168304B1B680B4007
:105380002F490B6013602B4B1B7813F0020F07D0D3
:105390002C4A1168294B5B680B4029494B6013600C
:1053A000244B1B7813F0040F07D0274A1168234BB6
:1053B0009B680B4022498B60136062B6234BDB680D
:1053C000B3F1605F0AD0214B214A1A604FF060525E
:1053D000DA604FF0F0421A611E4A1A602846FEF762
:1053E00073FDA04228BF204684B223463A46314688
:1053F0002846FEF707FD0F4B1B78C3B113F0010FD2
:1054000003D00F4B1A68144B1A600A4B1B7813F029
:10541000020F03D00A4B5A68104B1A60054B1B78D9
:1054200013F0040F03D0064B9A680D4B1A60204608
:10543000F8BD00BFF899FF1F80E100E0E099FF1F71
:10544000EC99FF1F84E100E088E100E000C0024029
:1054500001401F0000001F8000E100E004E100E0C7
:1054600008E100E00B7833B94B7823B98B7813B996
:10547000CB78002B75D0002A75D070B582B03D4B2B
:105480001B78002B28D072B63A4B1B7813F0010F13
:1054900007D0394C2568394B1B682B40384D2B60A1
:1054A0002360344B1B7813F0020F07D0354C25686E
:1054B000324B5B682B40324D6B6023602D4B1B7869
:1054C00013F0040F07D0304C25682C4B9B682B4001
:1054D0002B4DAB60236062B62C4BDB68B3F1605F91
:1054E0000AD02A4B2A4C1C604FF06054DC604FF00D
:1054F000F0441C61274C1C6014460502264E30887F
:105500000C302844042280B200F0F0F923128DF808
:1055100004308DF80540308810302844022201A95B
:1055200080B200F0E3F9134B1B78F3B113F0010FD5
:1055300003D0134B1A68194B1A600E4B1B7813F0EB
:10554000020F03D00E4B5A68154B1A60094B1B789B
:1055500013F0040F0BD00A4B9A68124B1A6001200B
:1055600006E00020704700207047012000E0012085
:1055700002B070BDF899FF1F80E100E0E099FF1FC5
:10558000EC99FF1F84E100E088E100E000C00240E8
:1055900001401F0000001F80409AFF1F00E100E053
:1055A00004E100E008E100E02DE9F04782B00446A4
:1055B000924B1B78002B28D072B6904B1B7813F0BF
:1055C000010F07D08E4A11688E4B1B680B408E4925
:1055D0000B601360894B1B7813F0020F07D08B4AC6
:1055E0001168884B5B680B4087494B601360834BA5
:1055F0001B7813F0040F07D0854A1168814B9B6814
:105600000B4081498B60136062B6824BDB68B3F15B
:10561000605F0AD07F4B804A1A604FF06052DA60B8
:105620004FF0F0421A617D4A1A602021204601F0B5
:10563000EBFC24027A4D7B4EDFF8F0A1DFF8D0912D
:10564000DFF8C8816E4F28880230204401220DF116
:10565000070180B200F074FC9DF8073013F0100FC2
:1056600040F0978028880230204401220DF1070184
:1056700080B200F065FC9DF8073013F0080F2CD0C5
:10568000674B18880230204402A9182301F8023D14
:10569000012280B200F02AF9584B1B78002B00F051
:1056A000A28013F0010F03D0574B1A685E4B1A60AB
:1056B000524B1B7813F0020F03D0534B5A685B4BCD
:1056C0001A604E4B1B7813F0040F00F08E804E4B87
:1056D0009A68544B1A6000208CE0484B1B78BBB191
:1056E00013F0010F03D0484B1A684F4B1A60434B1D
:1056F0001B7813F0020F03D0434B5B68CAF80030ED
:105700003E4B1B7813F0040F02D03F4B9B68336075
:1057100004F0B6FB394B1B784BB372B6374B1B7892
:1057200013F0010F06D03A68364B1B681340364A17
:1057300013603B60314B1B7813F0020F08D0D8F890
:105740000020304B5B6813402F4A5360C8F800308C
:105750002A4B1B7813F0040F08D0D9F80020294BEE
:105760009B681340284A9360C9F8003062B6294B01
:10577000DB68B3F1605F3FF466AF264B264A1A60E0
:105780004FF06052DA604FF0F0421A61234A1A601B
:1057900059E7234B18880230204402A9102301F84E
:1057A000013D012280B200F0A1F8144B1B78F3B147
:1057B00013F0010F03D0144B1A681B4B1A600F4BE8
:1057C0001B7813F0020F03D00F4B5A68174B1A6067
:1057D0000A4B1B7813F0040F0BD00B4B9A68114B3C
:1057E0001A60012006E0002004E0002002E0012011
:1057F00000E0012002B0BDE8F08700BFF899FF1F6C
:1058000080E100E0E099FF1FEC99FF1F84E100E0D8
:1058100088E100E000C0024001401F0000001F803E
:10582000409AFF1F08E100E000E100E004E100E031
:105830002DE9F04184B00024234DDFF8AC80234FE4
:10584000E6B23046FEF7EAFE14280AD017280FD039
:10585000A8B91F4B93E803002860A980090CA9711F
:1058600015E098E803002860A980090CA9710EE0F2
:1058700097E803002860A980090CA97107E0304669
:10588000FEF7CCFE02461349284607F05BFD124B9B
:10589000188800EB042001220DF10F0180B200F006
:1058A0004FFB9DF80F200D4B53F8223000932B46F1
:1058B00022460B490B4804F06DF90134082CBFD186
:1058C00004B0BDE8F08100BF149AFF1FD05E010054
:1058D000D85E01009C5E0100409AFF1FB85D010088
:1058E000A85E0100849BFF1FE05E01002DE9F04FE0
:1058F000A84B1B78332B66D1002A00F018830C4686
:105900008D18A54FA54BA64E4FF0000C4FF0805EB2
:105910004FF0010881464FEA202B4BF4704B397849
:105920004FEA014A59B14AF010414BEA010159636B
:10593000D96A01F47041B1F5405FF9D8CFE231681E
:1059400081F800C0C3F82CE04BF080515963D96A4C
:1059500001F47041B1F5405FF9D8217841EA092995
:1059600039784FEA014A69B11FFA89F949EA0A0A06
:105970004AF080515963D96A01F47041B1F5405F32
:10598000F9D810E0316881F800C0C3F82CE01FFAA4
:1059900089F949F0C0515963D96A11F0805FFBD091
:1059A000316881F80080013080B2D96A11F0F00FBF
:1059B000FBD0996BD96A11F0F00FFBD0996B0134D1
:1059C000AC42A7D1B3E2342B40F0A280754C734BAC
:1059D0001C60714B1B781C0463B144F010431843E6
:1059E0006E4B58631846C36A03F47043B3F5405FC7
:1059F000F9D878E26A4B1B6800241C70674B4FF0A3
:105A00008054DC62204358631846C36A03F4704331
:105A1000B3F5405FF9D86FEA42436FEA53439BB254
:105A20005D480078040458B1234343F010435B48B9
:105A30004363C36A03F47043B3F5405FF9D80FE0E2
:105A4000574800680024047054484FF08054C462E2
:105A500023434363C36A03F47043B3F5405FF9D84B
:105A60001646002A45D04C1E00204B4D4C4F844614
:105A70004A4B4FF0805E4FF0010814F801AF01303F
:105A800029784FEA014981B14AEA0909B04234BF95
:105A90004FF00041002149EA01015963D96A01F43C
:105AA0007041B1F5405FF9D81CE0396881F800C059
:105AB000C3F82CE0B0422CBF4FF0006100214AEA4D
:105AC00001015963B04206D2D96A01F47041B1F5BF
:105AD000405FF9D806E0D96A11F0805FFBD03968E1
