:1000000000800020BD010000A98900006D8900006A
:100010006D8900006D8900006D8900006D89000008
:100020006D8900006D8900006D890000A9890000BC
:10003000A98900006D890000A98900005D89000080
:10004000A9890000A9890000A9890000A9890000E8
:10005000A9890000A9890000A9890000A9890000D8
:10006000A9890000A9890000A9890000A9890000C8
:10007000A9890000A9890000A9890000A9890000B8
:10008000A9890000A9890000A9890000A9890000A8
:10009000A9890000A9890000A9890000A989000098
:1000A0003988000049880000A9890000A98900005A
:1000B000A9890000A9890000A9890000A989000078
:1000C000A9890000A9890000A9890000A989000068
:1000D000A9890000A9890000A9890000A989000058
:1000E000A9890000A9890000A9890000A989000048
:1000F000A989000049A80000A9890000B1AF00004B
:10010000A989000035B50000A9890000A98900006F
:10011000A9890000A9890000A9890000A989000017
:10012000A9890000A9890000A9890000A989000007
:10013000A9890000A9890000A9890000A9890000F7
:10014000A9890000A9890000A9890000A9890000E7
:10015000A9890000A9890000A9890000A9890000D7
:10016000A9890000C98F0000A9890000A9890000A1
:10017000A9890000A9890000A9890000A9890000B7
:10018000A9890000A9890000A9890000A9890000A7
:10019000A9890000A9890000A9890000A989000097
:1001A000A9890000A9890000A9890000A989000087
:1001B000A9890000A9890000A9890000564B4CF2CA
:1001C000205210B51A804DF628121A8000BF00BFC9
:1001D00008F0EEFB514B4FF010621A60504A9A60E3
:1001E000504ADA60504A136813F4807304D14F49BF
:1001F0000B604FF4A85313604D4B1A78110703D5C9
:100200001A7842F008021A704A4B4B492A221A7097
:100210004A4A4B4B8B4204D252F8040F43F8040B6A
:10022000F8E7484B484900228B4202D243F8042B9E
:10023000FAE74649464A002352F8230041F82300D2
:1002400001336F2BF8D1434B434A802103F8011B44
:100250009342FBD1414B3D4A1A60414B8A221A70AE
:10026000A3F5805324225A70A0221A709A7992071B
:10027000FCD59A79D406FCD43A4A937903F00C035E
:10028000082B384BF9D103221A7140225A719A79FE
:100290009006FCD5334A9179324B4906FBD5324A58
:1002A000324911600221516020221A709A7902F0BD
:1002B0000C020C2AFAD12E4B2E4A1A602E4B4BF60A
:1002C0007F321A6000225A60072243F8042C2B4A1E
:1002D000C3F80C2D62B608F035FD144B1B68DA0725
:1002E00005D5274808F0F2FB264B274A1A60274B12
:1002F0001B785B0609D5234C234B22689A4204D114
:100300001F4808F0E3FB002323600CF0A9FA08F073
:1003100055FB09F0C1FDFEE70E200540308004408A
:10032000823F04000100002B10D0034014D0034092
:1003300002D0074000E007405098FF1F946801007A
:100340002087FF1F5098FF1F349DFF1F0082FF1F53
:100350000000000000E400E05FE400E008ED00E0E1
:100360000050064000400640448004400000131145
:1003700004800440C010050014E000E000002020CC
:100380005EF981591CE00340A5C3945A00F0074070
:10039000FFFFFFFFFFFFFFFFFFFFFFFFFFFFFFFF6D
:1003A000FFFFFFFFFFFFFFFFFFFFFFFFFFFFFFFF5D
:1003B000FFFFFFFFFFFFFFFFFFFFFFFFFFFFFFFF4D
:1003C000FFFFFFFFFFFFFFFFFFFFFFFFFFFFFFFF3D
:1003D000FFFFFFFFFFFFFFFFFFFFFFFFFFFFFFFF2D
:1003E000FFFFFFFFFFFFFFFFFFFFFFFFFFFFFFFF1D
:1003F000FFFFFFFFFFFFFFFFFFFFFFFFFFFFFFFF0D
:10040000FFFFFFFFFFFFFFFFFFFFFFFFDEF9FFFF23
:1004100010B5054C237833B9044B13B10448AFF33E
:1004200000800123237010BD5098FF1F00000000C2
:1004300090680100084B10B51BB108490848AFF39C
:1004400000800848036803B910BD074B002BFBD0A0
:10045000BDE81040184700BF000000005498FF1F7F
:10046000906801005098FF1F0000000070B58AB02E
:100470000221042008F06CFB02210A2008F068FB2E
:100480000221082008F064FB0221142008F060FB20
:100490000221152008F05CFB0221092008F058FB1E
:1004A000012008F039FC0121092008F051FB00214E
:1004B000092008F01BFB012008F02EFC0121092077
:1004C00008F014FB0A2008F027FC0121162008F090
:1004D0003FFB0021162008F009FB012008F01CFC5E
:1004E0000121162008F002FB642008F015FC9F4C47
:1004F000204601F017FD0121204601F0C7FB4FF413
:10050000FC61204601F0B2FB994802F00BFD994BCB
:1005100018689949994C1A46994E0B7813F0FF0FB9
:1005200000F01381237813F0030F00F00E8113689D
:1005300035685B1B182B40F208818F498F4C8D4A20
:100540008F4E42F20F700B7813F0FF0F00F0048112
:10055000237813F0030F00F0FF80136835685B1BEE
:10056000182B40F2F980834B1B680593059B854D42
:100570002B60854C23685B68192284492046984784
:10058000204609F03BFB824B824A8349204609F012
:100590004DFB2A688149204609F048FB804D2846DA
:1005A00006F0ECFD6B682A68E9680191A968009182
:1005B0007C49204609F03AFB06F0B0FD7A4B186002
:1005C00006F0ACFD02467949204609F02FFB784D34
:1005D000284606F0BBFD6B782A7869790391297962
:1005E0000291E9780191A97800917249204609F0B9
:1005F0001DFB714B0693714B5B68079306A9284658
:1006000003F00CF923685B680A226D49204698477D
:1006100008A803F019F9089B1B68214608A8984709
:10062000204609F0EBFA042005F030F923685B68F6
:100630001022644920469847204609F0DFFA6248B4
:1006400003F0D0FA042005F021F9604D4821284636
:1006500006F022FE284606F0A7FD284606F0C0FD5B
:1006600002465B49204609F0E1FA23685B680922EB
:10067000584920469847002310228021204609F03F
:10068000E3FA23685B68012253492046984780219A
:10069000284606F0E5FE40B2504B187028B12046BF
:1006A00023685B6811224E4998474E4D4FF4A8735A
:1006B0002B80354C23685B680922464920469847C1
:1006C000002310222988204609F0BEFA23685B68BF
:1006D00001224149204698472A8801213B4806F0DB
:1006E00067FE40B23D4B187028B1204623685B6816
:1006F00011223B4998470021344806F01FFE374B32
:100700001870214D284609F079FA184C002120462E
:1007100001F0ACFA4FF6E071204602F0EBFB324BF1
:10072000A36114220521204602F0CCFB23685B68FC
:100730000A222E49204698472D49284609F076FA84
:100740004FF4FA6008F0E8FA0DE013681B1AB3F5ED
:100750007A7F7FF6E2AEF0E613680493049B83424F
:100760007FF6F1AEFFE60AB070BD00BF2499FF1F0F
:100770005C99FF1F109AFF1FF49AFF1F049BFF1F35
:100780002C9DFF1F1499FF1F149BFF1F540B01008A
:10079000700B01007C0B0100880B0100980B01001D
:1007A0000099FF1FB40B01001C99FF1FF00B010003
:1007B0005099FF1F080C0100286401008099FF1F59
:1007C0003C0C0100480C0100E898FF1F7098FF1FC7
:1007D0005C0C0100780C0100940C01000188FF1FE3
:1007E000840C01007499FF1FC4580100980C01008B
:1007F000A40C010030B585B0224B234A1A60C024F6
:100800001C71A8205871012199710A25DD711F4BB7
:100810001A601C7158719971D9711D4B1A60FF24AF
:100820001C715C719C710025DD711A4B5D7046F284
:10083000A0025A804FF496629A804FF4A062DA8048
:100840004EF280425A814FF496429A812246082104
:10085000114802F05BFB0C2302930D2301930B2341
:1008600000932346152214210C4800F04BFD0C4B3D
:100870001D710C4A1A6041F69072DA8004221A72D5
:1008800005B030BD8099FF1F28640100D498FF1F78
:10089000F898FF1F7098FF1F5C99FF1F2499FF1F96
:1008A000E898FF1FC85F01002DE9F0418AB0834B33
:1008B0001B680493049B824A1360824A1268643264
:1008C0009A4210D27F4A13607F4AA2FB0312920918
:1008D0007E490A607E4909688A4204D97C490A60D7
:1008E0007C4A136003E07C4B1B78002B6FD0002206
:1008F000794B1A70794A136801331360784A126889
:10090000934284BF764A1360764803685B6801228D
:1009100075499847754B1A886FEA42426FEA52420E
:1009200092B21A80724C0121204606F041FD714DB1
:1009300028700021204606F001FD28706E4E3146D9
:10094000204606F0C9FC28703188204606F0B2FC2B
:100950006A4B18605E4B1A68694BA3FB0213DB08F5
:1009600003EB8303B2EB430F02D10121654B1970F6
:10097000654BA3FB02135B09C3EB0313B2EB830FBD
:1009800002D10122614B1A70614C002301933C2378
:10099000009340F23F130F220521204600F0B4FFE0
:1009A0004FF6E071204602F0A5FA5A4BA3611422DB
:1009B0005021204602F086FA504B18680BF0BCF923
:1009C0000223009302460B46204609F079F908F00D
:1009D0005DFF00284BDD08F00DFFC0B24E4B1870D4
:1009E00048382E2843D8DFE800F0324242424242E3
:1009F0004242424242184242214242424242424222
:100A000042424242424242424242324242424242D6
:100A10004242424242184242210001223F4B1A7098
:100A20003F4A40492F4809F001F920E03E4A137837
:100A300083F00103137023B100223C4B1A70384A33
:100A400000E03B4A3B49274809F0F0F80FE0374AFD
:100A5000137883F00103137023B10022324B1A7014
:100A60002F4A00E0324A34491E4809F0DFF8334982
:100A700006A803F007F99DF82530032B00F24983FF
:100A8000124B1C681D4B18680BF056F9CDE900019C
:100A900022462B49134809F0C9F8204B1B7813B1A3
:100AA000042004F0F3FE064B1A68264B1A60012658
:100AB000DFF894800B4D014F49E000BF109AFF1FF3
:100AC0001499FF1F4899FF1FD34D62101099FF1F03
:100AD000E098FF1F5899FF1F4C99FF1F2099FF1F97
:100AE000E498FF1F149BFF1F100D01007499FF1F56
:100AF0007098FF1F0188FF1FD098FF1F7099FF1F7C
:100B0000CDCCCCCC6D99FF1F89888888DC98FF1FDD
:100B10002499FF1FE05801007C99FF1F0288FF1FE6
:100B2000080D0100140D01000388FF1F0488FF1F3A
:100B3000000D01002C0D01003C0D0100E898FF1F85
:100B40004C0D01007899FF1FE00F0100012606A857
:100B500002F02AFF002800F09B8206A802F0D6FFD0
:100B6000002800F0778206A802F0E4FFC4B25C4BD4
:100B70001B7823B12B681B682146284698470A2C0E
:100B800040F06482002EE1D0564C23685B6813224B
:100B9000554920469847204609F030F823685B689D
:100BA0001322524920469847204609F027F8504A18
:100BB0001368013313604F4B1B7813B1042004F00A
:100BC00065FE069B5B680F224B4906A898470446C2
:100BD00006A809F013F82044C3B2484A13704BB971
:100BE000404C23685B6819224549204698472046B7
:100BF00009F004F8069B5B682622424906A898473C
:100C0000044606A808F0FAFF2044C3B23B4A13701A
:100C10004BB9344C23685B68192239492046984700
:100C2000204608F0EBFF069B5B681122364906A8B8
:100C30009847044606A808F0E1FF2044C3B22F4AB3
:100C400013704BB9274C23685B6819222C49204646
:100C50009847204608F0D2FF069B5B6809222B4983
:100C600006A89847C0B2254B187048B91D4C236898
:100C70005B681922224920469847204608F0BEFFAB
:100C800000230A222249097806A808F0DDFF06A8F9
:100C900008F0B4FF069B5B6828221E4906A8984707
:100CA00006A808F0ABFF06A808F0A8FF069B5B6843
:100CB0002E22194906A89847044606A808F09EFF68
:100CC0000219D3B20D490B7043BB064C23685B6815
:100CD00019220B4920469847204608F08FFF22E052
:100CE0000388FF1F149BFF1F780D01008C0D01006E
:100CF000F498FF1F0288FF1FA00D01006C99FF1FD1
:100D0000B00D0100CC0D0100F40D0100080E010032
:100D10000088FF1F140E0100400E0100D2B2A1494D
:100D2000A14808F083FF069B5B6806229F4906A83E
:100D30009847044606A808F061FF2044C3B29C4AC5
:100D400013704BB9984C23685B6819229949204667
:100D50009847204608F052FF069B5B68062296499A
:100D600006A89847044606A808F048FF904D20447E
:100D70002870069B5B682822904906A8984704467D
:100D800006A808F03BFF20442870069B5B680722FA
:100D90008B4906A89847044606A808F02FFF204470
:100DA0002870814C23685B68092286492046984751
:100DB000204608F023FF069B5B680622824906A8AE
:100DC0009847044606A808F019FF20442870069B9F
:100DD0005B6827227D4906A89847044606A808F0C4
:100DE0000DFF2044C3B22B704BB96F4C23685B6876
:100DF0001922704920469847204608F0FFFE069BBE
:100E00005B680622724906A89847069B5B68082221
:100E1000704906A89847069B5B6801226E4906A8A0
:100E20009847069B5B680B226C4906A898476C4D57
:100E3000069B5B680422294606A898475A4C2368FB
:100E40005B681A22674920469847204608F0D6FE7C
:100E5000069B5B681522644906A8984700230A226E
:100E60006249097806A808F0EFFE069B5B680C2231
:100E70005F4906A89847069B5B6801225D4906A862
:100E800098475D4F00230A22396806A808F0DCFE67
:100E9000069B5B680622594906A89847584B186874
:100EA0000AF04AFF0226009602460B4606A808F002
:100EB00007FF069B5B680B22524906A898472368E8
:100EC0005B681022504920469847204608F096FE5D
:100ED000DFF85C8100230A22D8F8001006A808F089
:100EE000B3FE069B5B681022484906A89847D8F8CD
:100EF00000000BF0FBFA804638680BF0F7FA014669
:100F000040460BF0FFFB0AF017FF009602460B4627
:100F100006A808F0D5FE069B5B680A223C4906A895
:100F2000984700230A223B49096806A808F08CFE6E
:100F3000069B5B680B22384906A8984700230A22C3
:100F40003649096806A808F07FFE069B5B681322F5
:100F5000334906A89847069B5B680422294606A8E1
:100F60009847069B5B6807222E4906A8984706A863
:100F700008F044FE23685B6810222B4920469847FE
:100F8000204608F03BFE069B5B680722274906A81F
:100F9000984706A808F032FE06A808F02FFE23683E
:100FA00048E000BF700E0100149BFF1F7C0E010083
:100FB0006C99FF1FB00D0100840E01008C0E010022
:100FC000B80E0100C00E0100CC0E0100D40E0100CD
:100FD000FC0E01007C0B0100940C0100700B010061
:100FE000400F0100040F0100200F01000088FF1FC7
:100FF000380F0100480F01001099FF1F4C0F01002E
:101000007099FF1F540F0100600F0100740F010061
:10101000880F01001899FF1F940F0100E498FF1F2B
:10102000A00F0100B40F0100BC0F0100D00F0100A0
:10103000F498FF1F5B6804224249204698472046E7
:1010400008F0DCFD0022404B1A6021E00D2C18BF97
:1010500000267CE52B685B680122414628469847BC
:101060003B680593059A394B1B6803F57A739342E5
:10107000BFF46DAD364C23685B683122354920469C
:101080009847204608F0BAFD334A136801331360CD
:10109000012007F041FE06A802F072FD2C4C2368E7
:1010A0005B680E222D4920469847204608F0A6FD91
:1010B0002B4B1B7813B1042004F0E8FB294B1B7861
:1010C00013B3294B1C68244B1B68029320460BF07A
:1010D0000DFA0546254B18680BF008FA014628461C
:1010E0000BF010FB0AF028FECDE900012246204952
:1010F000174808F09BFD1B4B1B782BB11D4B1A6842
:101100001D49134808F092FD1C49114808F08EFD56
:1011100014E01B4B1B7843B10022194B1A700C488A
:1011200003685B68012217499847174B1B782BB15E
:101130000022154B1A70064808F060FD0AB0BDE8A1
:10114000F08100BFD80F01002099FF1F7899FF1F81
:10115000149BFF1FE40F01001899FF1F18100100D6
:101160000288FF1F0388FF1FF498FF1F1099FF1FBD
:1011700028100100E498FF1F5810010070100100B2
:101180006D99FF1F7C100100DC98FF1FF0B4002454
:101190000127CB08C55C01F00703C3F108039A429D
:1011A00009D39C4007FA03F6013E35402C4319440D
:1011B000D21AEED10BE004FA02F19B1A45FA03F3BE
:1011C000012404FA02F2541E2340DCB20C432046F0
:1011D000F0BC7047F0B5002A14BF4FF060574FF0D5
:1011E0006457174A1268174C2588174C94FBF5F47E
:1011F000A1421BD309E055F8042F36F8024F9EFB9D
:10120000F4F4A14201D2AC45F5D113F0080F18BF98
:1012100047F0806713F0040F0FD047F0007722F4F7
:101220007043120902F470621A4306E0044D054E41
:1012300005F1580CDFF810E0DDE73A430260F0BD3D
:10124000A45E0100745E0100006CDC0210B4C37A7D
:10125000FBB172B6C37A13F0010F05D0154A1468BA
:10126000C368234083611360C37A13F0020F05D073
:10127000114A146803692340C3611360C37A13F0F1
:10128000040F05D00D4A14684369234003621360BC
:1012900062B60368DA688A420AD0094A1A600368AB
:1012A000D960036841F0804119610368054A1A60FA
:1012B00010BC704780E100E084E100E088E100E0DC
:1012C00001401F0000001F80C37A9BB113F0010F83
:1012D00002D08269084B1A60C37A13F0020F02D061
:1012E000C269064B1A60C37A13F0040F02D0026A77
:1012F000034B1A60704700BF00E100E004E100E02A
:1013000008E100E070B400250571114E06604177D8
:10131000827703779DF80C3080F822309DF81030EA
:1013200080F823309DF8143080F82130F023C380FA
:101330004FF4A0730381C5744581858101238374B3
:101340004FF6FF720282C2810375856170BC7047DF
:101350006C5E01000029C0F234812DE9F041B0F942
:1013600006408C4240F32B81002AC0F22881B0F95C
:101370000840944240F32381924CD4F800E0924C10
:101380002668924C2588924C94FBF5F4A6450FD222
:101390008D4C8E4F04F15808DFF834C254F8046FB6
:1013A00037F8025F9CFBF5F5AE4501D24445F5D117
:1013B00046F06055874CE47ABCB372B6854CE47A4B
:1013C00014F0010F0CD0DFF828C2DCF80040DFF881
:1013D00004E2DEF80C703C40CEF81840CCF8004037
:1013E0007C4CE47A14F0020F0CD0DFF808C2DCF871
:1013F0000040DFF8E0E1DEF810703C40CEF81C4021
:10140000CCF80040734CE47A14F0040F0CD0DFF8F1
:10141000E8C1DCF80040DFF8BCE1DEF814703C40C5
:10142000CEF82040CCF8004062B66A4C2468E768E9
:10143000AF4209D0684F2760664C2468E56046F0EB
:10144000F0462661654D256089B292B290F8204041
:10145000240444F0004444F02A04614D6C63EC6AB7
:1014600014F0F00F18BFAE6B04F47044B4F5405F95
:10147000F5D8C47F41EA044444F01044584D6C63ED
:10148000EC6A14F0F00F18BFAE6B04F47044B4F5BE
:10149000405FF5D8C47F41EA044141F01041504C0F
:1014A0006163E16A11F0F00F18BFA56B01F47041A0
:1014B000B1F5405FF5D890F82010090441F00041E3
:1014C00041F02B01464C6163E16A11F0F00F18BF47
:1014D000A56B01F47041B1F5405FF5D8C17F42EAD8
:1014E000014141F010413E4C6163E16A11F0F00F9F
:1014F00018BFA56B01F47041B1F5405FF5D8C17F0D
:1015000042EA014242F0104235494A63CA6A12F087
:10151000F00F18BF8C6B02F47042B2F5405FF5D843
:1015200090F82020120442F0004242F02C022C4994
:101530004A63CA6A12F0F00F18BF8C6B02F4704253
:10154000B2F5405FF5D8264A1168C07F43EA0043F0
:1015500043F0C0535363D36A13F0805F04D113F098
:10156000F00FF8D0936BF6E71D4B4FF08052DA6224
:101570001960DB6A13F0F00F05D0194B9A6BDA6A29
:1015800012F0F00FFAD1134BDB7AC3B113F0010F55
:1015900003D0104B9A69134B1A600E4BDB7A13F091
:1015A000020F03D00B4BDA690F4B1A60094BDB7A41
:1015B00013F0040F03D0074B1A6A0C4B1A60BDE8F6
:1015C000F08170470888FF1FA45E0100745E01006F
:1015D000006CDC020C88FF1F01401F0000001F8010
:1015E00000C0024000E100E004E100E008E100E0AA
:1015F00080E100E084E100E088E100E02DE9F043D3
:10160000BDF81C50B0F906608E4240F35E81B0F91F
:101610000840944240F35981002AC0F256810029C3
:1016200002DA5C1823B20021CC18013CB442C0F2AB
:101630004881761A33B2A64CD4F800C0A54C26686F
:10164000A54C2788A54C94FBF7F4A44510D2A14FD4
:10165000DFF884E207F15809DFF8808257F8046F59
:101660003EF8024F98FBF4F4A44501D24F45F5D162
:1016700046F060589A4CE47ABCB372B6984CE47A5F
:1016800014F0010F0CD0DFF870E2DEF80040DFF854
:1016900050C2DCF80C703C40CCF81840CEF800404A
:1016A0008F4CE47A14F0020F0CD0DFF850E2DEF831
:1016B0000040DFF82CC2DCF810703C40CCF81C4035
:1016C000CEF80040864CE47A14F0040F0CD0DFF81A
:1016D00030E2DEF80040DFF808C2DCF814703C406D
:1016E000CCF82040CEF8004062B67D4C2468D4F897
:1016F0000CE0C6450CD0DFF80CE2C4F800E0784CF2
:101700002468C4F80C8046F0F0462661754E2660C9
:101710008EB29CB2771E2744BFB292B290F82030AE
:101720001B0443F0004343F02A036F494B63CB6A29
:1017300013F0F00F18BFD1F838E003F47043B3F59D
:10174000405FF4D8C37F46EA034343F01043664941
:101750004B63CB6A13F0F00F18BF8E6B03F470432A
:10176000B3F5405FF5D8C37F47EA034343F0104326
:101770005D494B63CB6A13F0F00F18BF8E6B03F417
:101780007043B3F5405FF5D890F820301B0443F068
:10179000004343F02B0354494B63CB6A13F0F00F23
:1017A00018BF8E6B03F47043B3F5405FF5D8C37F69
:1017B00042EA034343F010434B494B63CB6A13F0B7
:1017C000F00F18BF8E6B03F47043B3F5405FF5D88C
:1017D000C37F42EA034343F01043434A5363D36A4F
:1017E00013F0F00F18BF916B03F47043B3F5405F33
:1017F000F5D890F820301B0443F0004343F02C034D
:10180000394A5363D36A13F0F00F18BF916B03F496
:101810007043B3F5405FF5D8334A23B2012B12DD94
:10182000C37F45EA034343F010435363D36A13F085
:10183000F00F18BF916B03F47043B3F5405FF5D818
:10184000013CA4B2E9E7284A1168C37F45EA034393
:1018500043F0C0535363D36A13F0805F04D113F095
:10186000F00FF8D0936BF6E71F4B4FF08052DA621F
:101870001960DB6A13F0F00F05D01B4B9A6BDA6A24
:1018800012F0F00FFAD1164BDB7AF3B113F0010F1F
:1018900003D0134B9A69154B1A60114BDB7A13F086
:1018A000020F03D00E4BDA69114B1A600C4BDB7A36
:1018B00013F0040F09D00A4B1A6A0E4B1A60BDE8E8
:1018C000F083034CD4F800C0B8E6BDE8F08300BF55
:1018D0000888FF1FA45E0100745E0100006CDC023A
:1018E0000C88FF1F00001F8000C0024000E100E0E4
:1018F00004E100E008E100E080E100E084E100E0D4
:1019000088E100E001401F002DE9F04782B09846D1
:10191000BDF92870BDF82C60B0F906308B4240F359
:1019200086810546B0F90800904240F38081002985
:1019300003DA88440FFA88F80021002A02DA1744F3
:101940003FB2002201EB0804013C9C42A4BF5B1A99
:101950000FFA83F8D319013B8342C0F26581871ADD
:101960003FB2B44B1C68B44B1B68B448B0F800E0FD
:10197000B34890FBFEF0844210D2AF48DFF8BCC2FF
:1019800000F1580ADFF8B89250F8043F3CF802EF33
:1019900099FBFEFE744501D28245F5D143F06059B2
:1019A000A848C07AB8B372B6A648C07A10F0010F42
:1019B0000CD0DFF8A8E2DEF80000DFF888C2DCF81F
:1019C0000C402040CCF81800CEF800009D48C07AAA
:1019D00010F0020F0CD0DFF888E2DEF80000DFF82C
:1019E00064C2DCF810402040CCF81C00CEF80000A7
:1019F0009448C07A10F0040F0CD0DFF868E2DEF8EB
:101A00000000DFF840C2DCF814402040CCF8200091
:101A1000CEF8000062B68B480068D0F80CE0CE45E6
:101A20000CD0DFF844E2C0F800E086480068C0F857
:101A30000C9043F0F0430361834B03608CB204F1DC
:101A4000FF3EC6441FFA8EFE91B24A1E3A4492B23D
:101A500095F820301B0443F0004343F02A037B48F1
:101A60004363C36A13F0F00F18BFD0F838C003F413
:101A70007043B3F5405FF4D8EB7F44EA034343F08F
:101A8000104372484363C36A13F0F00F18BF846BAE
:101A900003F47043B3F5405FF5D8EB7F4EEA0343A0
:101AA00043F0104369484363C36A13F0F00F18BF53
:101AB000846B03F47043B3F5405FF5D895F820309C
:101AC0001B0443F0004343F02B0360484363C36AA5
:101AD00013F0F00F18BF846B03F47043B3F5405F4D
:101AE000F5D8EB7F41EA034343F0104357494B637A
:101AF000CB6A13F0F00F18BF886B03F47043B3F593
:101B0000405FF5D8EB7F42EA034343F010434F4A6E
:101B10005363D36A13F0F00F18BF916B03F4704353
:101B2000B3F5405FF5D895F820301B0443F000432F
:101B300043F02C03454A5363D36A13F0F00F18BFE8
:101B4000916B03F47043B3F5405FF5D8002F4EDD81
:101B50003E4CB8F1010F14DD4146EB7F46EA0343EA
:101B600043F010436363E36A13F0F00F18BFA26BF6
:101B700003F47043B3F5405FF5D8013909B2012988
:101B8000EBDC2268EB7F46EA034343F0C053636318
:101B9000E36A13F0805F04D113F0F00FF8D0A36B69
:101BA000F6E74FF08053E3622260E36A13F0F00F30
:101BB00004D0A36BE36A13F0F00FFAD1012F12DD0A
:101BC00017F0010F0FD0DFF87C904846FFF77CFB41
:101BD000002301221749096801A8FFF7FBFA0199C0
:101BE0004846FFF733FB013F3FB2002FB1D1154B01
:101BF000DB7AE3B113F0010F03D0124B9A69144B57
:101C00001A60104BDB7A13F0020F03D00D4BDA6928
:101C1000104B1A600B4BDB7A13F0040F07D0094B03
:101C20001A6A0D4B1A6002E0024B1C689BE602B078
:101C3000BDE8F0870888FF1FA45E0100745E010004
:101C4000006CDC020C88FF1F00001F8000C00240F7
:101C500000E100E004E100E008E100E080E100E0F4
:101C600084E100E088E100E001401F0000B583B09E
:101C7000B0F906300191B0F9082000920022114617
:101C8000FFF742FE03B05DF804FB00BFF0B401F0C3
:101C90000301C174954B1D68954B1968954B1A88C3
:101CA000954B93FBF2F39D420ED2914B914C03F175
:101CB0005807914E53F8041F34F8022F96FBF2F2A6
:101CC000954201D29F42F5D141F060528B4BDB7AB5
:101CD0002BB372B6894BDB7A13F0010F06D0884C18
:101CE0002668864DEB683340AB612360834BDB7A1B
:101CF00013F0020F06D0834C2668804D2B693340C9
:101D0000EB6123607D4BDB7A13F0040F06D07E4C31
:101D100026687A4D6B6933402B62236062B6774B3D
:101D20001B68DC68944209D0784C1C60734B1B68BC
:101D3000DA6041F0F0411961754A1A6090F820307C
:101D40001B0443F0004343F03603724A5363D36AE3
:101D500013F0F00F18BF916B03F47043B3F5405FBD
:101D6000F5D8C37C032B00F29F80DFE803F0022943
:101D70005077684A1168C37F1B0443F0006343F047
:101D800048035363D36A13F0805F04D113F0F00F5C
:101D9000F8D0936BF6E75F4B4FF08052DA62196030
:101DA000DB6A13F0F00F05D05A4B9A6BDA6A12F027
:101DB000F00FFAD1F023C3804FF4A073038173E0D6
:101DC000544A1168C37F1B0443F0006343F02803A7
:101DD0005363D36A13F0805F04D113F0F00FF8D08F
:101DE000936BF6E74B4B4FF08052DA621960DB6A77
:101DF00013F0F00F05D0474B9A6BDA6A12F0F00F30
:101E0000FAD14FF4A073C380F02303814CE0414A20
:101E10001168C37F1B0443F0006343F088035363DE
:101E2000D36A13F0805F04D113F0F00FF8D0936BF6
:101E3000F6E7384B4FF08052DA621960DB6A13F034
:101E4000F00F05D0334B9A6BDA6A12F0F00FFAD12B
:101E5000F023C3804FF4A073038125E02D4A11685D
:101E6000C37F1B0443F0006343F0E8035363D36A6A
:101E700013F0805F04D113F0F00FF8D0936BF6E706
:101E8000244B4FF08052DA621960DB6A13F0F00FD6
:101E900005D0204B9A6BDA6A12F0F00FFAD14FF4AA
:101EA000A073C380F0230381144BDB7AC3B113F01A
:101EB000010F03D0114B9A69174B1A600F4BDB7A55
:101EC00013F0020F03D00D4BDA69144B1A600B4B61
:101ED000DB7A13F0040F03D0084B1A6A104B1A6018
:101EE000002343818381F0BC704700BF0888FF1F37
:101EF000A45E0100745E0100006CDC020C88FF1F10
:101F000080E100E084E100E088E100E001401F00A2
:101F100000001F8000C0024000E100E004E100E09A
:101F200008E100E0F8B590F822100B2902D007294B
:101F300040F0D48190F8213003F0FB03082B40F0EF
:101F4000CD8190F823300D3BDBB2012B00F2C6812E
:101F50000446704D284601F0A7F894F82110284651
:101F600001F0D2F894F82310284601F0F9F8284639
:101F700001F000F8A27F617F284601F057F888B190
:101F80002E46617F284601F069F80546E077A17F7B
:101F9000304601F063F8284384F82000207FFF28B2
:101FA00005D192E10023E37784F82030F8BD0121C8
:101FB00006F0CEFD0121207F06F098FD052006F0F9
:101FC000ABFE0021207F06F091FD142006F0A4FE58
:101FD0000121207F06F08AFD962006F09DFE4E4BE3
:101FE00019684E4B1B684E4A10884E4A92FBF0F21D
:101FF0008A420ED9494A4A4D02F15807494E52F8D1
:10200000043F35F8020F96FBF0F0884201D9BA423E
:10201000F5D143F060513F4AD27A2AB372B63D4AB5
:10202000D27A12F0010F06D03F480668394DEA68AF
:102030003240AA610260374AD27A12F0020F06D00B
:102040003A480668334D2A693240EA610260314AF3
:10205000D27A12F0040F06D0354806682D4D6A6911
:1020600032402A62026062B62A4A1268D068884208
:1020700009D030481060274A1268D16043F0F0431D
:1020800013612D4B13602D4F2D4A3B785D1EEDB231
:1020900063B3BE1C94F820107B7843EA014343F0FD
:1020A00000435363D36A13F0F00F18BF916B03F42E
:1020B0007043B3F5405FF5D8AB1C1F443046B842BF
:1020C00001D17719E1E7E17F10F8013B43EA0143D1
:1020D00043F000435363D36A13F0F00F18BF916BC2
:1020E00003F47043B3F5405FF5D8E8E7144A11688C
:1020F00094F820301B0443F0006343F01103536352
:10210000D36A13F0805F1DD113F0F00FF8D0936BFA
:10211000F6E700BF0C88FF1F0888FF1FA45E0100C0
:10212000745E0100006CDC0280E100E084E100E00C
:1021300088E100E001401F0000001F80F85D010001
:1021400000C00240664B4FF08052DA621960DB6AD1
:1021500013F0F00F05D0624B9A6BDA6A12F0F00FB1
:10216000FAD1604BDB7A002B00F0B28013F0010F44
:1021700003D05C4B9A695C4B1A605A4BDB7A13F0C4
:10218000020F03D0574BDA69584B1A60554BDB7A74
:1021900013F0040F03D0534B1A6A554B1A60782082
:1021A00006F0BAFD534B1968534B1B68534A10880D
:1021B000534A92FBF0F28A420ED94F4A4F4D02F138
:1021C00058074F4E52F8043F35F8020F96FBF0F0D7
:1021D000814201D2BA42F5D143F06051414AD27AEC
:1021E0002AB372B63F4AD27A12F0010F06D04548A0
:1021F00006683C4DEA683240AA610260394AD27AE8
:1022000012F0020F06D040480668364D2A69324067
:10221000EA610260334AD27A12F0040F06D03B48DA
:102220000668304D6A6932402A62026062B62D4A01
:102230001268D068884209D035481060294A12686F
:10224000D16043F0F0431361324B1360244A1168AC
:1022500094F820301B0443F0006343F029035363D8
:10226000D36A13F0805F04D113F0F00FF8D0936BB2
:10227000F6E71B4B4FF08052DA621960DB6A13F00D
:10228000F00F05D0164B9A6BDA6A12F0F00FFAD104
:10229000144BDB7A13B313F0010F03D0114B9A697F
:1022A000114B1A600F4BDB7A13F0020F03D00D4B6A
:1022B000DA690E4B1A600B4BDB7A13F0040F0DD06A
:1022C000084B1A6A0A4B1A60F8BD0A4B196888E66F
:1022D000782006F021FD074B196865E7F8BD00BFBF
:1022E00000C002400C88FF1F00E100E004E100E0B4
:1022F00008E100E00888FF1FA45E0100745E010091
:10230000006CDC0280E100E084E100E088E100E0B4
:1023100001401F0000001F802DE9F04F91B0BDF873
:1023200068A0BDF86C709DF87060B0F906408C42F2
:1023300040F36F82B0F90840944240F36A8206EBA2
:10234000460401EB4404012C00F1638202EBC60455
:10235000012C00F15E82984603928B460446BA45F2
:1023600040F04481012E40F08A8003EB8309BDF8E0
:102370000C7007F108039BB204934FF0010809F1B8
:102380000503994A1344059354468246964B09EB3C
:102390000302002312F8011B11EA080F18BF43F0D3
:1023A00001035B00DBB205998A42F3D15E08002B82
:1023B0005BD01F2E07D01E2E10D000253BB20393FA
:1023C00017E046B951E0009405233AB25946504609
:1023D000FFF714F949E01E2E0BD100E000250BEBAE
:1023E0000501009404233AB209B25046FFF706F9FA
:1023F0003BE006F01C031C2B0ED1ADB205EB0B012C
:1024000000940323039A09B25046FFF7F7F8360108
:10241000F6B204352DB2D4E706F01803182B0ED10E
:10242000ADB205EB0B0100940223039A09B25046AA
:10243000FFF7E4F8F600F6B203352DB2C1E716F067
:10244000100F0DD0ADB205EB0B012346039A09B274
:102450005046FEF77FFFB600F6B202352DB2B0E768
:102460007600F6B201352DB2ABE74FEA48085FFAC5
:1024700088F80137BFB2049B9F4287D1C9E103EBC3
:10248000830308931FFA86F84FEA4802099208EB83
:1024900048020A924FEA88020B9208EB88020C92DB
:1024A000082207924FF000090122069205334E4A96
:1024B00013440D9304905446089B4B4A9A180023EA
:1024C00012F8011B0698014218BF43F001035B009C
:1024D000DBB20D998A42F3D15F08002B73D01F2F16
:1024E00004D01E2F20D110E067B96CE0039B09FBDC
:1024F0000832019400960C9B12B259460498FFF7DB
:1025000003FA60E01E2F18D100E00023039A09FBB4
:10251000082203FB08B1019400960B9B12B209B28A
:102520000498FFF7F1F94EE0039B09FB08331BB257
:10253000059300230FFA86FA554607F01C021C2A61
:1025400011D11FFA83FA03FB08B1019400950A9B8D
:10255000059A09B20498FFF7D7F93F01FFB20AF1D3
:1025600004031BB2C0E707F01802182A11D11FFAA2
:1025700083FA03FB08B101940095099B059A09B2FF
:102580000498FFF7C1F9FF00FFB20AF103031BB281
:10259000AAE717F0100F11D01FFA83FA03FB08B156
:1025A000019400952B46059A09B20498FFF7ACF9FF
:1025B000BF00FFB20AF102031BB295E77F00FFB232
:1025C00001331BB290E7069B5B00DBB2069309F177
:1025D00001090FFA89F9079B013B9BB20793002B76
:1025E0007FF46AAF15E100BFFC580100002301220F
:1025F000894909680FA8FEF7EDFD0F998748FEF796
:1026000025FEB3B21FFA8BFB03EB43020BEB420236
:10261000013A92B2BDF80C1001EBC303013B9BB22F
:1026200094F82000000440F0004040F02A007C4D67
:102630006863E86A10F0F00F18BFD5F838E000F4CE
:102640007040B0F5405FF4D8E07F4BEA004B4BF0B0
:102650001040734D6863E86A10F0F00F18BFD5F8AA
:1026600038E000F47040B0F5405FF4D8E07F42EA13
:10267000004242F010426A484263C26A12F0F00F10
:1026800018BF856B02F47042B2F5405FF5D894F83C
:102690002020120442F0004242F02B0260484263C4
:1026A000C26A12F0F00F18BF856B02F47042B2F5E7
:1026B000405FF5D8E27F41EA024242F010425849B9
:1026C0004A63CA6A12F0F00F18BF886B02F47042B6
:1026D000B2F5405FF5D8E27F43EA024343F010438E
:1026E0004F4A5363D36A13F0F00F18BF916B03F492
:1026F0007043B3F5405FF5D894F820301B0443F0E5
:10270000004343F02C03464A5363D36A13F0F00F9F
:1027100018BF916B03F47043B3F5405FF5D808EB35
:102720008808082303934FF0010C08F105093D4B7D
:1027300099443B4A002E3ED04FF0000B394B08EB3A
:10274000030E1EF8010B00EA0C00002814BF5046CF
:1027500038460021E37F40EA034343F010435363CC
:10276000D36A13F0F00F18BF956B03F47043B3F501
:10277000405FF5D80131CBB29E42EBD8F145E0D1B4
:102780000021E37F47EA034343F010435363D36AD6
:1027900013F0F00F18BF906B03F47043B3F5405F74
:1027A000F5D80131CBB29E42EBD80BF1010B5FFAA9
:1027B0008BF39E42C2D84FEA4C0C5FFA8CFC039B11
:1027C000013B9BB20393002BB4D1154A116894F8D6
:1027D00020301B0443F0006353631346DA6A12F09F
:1027E000805F04D112F0F00FF8D09A6BF6E70C4B33
:1027F0004FF08052DA621960DB6A13F0F00F05D0F7
:10280000074B9A6BDA6A12F0F00FFAD10348FEF721
:102810005BFD11B0BDE8F08F0888FF1F0C88FF1F1B
:1028200000C00240FC5801002DE9F04F83B0009237
:102830000193DDF83090002900F0D3818E46874B5C
:102840001D68874B1B68874A1188874A92FBF1F203
:1028500095420ED2824A834C02F15807824E52F8BA
:10286000043F34F8021F96FBF1F18D4201D2BA42C7
:10287000F5D143F060517D4AD27A2AB372B67B4AD1
:10288000D27A12F0010F06D0794C2668774DEA68AB
:102890003240AA612260754AD27A12F0020F06D045
:1028A000744C2668714D2A693240EA6122606F4A91
:1028B000D27A12F0040F06D06F4C26686B4D6A690D
:1028C00032402A62226062B6684A1268D4688C423A
:1028D00009D06A4C1460654A1268D16043F0F04335
:1028E0001361674B13600D9B09EB030A0022654BD4
:1028F00001274FF080580199009C01EB040B90F8E0
:102900002010090441F0004141F02B015963D96ABC
:1029100011F0F00F18BF9C6B01F47041B1F5405FEE
:10292000F5D81FFA89F4C17F44EA014141F0104112
:102930005963D96A11F0F00F18BF9D6B01F4704113
:10294000B1F5405FF5D8C17F44EA014141F0104143
:102950005963D96A11F0F00F18BF9C6B01F47041F4
:10296000B1F5405FF5D8009C019D013C07FA04F1E8
:1029700011EA0E0F01D0013292E0002A40F390805C
:1029800090F82010090441F0004141F02A015963F8
:10299000D96A11F0F00F18BF9E6B01F47041B1F5C8
:1029A000405FF5D8C67FA91A89B241EA064141F0D5
:1029B00010415963D96A11F0F00F18BF9E6B01F4F2
:1029C0007041B1F5405FF5D8C67FA9B241EA064132
:1029D00041F010415963D96A11F0F00F18BF9E6B96
:1029E00001F47041B1F5405FF5D890F8201009046A
:1029F00041F0004141F02C015963D96A11F0F00F08
:102A000018BF9E6B01F47041B1F5405FF5D8013AF3
:102A100011D0C67FC18941EA064141F01041596396
:102A2000D96A11F0F00F18BF9E6B01F47041B1F537
:102A3000405FF5D8EBE71E6890F81FC0C18941EAF6
:102A40000C4141F0C0515963D96A11F0805F1BD12C
:102A500011F0F00FF8D0996BF6E700BF0888FF1F60
:102A6000A45E0100745E0100006CDC020C88FF1F94
:102A700080E100E084E100E088E100E001401F0027
:102A800000001F8000C00240C3F82C801E60D96A7D
:102A900011F0F00F04D0996BD96A11F0F00FFAD150
:102AA0000135002C7FF461AF002A79DD90F8201009
:102AB000090441F0004141F02A015963D96A11F03B
:102AC000F00F18BF9C6B01F47041B1F5405FF5D871
:102AD000C47FC2EB0B0189B241EA044141F01041CD
:102AE0005963D96A11F0F00F18BF9C6B01F4704163
:102AF000B1F5405FF5D8C47F1FFA8BF141EA04417C
:102B000041F010415963D96A11F0F00F18BF9C6B66
:102B100001F47041B1F5405FF5D890F82010090438
:102B200041F0004141F02C015963D96A11F0F00FD6
:102B300018BF9C6B01F47041B1F5405FF5D8013AC4
:102B400011D0C47FC18941EA044141F01041596369
:102B5000D96A11F0F00F18BF9C6B01F47041B1F508
:102B6000405FF5D8EBE71C68C57FC18941EA0541A4
:102B700041F0C0515963D96A11F0805F04D111F05E
:102B8000F00FF8D0996BF6E7C3F82C801C60D96A77
:102B900011F0F00F04D0996BD96A11F0F00FFAD14F
:102BA00009F10109D1457FF4AAAE0F4BDB7AC3B11D
:102BB00013F0010F03D00C4B9A690C4B1A600A4BAF
:102BC000DB7A13F0020F03D0074BDA69084B1A6067
:102BD000054BDB7A13F0040F03D0034B1A6A054B45
:102BE0001A6003B0BDE8F08F0C88FF1F00E100E021
:102BF00004E100E008E100E02DE9F04F87B0D0F8F3
:102C000018A09AF80E308B4209D89AF80F209142FA
:102C100005D8C91A9AF8123001FB03F113E09AF8AB
:102C200010209142C0F003819AF81140A14200F2B5
:102C3000FE809AF80F400134E31A1944891A9AF871
:102C4000123001FB03F104909AF81220DAF8000028
:102C5000FEF79CFADAF808300344039303220021BC
:102C60001846FEF793FA002840F0E1809AF81350D6
:102C70002A460321DDF80C804046FEF787FA044619
:102C800003359AF814703A4629464046FEF77EFA14
:102C900006463D449AF815703A4629464046FEF7E6
:102CA00075FA7A1E01239340034204D00123BB40EE
:102CB000C31A059300E00590DDF814B03D449AF87E
:102CC00016703A4629460398FEF760FA7A1E0123E9
:102CD000934003421DBF4FF0010808FA07F8C8EB04
:102CE000000880463D449AF817703A4629460398F2
:102CF000FEF74CFA049BB3F90A30002B02DA0023EA
:102D0000049A5381049BB3F90A3013EB0B0905D5E0
:102D1000059A9B1A049A53814FF0000904EB0903AA
:102D20000499B1F90620934214DD0B7D002B7ED06F
:102D3000BBF1000F02DB00234B8103E0059B5B42EC
:102D4000049A53819AF8182004998B8913448B8133
:102D50004FF000090499B1F90C30B1F908209A42FA
:102D600065DD4A89104448819AF8192013449B1B59
:102D7000C8EB03080596002E59D02F444FF0010AE6
:102D800002E0059B002B52D07E1CFB08039AD25C0C
:102D9000FB4303F0070342FA03F313F0010F1FD1C3
:102DA0000027E51B202D28BF20252A463146039801
:102DB000FEF7ECF9CDF804A0CDF8008009EB07038D
:102DC0002A4601460498FFF72FFD2E442F44BC42AB
:102DD000E7D808F10108059B013B05933746D0E78A
:102DE000032231460398FEF7D1F900F1020B0437B4
:102DF0000026A51B202D28BF20252A4639460398EA
:102E0000FEF7C4F9CDF804B0CDF8008009EB060355
:102E10002A4601460498FFF707FD2F442E44B4428A
:102E2000E7D8D844059BCBEB03030593A9E707B08C
:102E3000BDE8F08F10B584B0044683695BB10A2900
:102E400006D11A7E8389134483810023438136E0AF
:102E5000FFF7D2FE33E00A2907D1827C838903EB96
:102E6000C20383810023438129E00D2927D0B0F9D3
:102E70000C20B0F90A00A37C0293238A0193E38912
:102E800000930B4601462046FFF746FAA27C91B21A
:102E900001EB4100638903EB40031BB26381207D9A
:102EA00068B1B4F90600A2EB820200EB4202934241
:102EB00005DDA38903EBC101A1810023638101200A
:102EC00004B010BD002906DBB0F90630994203DBDF
:102ED000591E09B200E000214181002A06DBB0F949
:102EE00008309A4203DB5A1E12B200E000228281AF
:102EF000704700BF0182C181704700BF024B1B6851
:102F000001221A70704700BF8899FF1F41708270BC
:102F10004FF00042C26000228280C2800281012202
:102F20000270704710B504460E4800F023F80121E6
:102F3000607805F00DFE0121607805F0D7FDA078DE
:102F4000FF280DD0002105F003FEA07822284FF0C5
:102F50000202054928BFFF2005F03AFE034B1C6022
:102F6000012010BD0C88FF1FFD2E00008899FF1F57
:102F7000704700BF10B441680A6814684B68234367
:102F800013600368184A1A600368184ADA60036815
:102F900002F180421A610368154A1A604468427A55
:102FA000144BA11891F8241003EBC10149680A32AF
:102FB00054F822200A604268047A1119097E03EB52
:102FC000C101496802EB8402D2690A604268817AD1
:102FD000501890F8300003EBC0035B6802EB8102ED
:102FE000526B1A6010BC704701401F00011000387E
:102FF00000001F801063010010B4446894F83C3056
:103000008B4207D004F13C02012312F8010F8842E1
:1030100005D100E00023234493F86C0003E0013362
:10302000092BF2D1002010BC704700BF70B50446D8
:103030001546FFF7E1FF68B1064629462046FFF72F
:10304000DBFF034640B1334013F0FF0F0CBF0120FC
:10305000002070BD002070BD002070BD30B44568F8
:1030600095F83C308B4207D005F13C02012312F861
:10307000014F8C420FD100E000230A4A02EBC1014C
:103080004A6803F1120155F8211011604268134497
:1030900093F86C0003E00133092BE8D1002030BC29
:1030A000704700BF106301004268437A134493F8ED
:1030B00024308B4225D010B492F824408C4206D0A4
:1030C00092F825408C4208BF012101D018E0002170
:1030D000146824685268144211D00A4A02EBC303F0
:1030E0005B6800241C6043685C1894F8244002EB81
:1030F000C402526801F10A0453F82430136041728B
:1031000010BC7047106301004268037A13441B7EB1
:103110008B4222D010B4147E8C4205D0547E8C4257
:1031200008BF012101D017E000211468246852680B
:10313000144210D0094A02EBC3035B6800241C60F0
:1031400043685C18247E02EBC40252688C1D03EBBA
:1031500084035B681360017210BC70471063010048
:103160004268837A134493F830308B4226D010B4EF
:1031700092F830408C4206D092F831408C4208BF21
:10318000012101D019E0002114682468526814421A
:1031900012D00B4A02EBC3035B6800241C60436837
:1031A0005C1894F8304002EBC402526801F10C0440
:1031B00003EB84035B681360817210BC704700BF2F
:1031C000106301004B68436000230381704700BF18
:1031D00070B40139002528462E4611F8013FBBB1D5
:1031E000A3F13004E4B2092C08D800EB8000303B96
:1031F00003EB400398B2FF28EFD90EE02E2B0ED13F
:10320000032D0ED06B1C15442871DDB23046E4E767
:10321000032D08D1D071012006E0002004E0002039
:1032200002E0002000E0002070BC7047024B034A1F
:103230001A6000225A6070478C99FF1F28640100B1
:103240002DE9F04182B00C463E4B1B680093009B79
:10325000038100F10C07022200F10801384600F05A
:10326000D5FD02AD012325F8023D0222294638464C
:1032700000F0CCFD4FF48073ADF8063002222946F1
:10328000384600F0C3FD0023ADF80630022229467F
:10329000384600F0BBFD02222946384600F0B6FD54
:1032A00002222946384600F0B1FD23786BB326464A
:1032B0004FF0010801E0144626462378DBB12E2B9F
:1032C00002D11CE02E2B1AD014F8013F002BF9D1AB
:1032D00011E08DF8055042460DF10501384600F029
:1032E00095FD2A463146384600F090FD621C237851
:1032F000002BE0D109E0A51B002DEADC05E0A51BB1
:10330000002DD8BF0134D7DDE3E702A9002301F87F
:10331000033D0122384600F079FD4FF4807502AC80
:1033200024F8025D02222146384600F06FFDADF818
:10333000065002222146384600F068FD012002B006
:10334000BDE8F081109AFF1F2DE9F04F89B081464A
:103350000F469246994B1B680293029E00F10C04A3
:10336000964D4FF03208A346204600F08DFD002810
:103370000ADC2B680393039B9B1BBB4200F20C816E
:10338000404605F0C9FCEEE7D9F80420D9F8203012
:103390009A4240F00481B9F82430352B40F0028184
:1033A000204600F0B9FC0B2840F3FF800C2205A951
:1033B000204600F051FDBDF81620130A43EA02230F
:1033C0001BB29AB2ADF81220B9F80800BDF814107B
:1033D000884201D1002B05DB584600F0ABFC4FF6CC
:1033E000FC70E8E040F20F231A4205D0204600F0BE
:1033F000A1FC4FF6FB70DEE0BDF81A40230A43EA59
:103400000424A4B254B1BDF8182013029BB253EAAD
:10341000122300F0CD800025012605E0584600F07B
:1034200089FC4FF6FA70C6E032460DF106015846A7
:1034300000F012FD9DF806307BB1013B8DF806309F
:10344000584600F0EFFC9DF80620531EDBB28DF8C5
:103450000630002AF4D1002BE6D1584600F0E2FCF9
:10346000584600F0DFFC584600F0DCFC584600F0FF
:10347000D9FC0135ADB2BDF8182013029BB243EA66
:1034800012239D42D0DB93E032460DF103015846F2
:1034900000F0E2FC9DF8033013F0C00F0FD1BBB178
:1034A000013B8DF80330584600F0BCFC9DF803202A
:1034B000531EDBB28DF80330002AF4D106E05846E3
:1034C00000F0B0FC00238DF8033001E0002BDBD1CD
:1034D000022201A9584600F0BFFC02220DF10601AC
:1034E000584600F0B9FC584600F09CFC584600F0E5
:1034F00099FC584600F096FC584600F093FC0222D6
:103500000DF11201584600F0A7FCBDF8042013028B
:103510009BB243EA1223012B08D0BDF812201302FC
:103520009BB253EA12232CD000271DE0BDF80620E1
:1035300013029BB243EA1223012BEED1BDF81220F5
:1035400013029BB243EA1223042B05D0584600F025
:10355000F1FB4FF6F7702EE004220AEB0201584609
:1035600000F07AFC012026E0584600F05BFC0137B1
:10357000BFB2BDF8122013029BB243EA12239F424E
:10358000F2DB0135ADB2AC427FF47EAF584600F0BD
:10359000D1FB4FF6F6700EE04FF6FF700BE04FF6E2
:1035A000FE7008E04FF6FE7005E04FF6FD7002E099
:1035B0000025012668E709B0BDE8F08F109AFF1FCB
:1035C0002DE9F04184B005460F469046FFF700FE16
:1035D000002837D104466A68294B5B689A4233D089
:1035E00005F10C06274B1B680193019901F00F01AF
:1035F00001F58061304600F0ABFB01283CD1224B45
:1036000002936B680393352202A9304600F0F0FB69
:10361000044698B139462846FFF712FE68B1304695
:1036200000F0EEFB044690B908E0424641F28831D2
:103630002846FFF789FE044600E00024304600F0EB
:103640007BFB19E0012417E06FF0010414E042460F
:1036500041F288312846FFF777FE0446B0F1FF3F7C
:10366000ECD1424641F288312846FFF76DFE044610
:10367000B0F1FF3FD9D0E1E7204604B0BDE8F081CA
:103680008C99FF1F109AFF1F28640100F8B50746A8
:103690000E4614461D4603F0FDFA384BDB7A2BB379
:1036A00072B6364BDB7A13F0010F06D0344A10683D
:1036B0003249CB6803408B611360304BDB7A13F0E7
:1036C000020F06D02F4A10682C490B690340CB61CA
:1036D00013602A4BDB7A13F0040F06D02A4A1068D5
:1036E00026494B6903400B62136062B6234B1B688B
:1036F000DA68B2F1605F0BD0244A1A601F4B1B6876
:103700004FF06052DA604FF0F0421A61204A1A60BE
:1037100006223946092002F03FF90422B1180F2091
:1037200002F03AF90422A918012002F035F9042226
:1037300006991144052002F02FF9104BDB7AC3B132
:1037400013F0010F03D00D4B9A69124B1A600B4B0B
:10375000DB7A13F0020F03D0084BDA690E4B1A60C4
:10376000064BDB7A13F0040F03D0044B1A6A0B4BA1
:103770001A6062680A4B5A60F8BD00BF0C88FF1FD0
:1037800080E100E084E100E088E100E001401F000A
:1037900000001F8000E100E004E100E008E100E03B
:1037A0009499FF1F10B58AB00E4C0294496803919A
:1037B00004945268059206945B6807930894FF236B
:1037C0008DF824308DF825308DF8263000238DF8C3
:1037D000273008AB009306AB04AA02A9FFF756FFF7
:1037E0000AB010BD2864010000B589B04968019194
:1037F000094B0293039104935268059206930123A7
:103800008DF80730019B079306AB04AA02A9FFF7C6
:10381000C9FF09B05DF804FB2864010000B587B05A
:103820004A680192074B02930392049301238DF897
:103830000730019B059304AA02A9FFF7D5FF07B043
:103840005DF804FB2864010010B50446304B0360AA
:10385000002343602F4BDB7A2BB372B62D4BDB7A00
:1038600013F0010F06D02C4A10682A49CB68034098
:103870008B611360274BDB7A13F0020F06D0274AC7
:10388000106824490B690340CB611360214BDB7A3C
:1038900013F0040F06D0224A10681E494B690340FA
:1038A0000B62136062B61B4B1B68DA68B2F1605F93
:1038B0000BD01C4A1A60174B1B684FF06052DA603D
:1038C0004FF0F0421A61184A1A600422A1180F2022
:1038D00002F08CFB0F4BDB7AC3B113F0010F03D066
:1038E0000C4B9A69114B1A600A4BDB7A13F0020FEA
:1038F00003D0084BDA690E4B1A60064BDB7A13F0E3
:10390000040F03D0034B1A6A0A4B1A60204610BDFD
:10391000286401000C88FF1F80E100E084E100E0E2
:1039200088E100E001401F0000001F8000E100E08E
:1039300004E100E008E100E0024B034A1A600022C3
:103940005A6070479499FF1F28640100407B032848
:103950008CBF00200120704781F00100704700BF3C
:103960000846704708B503689B6B984780F00100D4
:10397000C0B208BD10B582B002AB03F8011D0268E9
:10398000546801221946A04702B010BD704700BF1D
:10399000407B4B7B834204D103288CBF0020012055
:1039A00070470020704700BF437B032B19D810B528
:1039B0000446184600F0D2FE182804D80A4BC3402B
:1039C00013F0010F09D11C2809D123689B682046F8
:1039D0009847003018BF012010BD002010BD012005
:1039E00010BD0020704700BF0100100170B592B0FB
:1039F00004460D4616461E4A0392002304938DF892
:103A00001C304FF47A7108918DF8243019490691D1
:103A10000A920B9304218DF8341001920293407B9B
:103A2000032807D800F09AFE10B1607B01F0B6F8C9
:103A3000042363730E4B0E930F4B5B680F930EA919
:103A400003A8FFF7BFFB01AA294603A8FFF7B8FDAB
:103A5000034650B123689B69054A1092029A11925D
:103A6000324610A9204698470346184612B070BD4A
:103A700028640100DC5F01009499FF1F70B50446C3
:103A80000D461646407B032807D800F067FE10B1AC
:103A9000607B01F083F8042363736B68013B13F1CF
:103AA000030F17D80021012000F01CFB60730328CE
:103AB00012D83246291D00F0E5FF0125607B00F099
:103AC0004DFE17280AD01C280AD058B1284605F008
:103AD00023F9F3E7002070BD002070BD012070BD08
:103AE000012070BD002070BD38B5437B032B09D881
:103AF0001446054692B2184601F0BEFA20B90123D9
:103B00002B7138BD002038BD204638BD407B0328CE
:103B100003D808B501F0B2F908BD0020704700BF16
:103B2000407B032804D808B512B201F0A5F808BDFF
:103B30000020704700B583B001220DF10701407BE2
:103B400001F09AF80028CCBF9DF807004FF0FF3035
:103B500003B05DF804FB00BF437B032B09D810B50D
:103B6000044603689B68984730B1607B01F0FEF91A
:103B700010BD4FF0FF3070474FF0FF3010BD00BF59
:103B8000437B032B1ED8F0B583B00446184601F0E2
:103B900005F80D4B1B680093009F01260A4D607BC2
:103BA00000F0DCFD60B1304605F0B6F82B680193FB
:103BB000019BDB1BB3F57A7FF1D3607B00F04AFEFB
:103BC00003B0F0BD704700BF109AFF1F10B582B060
:103BD00002AB03F8011D0268546801221946A04790
:103BE00002B010BD10B50446C188012000F07AFA79
:103BF0002072032806D800F09BFEE188227A024B4F
:103C000023F8121010BD00BF9C99FF1F10B5044689
:103C1000007A03280CD800F0A1FD14280CD01C2831
:103C200006D1207A01F02AF910B9207A00F0B6FF07
:103C300023689B682046984710BD00BF2DE9F047D8
:103C400006468A469046FFF7E1FF0D4D00241FFA15
:103C500088F9E7B235F8023BF2889A4209D1384632
:103C600000F07CFD172804D14A465146384601F041
:103C700003FA0134042CECD14046BDE8F08700BFC4
:103C80009C99FF1F2DE9F04106460F460846FFF7B5
:103C9000BDFF174D00245FFA84F835F8023BFA881F
:103CA0009A4215D1404600F059FD172801D01C2832
:103CB0000ED1404601F0E2F850B1002333714FF4C9
:103CC0007A72B26033730B4B336086F80D800CE070
:103CD0000134042CDFD1002333714FF47A72B260C7
:103CE0003373044B3360042373733046BDE8F081B3
:103CF0009C99FF1F805F010008B503681B6B984704
:103D000008BD00BF024A02604A694260704700BFB6
:103D100028640100008B7047C08B704710B582B0DB
:103D200002AB03F8011D0268546801221946A0473E
:103D300002B010BD704700BF037F032B07D810B53A
:103D40000446184600F086FD0423237710BD704713
:103D500038B504460D46007F032801D800F07AFDEF
:103D60002946022000F0BEF92077032804D8E58117
:103D70000023E383012038BD002038BD70B592B028
:103D800005460C461646174A0392002304938DF805
:103D90001C304FF47A7108918DF824301249069145
:103DA0000A920B9304218DF83410019202930E9223
:103DB0000E4B5B680F930EA903A8FFF703FA01AA45
:103DC000214603A8FFF7FCFB012809D12B681B6AD9
:103DD000044A1092029A1192324610A92846984736
:103DE00012B070BD28640100DC5F01009499FF1FD0
:103DF00008B5002343830431007F01F073FB08BD45
:103E000008B5007F01F008FC08BD00BF10B50446EE
:103E100093B20A46418B007F01F0E6FA638B0344BC
:103E2000638310BDC38B83B110B582B004460122F9
:103E30000DF10701007F00F01FFF002808DDE38B74
:103E4000013BE3839DF8070004E04FF0FF3070472B
:103E50004FF0FF3002B010BDC38B73B110B50446F4
:103E6000934294BF1AB212B2007F00F005FF0028FF
:103E700006DDE38B1B1AE38310BD4FF0FF30704764
:103E80004FF0FF3010BD00BF10B582B00446C38BA9
:103E900033B12368DB6820469847E38B002BF8D1C9
:103EA000207F00F0EBFF10B308226946207F00F06E
:103EB000E3FE00281CDD9DF8003023759DF80130DD
:103EC00063759DF80230A3759DF80330E3759DF886
:103ED00004209DF8053003EB022323839DF80600A0
:103EE0009DF8073003EB002080B2E08300E0002063
:103EF00002B010BD08B5037F032B05D8C28B32B1C9
:103F0000184601F033F808BD4FF0FF3008BD4FF000
:103F1000FF3008BD70B582B004460E461546007FDE
:103F2000032801D800F096FC094B009373680193B5
:103F30002A466946822000F085FA2077032804D8B3
:103F4000E5810023E383012000E0002002B070BD82
:103F5000286401002DE9F04383B007460C469046E3
:103F60001E460502274B188824302844022201A946
:103F700080B202F03BF89DF804109DF8053043EA4A
:103F8000012121448CB2204BB3F8009004EA0909C6
:103F90001E4B33F81700484480B21D4B1B78372B5B
:103FA00005D01C4B1B8809EB06029A4204DC324602
:103FB000414601F0F1FC11E0C9EB03091FFA89F950
:103FC0004A46414601F0E8FCC9EB060292B208EB12
:103FD00009010E4B33F8170001F0DEFC3444A4B2A3
:103FE00023128DF804308DF80540064B18882430D4
:103FF0002844022201A980B201F0CEFC03B0BDE842
:10400000F08300BFD099FF1FDC99FF1FD499FF1FD9
:10401000CE99FF1FCC99FF1F2DE9F04182B0804659
:104020000502154B188820302844022201A980B2CD
:1040300001F0DCFF9DF804409DF8053043EA0424BC
:104040000D4F022600E004463888203028443246CE
:1040500001A980B201F0CAFF9DF804009DF8053067
:1040600043EA00208442EED1044B03EBC808A8F8D1
:10407000040002B0BDE8F081D099FF1FAC99FF1F8A
:104080002DE9F04182B080460502144B1888263095
:104090002844022201A980B201F0A8FF9DF8044043
:1040A0009DF8053043EA04240C4F022600E0044644
:1040B000388826302844324601A980B201F096FFA4
:1040C0009DF804009DF8053043EA00208442EED1BB
:1040D000034B23F8380002B0BDE8F081D099FF1FF0
:1040E000AC99FF1F2DE9F04F87B083468A460B46F7
:1040F00002468449844805F099FD844BDB7A2BB352
:1041000072B6824BDB7A13F0010F06D0804A10683A
:104110007E49CB6803408B6113607C4BDB7A13F0E4
:10412000020F06D07B4A106878490B690340CB61C7
:104130001360764BDB7A13F0040F06D0764A1068D2
:1041400072494B6903400B62136062B66F4B1B6888
:10415000DA68B2F1605F0BD0704A1A606B4B1B6873
:104160004FF06052DA604FF0F0421A616C4A1A6008
:1041700005AF3E460024DFF8D4914FF00108E5B2C8
:104180000194B9F80000033000EB0420424604A972
:1041900080B201F02BFF9DF8103006F8013B2BB9DF
:1041A000019A6049584805F041FD6AE00134042C49
:1041B000E5D15D49544805F039FD9DF814401D2CAA
:1041C00007D84FF03453E34013F0010F4DD10125D0
:1041D00000E001254FF0345217F8013F1D2B04D8A1
:1041E00022FA03F313F0010F42D10135EDB2042D91
:1041F000F2D14E49444805F019FD1C2C37D09DF8EA
:1042000015301C2B0AD09DF816301C2B08D09DF8B9
:1042100017301C2B08BF03252AD003E0012527E017
:10422000022525E0394BDB7AC3B113F0010F03D02F
:10423000364B9A693E4B1A60344BDB7A13F0020F0F
:1042400003D0324BDA693B4B1A60304BDB7A13F008
:10425000040F03D02D4B1A6A374B1A6004223749DA
:10426000294805F0E3FC0420D6E0002500E0002505
:104270002A463349244805F0D9FC1021284602F08B
:104280000FFFA8462A462F491F4805F0CFFC002201
:104290002D4B23F815204FF47A63013BFDD12E02FC
:1042A0002A4C2088304406A901F809BD012280B2B9
:1042B00001F072FB20880230304406A9FF2301F888
:1042C0000A3D012280B201F067FBBAF1000F0ED067
:1042D0004FEA2A238DF810308DF811A02088043081
:1042E0003044022204A980B201F056FB46E0184B8C
:1042F0001B8801339BB2B3F5404F2BD3144A138074
:104300002CE000BF5C600100149BFF1F0C88FF1FA6
:1043100080E100E084E100E088E100E001401F006E
:1043200000001F8088600100A8600100C4600100D7
:1043300000E100E004E100E008E100E0E4600100E9
:1043400000610100206101009C99FF1FD099FF1FAF
:104350003088FF1F4FF44042314B1A80304B1B888E
:104360001A128DF810208DF811302E4B1888043059
:104370003044022204A980B201F00EFB012128463C
:1043800002F08EFE284C002724F83870DFF8949055
:10439000B9F8000028303044022204A980B201F0AC
:1043A00025FE9DF810209DF8113043EA022304EB0E
:1043B000C8046380A771A780B9F8000030440122C7
:1043C00004A980B201F012FE63889DF810201749FD
:1043D000174805F02BFC174BDB7AD3B113F0010F14
:1043E00003D0144B9A69144B1A60124BDB7A13F00A
:1043F000020F03D00F4BDA69104B1A600D4BDB7ABA
:1044000013F0040F07D00B4B1A6A0D4B1A602846A5
:1044100002E0284600E0284607B0BDE8F08F00BF64
:104420003088FF1FD099FF1FAC99FF1F3C6101002E
:10443000149BFF1F0C88FF1F00E100E004E100E077
:1044400008E100E02DE9F04F89B0019089469246DD
:10445000B04BDB7A2BB372B6AE4BDB7A13F0010FA5
:1044600006D0AD4A1068AB49CB6803408B6113603E
:10447000A84BDB7A13F0020F06D0A84A1068A549B2
:104480000B690340CB611360A24BDB7A13F0040F7E
:1044900006D0A34A10689F494B6903400B62136022
:1044A00062B69C4B1B68DA68B2F1605F0BD09D4A24
:1044B0001A60984B1B684FF06052DA604FF0F04280
:1044C0001A61994A1A6007AF3E460024DFF86C82F1
:1044D0004FF0010B04E09DF81C201D2A1DD814E0AC
:1044E000E5B2B8F80000033000EB04205A4604A9F6
:1044F00080B201F07BFD9DF8103006F8013B002BE7
:1045000041D00134042CEBD1E5E74FF03453D340D4
:1045100013F0010F32D1012500E001254FF0345294
:1045200017F8013F1D2B04D822FA03F313F0010FF3
:1045300025D10135EDB2042DF2D1764BDB7A002B7B
:1045400000F0E58013F0010F03D0724B9A69774BAE
:104550001A60704BDB7A13F0020F03D06D4BDA69EF
:10456000734B1A606B4BDB7A13F0040F00F0EE8094
:10457000684B1A6A6F4B1A600420ECE0002510218A
:10458000284602F08DFD2F4600226B4B23F81520A4
:104590004FF47A63013BFDD12C02684E30882044F1
:1045A00008A99DF8043001F8113D012280B201F004
:1045B000F3F930880230204408A9FF2301F8123DA6
:1045C000012280B201F0E8F9BAF1000F0ED04FEAF3
:1045D0002A238DF810308DF811A030880430204443
:1045E000022204A980B201F0D7F91DE0544B1B88C8
:1045F00001339BB2B3F5404F02D3514A138003E01D
:104600004FF440424E4B1A804D4B1B881A128DF8C6
:1046100010208DF81130494B1888043020440222B4
:1046200004A980B201F0B8F9464B1868059099F8D2
:10463000053003F07F038DF8173099F806308DF8B8
:10464000183099F807308DF81930DFF8F0B0BBF862
:1046500000000C302044042209EB020180B201F07A
:104660009BF94FEA2A238DF810308DF811A0BBF882
:10467000000010302044022204A980B201F08CF91D
:10468000BBF8000006302044062205A980B201F0E4
:1046900083F90121284602F003FD2B4E4FF000085C
:1046A00026F83780BBF8000028302044022204A9F5
:1046B00080B201F09BFC9DF810209DF8113043EA78
:1046C000022206EBC7035A8083F80680A3F8048011
:1046D000104BDB7A002B3BD013F0010F03D00D4BB6
:1046E0009A69124B1A600B4BDB7A13F0020F03D05E
:1046F000084BDA690E4B1A60064BDB7A13F0040F95
:1047000028D0044B1A6A0B4B1A60284623E0042079
:1047100021E000BF0C88FF1F80E100E084E100E0A1
:1047200088E100E001401F0000001F8000E100E080
:1047300004E100E008E100E09C99FF1FD099FF1F11
:104740003088FF1F20600100AC99FF1F042002E0A9
:10475000284600E0284609B0BDE8F08F10B582B0C9
:10476000324BDB7A2BB372B6304BDB7A13F0010F8E
:1047700006D02F4A14682D49CB6823408B61136003
:104780002A4BDB7A13F0020F06D02A4A1468274915
:104790000B692340CB611360244BDB7A13F0040FC9
:1047A00006D0254A146821494B6923400B621360E7
:1047B00062B61E4B1B68DA68B2F1605F0BD01F4A0D
:1047C0001A601A4B1B684FF06052DA604FF0F042EB
:1047D0001A611B4A1A601B4B1B88033303EB002032
:1047E00001220DF1070180B201F000FC9DF80700E5
:1047F0000E4BDB7AC3B113F0010F03D00B4B9A6958
:10480000114B1A60094BDB7A13F0020F03D0074BF0
:10481000DA690E4B1A60054BDB7A13F0040F03D0F4
:10482000024B1A6A0A4B1A6002B010BD0C88FF1FB7
:1048300080E100E084E100E088E100E001401F0049
:1048400000001F80D099FF1F00E100E004E100E0BC
:1048500008E100E010B52D4BDB7A2BB372B62B4B81
:10486000DB7A13F0010F06D0294A14682749CB6878
:1048700023408B611360254BDB7A13F0020F06D0C7
:10488000244A146821490B692340CB6113601F4BF4
:10489000DB7A13F0040F06D01F4A14681B494B69DA
:1048A00023400B62136062B6184B1B68DA68B2F1E2
:1048B000605F0BD0194A1A60144B1B684FF06052AE
:1048C000DA604FF0F0421A61154A1A60102102F0C6
:1048D000E7FB0E4BDB7AC3B113F0010F03D00B4B98
:1048E0009A69104B1A60094BDB7A13F0020F03D060
:1048F000064BDA690C4B1A60044BDB7A13F0040F99
:1049000003D0024B1A6A094B1A6010BD0C88FF1FB6
:1049100080E100E084E100E088E100E001401F0068
:1049200000001F8000E100E004E100E008E100E099
:1049300010B582B00446494BDB7A2BB372B6474BB5
:10494000DB7A13F0010F06D0454A10684349CB6863
:1049500003408B611360414BDB7A13F0020F06D0EA
:10496000404A10683D490B690340CB6113603B4BE3
:10497000DB7A13F0040F06D03B4A106837494B69C5
:1049800003400B62136062B6344B1B68DA68B2F105
:10499000605F0BD0354A1A60304B1B684FF0605295
:1049A000DA604FF0F0421A61314A1A60314B1888D0
:1049B000033000EB042001220DF1070180B201F069
:1049C00015FB9DF80730132B20D0244BD87A0028F4
:1049D00041D010F0010F02D09A69274B1A601F4B8B
:1049E000DB7A13F0020F03D01C4BDA69234B1A60F9
:1049F0001A4BDB7A03F0040303F0FF00002B2AD0EC
:104A0000164B1A6A1E4B1A60002024E00221204631
:104A100002F046FB114BDB7AD3B113F0010F03D048
:104A20000E4B9A69144B1A600C4BDB7A13F0020F91
:104A300003D00A4BDA69114B1A60084BDB7A13F08A
:104A4000040F07D0054B1A6A0D4B1A60012002E0D3
:104A5000012000E0012002B010BD00BF0C88FF1F44
:104A600080E100E084E100E088E100E001401F0017
:104A700000001F80D099FF1F00E100E004E100E08A
:104A800008E100E0F0B583B004461546394BDB7A07
:104A90002BB372B6374BDB7A13F0010F06D0364AD0
:104AA00016683448C368334083611360314BDB7A46
:104AB00013F0020F06D0314A16682E4803693340BE
:104AC000C36113602B4BDB7A13F0040F06D02C4A22
:104AD00016682848436933400362136062B6254B69
:104AE0001B68DA68B2F1605F0BD0264A1A60214B6E
:104AF0001B684FF06052DA604FF0F0421A61224AB0
:104B00001A602602214F38880C303044042280B2CB
:104B100000F042FF2B128DF804308DF805503888D4
:104B200010303044022201A980B200F035FF042188
:104B3000204602F0B5FA0F4BDB7AC3B113F0010F38
:104B400003D00C4B9A69124B1A600A4BDB7A13F0B4
:104B5000020F03D0074BDA690E4B1A60054BDB7A64
:104B600013F0040F03D0034B1A6A0B4B1A6003B007
:104B7000F0BD00BF0C88FF1F80E100E084E100E091
:104B800088E100E001401F0000001F80D099FF1F56
:104B900000E100E004E100E008E100E010B52D4B89
:104BA000DB7A2BB372B62B4BDB7A13F0010F06D0F6
:104BB000294A14682749CB6823408B611360254B31
:104BC000DB7A13F0020F06D0244A146821490B69DE
:104BD0002340CB6113601F4BDB7A13F0040F06D028
:104BE0001F4A14681B494B6923400B62136062B66D
:104BF000184B1B68DA68B2F1605F0BD0194A1A6073
:104C0000144B1B684FF06052DA604FF0F0421A61AB
:104C1000154A1A60082102F043FA0E4BDB7AC3B141
:104C200013F0010F03D00B4B9A69104B1A60094B1C
:104C3000DB7A13F0020F03D0064BDA690C4B1A60D3
:104C4000044BDB7A13F0040F03D0024B1A6A094BB2
:104C50001A6010BD0C88FF1F80E100E084E100E0D5
:104C600088E100E001401F0000001F8000E100E03B
:104C700004E100E008E100E02DE9F04383B00446E0
:104C8000894616466E4B33F830206E4BDB7A2BB3D9
:104C900072B66C4BDB7A13F0010F06D06A490D68CF
:104CA0006848C3682B4083610B60664BDB7A13F066
:104CB000020F06D065490D68624803692B40C36145
:104CC0000B60604BDB7A13F0040F06D060490D686F
:104CD0005C4843692B4003620B6062B6594B1B680A
:104CE000D968B1F1605F0BD05A491960554B1B6808
:104CF0004FF06051D9604FF0F04119615649196089
:104D00001546B24203DA2046FFF7BAF90546ADB9B7
:104D1000524B1888033000EB0420012201A980B215
:104D200001F064F99DF80430142B69D0002B67D092
:104D3000B3F11C0518BF4FF0FF3561E0B542A8BFC5
:104D400035463F4B03EBC4035E88AFB2444BB3F828
:104D5000008006EA0808434B33F81400404480B250
:104D6000414B1B78372B05D0404B1B8818FA85F236
:104D70009A4204DC3A46494601F038F911E0C8EBA2
:104D800003081FFA88F84246494601F02FF9C8EB9C
:104D9000070292B209EB0801324B33F8140001F01C
:104DA00025F9F3199BB2264901EBC400438031F881
:104DB0003420D21B92B221F834208179394489B24F
:104DC000F92900D8C2B91E4A02EBC4020021917130
:104DD0001A128DF804208DF80530204B18882830E1
:104DE00000EB0420022201A980B200F0D5FD402191
:104DF000204602F055F903E0114B03EBC404A17106
:104E0000104BDB7AC3B113F0010F03D00D4B9A693D
:104E1000174B1A600B4BDB7A13F0020F03D0094BD0
:104E2000DA69144B1A60074BDB7A13F0040F03D0D6
:104E3000044B1A6A104B1A60284603B0BDE8F08391
:104E4000AC99FF1F0C88FF1F80E100E084E100E0C7
:104E500088E100E001401F0000001F80D099FF1F83
:104E6000DC99FF1FE099FF1FCE99FF1FCC99FF1F10
:104E700000E100E004E100E008E100E00346314A1F
:104E800032F8300000285BD110B52F4AD27A2AB30D
:104E900072B62D4AD27A12F0010F06D02B490C6857
:104EA0002948C268224082610A60274AD27A12F0F9
:104EB000020F06D026490C68234802692240C261CD
:104EC0000A60214AD27A12F0040F06D021490C68F8
:104ED0001D484269224002620A6062B61A4A12689C
:104EE000D168B1F1605F0BD01B491160164A12689E
:104EF0004FF06051D1604FF0F041116117491160DE
:104F00001846FFF7BDF8104BDB7AC3B113F0010F61
:104F100003D00D4B9A69124B1A600B4BDB7A13F0DE
:104F2000020F03D0084BDA690E4B1A60064BDB7A8E
:104F300013F0040F03D0044B1A6A0B4B1A6010BD18
:104F4000704700BFAC99FF1F0C88FF1F80E100E095
:104F500084E100E088E100E001401F0000001F80C4
:104F600000E100E004E100E008E100E010B582B0FB
:104F7000354BDB7A2BB372B6334BDB7A13F0010F70
:104F800006D0324A14683049CB6823408B611360E5
:104F90002D4BDB7A13F0020F06D02D4A14682A49F4
:104FA0000B692340CB611360274BDB7A13F0040FAE
:104FB00006D0284A146824494B6923400B621360C9
:104FC00062B6214B1B68DA68B2F1605F0BD0224AEF
:104FD0001A601D4B1B684FF06052DA604FF0F042D0
:104FE0001A611E4A1A601E4B03EBC0035A881D4B00
:104FF0001B881A401C4B33F81030D01801220DF1D9
:10500000070180B200F0F2FF0F4BDB7AC3B113F05F
:10501000010F03D00C4B9A69144B1A600A4BDB7AD0
:1050200013F0020F03D0084BDA69114B1A60064BDC
:10503000DB7A13F0040F03D0034B1A6A0D4B1A608E
:105040009DF8070002B010BD0C88FF1F80E100E052
:1050500084E100E088E100E001401F0000001F80C3
:10506000AC99FF1FDC99FF1FE099FF1F00E100E0F2
:1050700004E100E008E100E02DE9F04F85B00646CC
:1050800001917F4B1D88954228BF15464FEA0028A5
:105090007C4CDFF814B2DFF80CA2DFF80492E37A5C
:1050A00013B372B6E37A13F0010F06D0D9F80020DB
:1050B000E3681340A361C9F80030E37A13F0020FEC
:1050C00006D0DAF8002023691340E361CAF8003003
:1050D000E37A13F0040F06D0DBF800206369134075
:1050E0002362CBF8003062B62368DA68B2F1605F01
:1050F0000AD0654A1A6023684FF06052DA604FF0B8
:10510000F0421A61614A1A603046FEF785FF074691
:105110005F4B18880330404401220DF10F0180B22B
:1051200000F064FF9DF80F30E27A9AB112F0010F9F
:1051300002D0A169574A1160E27A12F0020F02D040
:10514000E26955490A60E27A12F0040F02D0226A3D
:1051500052490A60172B01D01C2B04D104F0DCFE4D
:10516000AF429CD300E00025464BDB7A2BB372B6EE
:10517000444BDB7A13F0010F06D0494A10684149CD
:10518000CB6803408B6113603E4BDB7A13F0020F58
:1051900006D0444A10683B490B690340CB61136059
:1051A000384BDB7A13F0040F06D03F4A10683549BC
:1051B0004B6903400B62136062B6324B1B68DA68BE
:1051C000B2F1605F0BD0304A1A602E4B1B684FF073
:1051D0006052DA604FF0F0421A612C4A1A602B4696
:1051E000019A00213046FEF7B5FE2021304601F03D
:1051F00057FF274C294EDFF8A0B0DFF8ACA0DFF84E
:10520000A490274F20880230404401220DF10F0165
:1052100080B200F0EBFE9DF80F3013F0100F40F05D
:10522000A08020880330404401220DF10F0180B29C
:1052300000F0DCFE9DF80F30002B37D1114BDB7AEC
:10524000002B00F0B88013F0010F03D00D4B9A69CA
:10525000104B1A600B4BDB7A13F0020F03D0094B93
:10526000DA690D4B1A60074BDB7A13F0040F00F07C
:10527000A480044B1A6A094B1A600020A2E000BF08
:10528000CC99FF1F0C88FF1F01401F0000001F80EA
:10529000D099FF1F00E100E004E100E008E100E038
:1052A00080E100E084E100E088E100E0474BDB7A48
:1052B000BBB113F0010F03D0444B9A69444B1A6001
:1052C000424BDB7A13F0020F03D0404BDB69CBF883
:1052D00000303E4BDB7A13F0040F02D03B4B1B6ACD
:1052E000336004F019FE394BDB7A33B372B6374BB7
:1052F000DB7A13F0010F05D03968344AD3680B40CC
:1053000093613B60314BDB7A13F0020F07D0D9F881
:1053100000102E4A13690B40D361C9F800302B4BA3
:10532000DB7A13F0040F07D0DAF80010274A53692C
:105330000B401362CAF8003062B6244B1B68DA686F
:10534000B2F1605F3FF45EAF224A1A601F4B1B68E8
:105350004FF06052DA604FF0F0421A611E4A1A6054
:1053600050E71E4B18880230404404A9102301F86E
:10537000013D012280B200F00FFB144BDB7AF3B148
:1053800013F0010F03D0114B9A69114B1A600F4BA8
:10539000DB7A13F0020F03D00C4BDA69104B1A6062
:1053A0000A4BDB7A13F0040F0BD0084B1A6A0D4B33
:1053B0001A60284606E0002004E0002002E02846AB
:1053C00000E0284605B0BDE8F08F00BF0C88FF1F45
:1053D00000E100E001401F0000001F80D099FF1F86
:1053E00004E100E008E100E0F8B505460E46174686
:1053F0001C46334BDB7A2BB372B6314BDB7A13F09E
:10540000010F06D02F4A10682D49CB6803408B61ED
:1054100013602B4BDB7A13F0020F06D02A4A106878
:1054200027490B690340CB611360254BDB7A13F0EE
:10543000040F06D0254A106821494B6903400B62CE
:10544000136062B61E4B1B68DA68B2F1605F0BD066
:105450001F4A1A601A4B1B684FF06052DA604FF017
:10546000F0421A611B4A1A602846FEF7D5FDA04299
:1054700028BF204684B223463A4631462846FEF7E6
:1054800069FD0F4BDB7AC3B113F0010F03D00C4B56
:105490009A69114B1A600A4BDB7A13F0020F03D0A2
:1054A000074BDA690D4B1A60054BDB7A13F0040FDA
:1054B00003D0034B1A6A0A4B1A602046F8BD00BF9E
:1054C0000C88FF1F80E100E084E100E088E100E05B
:1054D00001401F0000001F8000E100E004E100E047
:1054E00008E100E00B7833B94B7823B98B7813B916
:1054F000CB78002B73D0002A73D070B582B03C4BB0
:10550000DB7A2BB372B63A4BDB7A13F0010F06D07D
:10551000384C2668364DEB683340AB612360344B22
:10552000DB7A13F0020F06D0334C2668304D2B691E
:105530003340EB6123602E4BDB7A13F0040F06D06F
:105540002E4C26682A4D6B6933402B62236062B66D
:10555000274B1B68DC68B4F1605F0BD0284C1C60E3
:10556000234B1B684FF06054DC604FF0F0441C612B
:10557000244C1C6014460502234E30880C3028440D
:10558000042280B200F008FA23128DF804308DF85E
:105590000540308810302844022201A980B200F072
:1055A000FBF9134BDB7AF3B113F0010F03D0104B6F
:1055B0009A69164B1A600E4BDB7A13F0020F03D078
:1055C0000B4BDA69124B1A60094BDB7A13F0040FAC
:1055D0000BD0074B1A6A0F4B1A60012006E000201F
:1055E000704700207047012000E0012002B070BD2C
:1055F0000C88FF1F80E100E084E100E088E100E02A
:1056000001401F0000001F80D099FF1F00E100E053
:1056100004E100E008E100E02DE9F04782B0044633
:10562000904BDB7A2BB372B68E4BDB7A13F0010F03
:1056300006D08D4A10688B49CB6803408B6113609C
:10564000884BDB7A13F0020F06D0884A1068854930
:105650000B690340CB611360824BDB7A13F0040FBC
:1056600006D0834A10687F494B6903400B62136080
:1056700062B67C4B1B68DA68B2F1605F0BD07D4A82
:105680001A60784B1B684FF06052DA604FF0F042BE
:105690001A61794A1A602021204601F001FD240296
:1056A000764D774EDFF8E0A1DFF8C491DFF8BC81DA
:1056B0006D4F28880230204401220DF1070180B28D
:1056C00000F094FC9DF8073013F0100F40F0968026
:1056D00028880230204401220DF1070180B200F039
:1056E00085FC9DF8073013F0080F2CD0634B188809
:1056F0000230204402A9182301F8023D012280B2A1
:1057000000F04AF9574BDB7A002B00F0A18013F030
:10571000010F03D0534B9A695A4B1A60514BDB7AF5
:1057200013F0020F03D04F4BDA69574B1A604D4B01
:10573000DB7A13F0040F00F08D804A4B1A6A504B4D
:105740001A6000208BE0474BDB7ABBB113F0010FEE
:1057500003D0444B9A694B4B1A60424BDB7A13F0EF
:10576000020F03D03F4BDB69CAF800303D4BDB7AB8
:1057700013F0040F02D03B4B1B6A336004F0CCFBE8
:10578000384BDB7A33B372B6364BDB7A13F0010F4A
:1057900005D03968334AD3680B4093613B60314B85
:1057A000DB7A13F0020F07D0D8F800102D4A1369E6
:1057B0000B40D361C8F800302A4BDB7A13F0040F9A
:1057C00007D0D9F80010274A53690B401362C9F873
:1057D000003062B6234B1B68DA68B2F1605F3FF4B9
:1057E00068AF244A1A601F4B1B684FF06052DA60A2
:1057F0004FF0F0421A61204A1A605AE71F4B18888E
:105800000230204402A9102301F8013D012280B298
:1058100000F0C2F8134BDB7AF3B113F0010F03D0A1
:10582000104B9A69174B1A600E4BDB7A13F0020F7C
:1058300003D00C4BDA69144B1A600A4BDB7A13F075
:10584000040F0BD0074B1A6A0D4B1A60012006E0BB
:10585000002004E0002002E0012000E0012002B06E
:10586000BDE8F0870C88FF1F80E100E084E100E0E4
:1058700088E100E001401F0000001F80D099FF1F59
:1058800008E100E000E100E004E100E000286CD065
:105890002DE9F04385B0471EFFB201370024DFF841
:1058A000F090324DDFF8EC80E6B23046FEF756FF5E
:1058B000222836D8DFE800F0123535353535353554
:1058C0003535353535353535353535351A353522B6
:1058D000353535352A35353535353000244B93E8A7
:1058E00003002860A980090CA97122E0214B93E8EC
:1058F00003002860A980090CA9711AE01E4B93E8E7
:1059000003002860A980090CA97112E01B4B93E8E1
:10591000030085E803000CE098E803002860297183
:1059200007E03046FEF71AFF02464946284607F0D0
:1059300055FD134B188800EB042001220DF10F01D7
:1059400080B200F053FB9DF80F200E4B53F822302D
:1059500000932B4622460C490C4804F067F90134A9
:10596000BC42A1D105B0BDE8F0837047A499FF1FE8
:10597000606101006861010070610100B4610100B3
:10598000D099FF1F286001008C610100149BFF1F4C
:1059900080610100786101002DE9F04FA84B1B7870
:1059A000332B66D1002A00F018830C468D18A54FC2
:1059B000A54BA64E4FF0000C4FF0805E4FF0010853
:1059C00081464FEA202B4BF4704B39784FEA014A5D
:1059D00059B14AF010414BEA01015963D96A01F407
:1059E0007041B1F5405FF9D8CFE2316881F800C06D
:1059F000C3F82CE04BF080515963D96A01F470412F
:105A0000B1F5405FF9D8217841EA092939784FEAA0
:105A1000014A69B11FFA89F949EA0A0A4AF0805134
:105A20005963D96A01F47041B1F5405FF9D810E0CB
:105A3000316881F800C0C3F82CE01FFA89F949F0F9
:105A4000C0515963D96A11F0805FFBD0316881F889
:105A50000080013080B2D96A11F0F00FFBD0996B51
:105A6000D96A11F0F00FFBD0996B0134AC42A7D189
:105A7000B3E2342B40F0A280754C734B1C60714B29
:105A80001B781C0463B144F0104318436E4B5863F9
:105A90001846C36A03F47043B3F5405FF9D878E25F
:105AA0006A4B1B6800241C70674B4FF08054DC620B
:105AB000204358631846C36A03F47043B3F5405F4C
:105AC000F9D86FEA42436FEA53439BB25D480078CE
:105AD000040458B1234343F010435B484363C36A53
