:1000000000800020BD010000D16300009563000066
:100010009563000095630000956300009563000000
:10002000956300009563000095630000D1630000B4
:10003000D163000095630000D16300008563000078
:10004000D1630000D1630000D1630000D1630000E0
:10005000D1630000D1630000D1630000D1630000D0
:10006000D1630000D1630000D1630000D1630000C0
:10007000D1630000D1630000D1630000D1630000B0
:10008000D1630000D1630000D1630000D1630000A0
:10009000D1630000D1630000D1630000D163000090
:1000A0006162000071620000D1630000D163000052
:1000B000D1630000D1630000D1630000D163000070
:1000C000D1630000D1630000D1630000D163000060
:1000D000D1630000D1630000D1630000D163000050
:1000E000D1630000D1630000D1630000D163000040
:1000F000D163000071820000D1630000D989000043
:10010000D16300005D8F0000D1630000D163000067
:10011000D1630000D1630000D1630000D16300000F
:10012000D1630000D1630000D1630000D1630000FF
:10013000D1630000D1630000D1630000D1630000EF
:10014000D1630000D1630000D1630000D1630000DF
:10015000D1630000D1630000D1630000D1630000CF
:10016000D1630000F1690000D1630000D163000099
:10017000D1630000D1630000D1630000D1630000AF
:10018000D1630000D1630000D1630000D16300009F
:10019000D1630000D1630000D1630000D16300008F
:1001A000D1630000D1630000D1630000D16300007F
:1001B000D1630000D1630000D1630000564B4CF2C4
:1001C000205210B51A804DF628121A8000BF00BFC9
:1001D00006F002F9514B4FF010621A60504A9A60D3
:1001E000504ADA60504A136813F4807304D14F49BF
:1001F0000B604FF4A85313604D4B1A78110703D5C9
:100200001A7842F008021A704A4B4B492A221A7097
:100210004A4A4B4B8B4204D252F8040F43F8040B6A
:10022000F8E7484B484900228B4202D243F8042B9E
:10023000FAE74649464A002352F8230041F82300D2
:1002400001336F2BF8D1434B434A802103F8011B44
:100250009342FBD1414B3D4A1A60414B8A221A70AE
:10026000A3F5805324225A70A0221A709A7992071B
:10027000FCD59A79D406FCD43A4A937903F00C035E
:10028000082B384BF9D103221A7140225A719A79FE
:100290009006FCD5334A9179324B4906FBD5324A58
:1002A000324911600221516020221A709A7902F0BD
:1002B0000C020C2AFAD12E4B2E4A1A602E4B4BF60A
:1002C0007F321A6000225A60072243F8042C2B4A1E
:1002D000C3F80C2D62B606F049FA144B1B68DA0716
:1002E00005D5274806F006F9264B274A1A60274B02
:1002F0001B785B0609D5234C234B22689A4204D114
:100300001F4806F0F7F80023236009F0BDFF06F050
:1003100069F807F0D5FAFEE70E200540308004406A
:10032000823F04000100002B10D0034014D0034092
:1003300002D0074000E007405098FF1FA041010095
:100340002087FF1F5098FF1F0C9DFF1F0082FF1F7B
:100350000000000000E400E05FE400E008ED00E0E1
:100360000050064000400640448004400000131145
:1003700004800440C010050014E000E000002020CC
:10038000EB3282591CE00340A5C3945A00F00740A9
:10039000FFFFFFFFFFFFFFFFFFFFFFFFFFFFFFFF6D
:1003A000FFFFFFFFFFFFFFFFFFFFFFFFFFFFFFFF5D
:1003B000FFFFFFFFFFFFFFFFFFFFFFFFFFFFFFFF4D
:1003C000FFFFFFFFFFFFFFFFFFFFFFFFFFFFFFFF3D
:1003D000FFFFFFFFFFFFFFFFFFFFFFFFFFFFFFFF2D
:1003E000FFFFFFFFFFFFFFFFFFFFFFFFFFFFFFFF1D
:1003F000FFFFFFFFFFFFFFFFFFFFFFFFFFFFFFFF0D
:10040000FFFFFFFFFFFFFFFFFFFFFFFFDEF9FFFF23
:1004100010B5054C237833B9044B13B10448AFF33E
:1004200000800123237010BD5098FF1F00000000C2
:100430009C410100084B10B51BB108490848AFF3B7
:1004400000800848036803B910BD074B002BFBD0A0
:10045000BDE81040184700BF000000005498FF1F7F
:100460009C4101005098FF1F0000000030B585B08E
:10047000204B214A1A60C0241C71A8205871012108
:1004800099710A25DD711D4B1A601C7158719971A3
:10049000D9711B4B1A60FF241C715C719C71002286
:1004A000DA71184B5A7046F2A0025A804FF49662E5
:1004B0009A804FF4A062DA804EF280425A814FF463
:1004C00096429A81224608210F4802F01DFD0C2316
:1004D00002930D2301930B2300932346152214212D
:1004E0000A4800F00DFF41F69071094803F012FB35
:1004F00005B030BD7C99FF1F303D0100D498FF1F2F
:10050000F498FF1F7098FF1F5899FF1F2099FF1F35
:10051000E898FF1F70B58AB00221042006F02CF87D
:1005200002210A2006F028F80221082006F024F80B
:100530000221142006F020F80221152006F01CF8F4
:100540000221092006F018F8012006F0F9F801212F
:10055000092006F011F80021092005F0DBFF012039
:1005600006F0EEF80121092005F0D4FF0A2006F07C
:10057000E7F80121162005F0FFFF0021162005F005
:10058000C9FF012006F0DCF80121162005F0C2FFAA
:10059000642006F0D5F8A04C204601F0C1FC0121F2
:1005A000204601F071FB4FF4FC61204601F05CFB3A
:1005B0009A4802F0B5FC9A4B18689A499A4C1A4628
:1005C0009A4E0B7813F0FF0F00F01681237813F08A
:1005D000030F00F01181136835685B1B182B40F284
:1005E0000B819049904C8E4A904E42F20F700B78DE
:1005F00013F0FF0F00F00781237813F0030F00F0D2
:100600000281136835685B1B182B40F2FC80844B19
:100610001B680593059B864D2B60864C23685B68A1
:100620001922854920469847204606F0FBFF834B58
:10063000834A8449204607F00DF82A6882492046FB
:1006400007F008F8814D284604F0ACFA6B682A6878
:10065000E9680191A96800917D49204606F0FAFFFA
:1006600004F070FA7B4B186004F06CFA02467A4989
:10067000204606F0EFFF794D284604F07BFA6B78B0
:100680002A786979039129790291E9780191A97809
:1006900000917349204606F0DDFF724B0693724BC2
:1006A0005B680793714E06AA2946304603F05AF854
:1006B00023685B680A226E4920469847314608A89D
:1006C00003F066F8089B1B68214608A89847204657
:1006D00006F0A8FF042003F0C5FD23685B68102224
:1006E000644920469847204606F09CFF624803F084
:1006F000EFF9042003F0B6FD604D4821284604F0D0
:10070000DFFA284604F064FA284604F07DFA02462F
:100710005B49204606F09EFF23685B680922594921
:1007200020469847002310228021204606F0A0FF93
:1007300023685B6801225449204698478021284657
:1007400004F0A2FB40B2514B187028B12046236838
:100750005B6811224E4998474E4D4FF4A8732B8089
:10076000344C23685B680922464920469847002399
:1007700010222988204606F07BFF23685B6801224F
:100780004149204698472A8801213C4804F024FB2F
:1007900040B23E4B187028B1204623685B68112296
:1007A0003B4998470021354804F0DCFA374B187074
:1007B000204D284606F036FF174C0021204601F058
:1007C00053FA4FF6E071204602F092FB324BA361E0
:1007D00014220521204602F073FB23685B680A227D
:1007E0002E49204698472E49284606F033FF4FF4FD
:1007F000FA6005F0A5FF0DE013681B1AB3F57A7FC8
:100800007FF6DFAEEDE613680493049B83427FF628
:10081000EEAEFCE60AB070BD2099FF1F5899FF1F8D
:10082000F499FF1FD89AFF1FE89AFF1F049DFF1F2E
:100830001099FF1FEC9AFF1F94E50000B0E500003F
:10084000BCE50000C8E50000D8E50000FC98FF1FEB
:10085000F4E500001899FF1F30E600004C99FF1FD7
:1008600048E60000303D01007C99FF1FA099FF1F62
:100870007CE6000088E60000E898FF1F7098FF1FE4
:100880009CE60000B8E60000D4E600000188FF1FE7
:10089000C4E600007099FF1F04330100D8E6000091
:1008A000E4E600002DE9F0418AB0834B1B68049315
:1008B000049B824A1360824A126864329A4210D2C0
:1008C0007F4A13607F4AA2FB031292097E490A60A5
:1008D0007E4909688A4204D97C490A607C4A1360CF
:1008E00003E07C4B1B78002B6FD00022794B1A70F1
:1008F000794A136801331360784A1268934284BFBF
:10090000764A1360764803685B6801227549984708
:10091000754B1A886FEA42426FEA524292B21A80CD
:10092000724C0121204604F057FA714D28700021C5
:10093000204604F017FA28706E4E3146204604F027
:10094000DFF928703188204604F0C8F96A4B186036
:100950005E4B1A68694BA3FB0213DB0803EB8303AE
:10096000B2EB430F02D10121654B1970654BA3FB1C
:1009700002135B09C3EB0313B2EB830F02D1012215
:10098000614B1A70614C002301933C23009340F2A9
:100990003F130F220521204600F0B4FF4FF6E0710F
:1009A000204602F0A5FA5A4BA3611422502120469A
:1009B00002F086FA504B186808F0D2FE022300932A
:1009C00002460B46204606F08FFE06F073FC002818
:1009D0004BDD06F023FCC0B24E4B187048382E2871
:1009E00043D8DFE800F032424242424242424242B1
:1009F0004218424221424242424242424242424222
:100A000042424242424232424242424242424242D6
:100A100042184242210001223F4B1A703F4A40498E
:100A20002F4806F017FE20E03E4A137883F00103BA
:100A3000137023B100223C4B1A70384A00E03B4A45
:100A40003B49274806F006FE0FE0374A137883F04B
:100A50000103137023B10022324B1A702F4A00E0B9
:100A6000324A34491E4806F0F5FD334906A803F022
:100A7000B3F806A802F0C6FE002800F04883124B27
:100A80001C681D4B186808F06BFECDE9000122467A
:100A90002A49134806F0DEFD1F4B1B7813B10420D2
:100AA00003F0E0FB054B1A68254B1A600126DFF8BE
:100AB00094800B4D004F48E0F499FF1F1099FF1FE1
:100AC0004499FF1FD34D62100C99FF1FE098FF1F40
:100AD0005499FF1F4899FF1F1C99FF1FE498FF1F9F
:100AE000EC9AFF1F50E700007099FF1F7098FF1FDE
:100AF0000188FF1FD098FF1F6C99FF1FCDCCCCCC75
:100B00006999FF1F89888888DC98FF1F2099FF1F3B
:100B1000203301007899FF1F0288FF1F48E700007B
:100B200054E700000388FF1F0488FF1F40E7000010
:100B30006CE700007CE70000E898FF1F8CE70000EE
:100B40007499FF1F20EA0000012606A802F094FF16
:100B5000002800F09B8206A802F0A6FE002800F004
:100B6000778206A802F0ACFEC4B25C4B1B7823B1BE
:100B70002B681B682146284698470A2C40F064825F
:100B8000002EE1D0564C23685B681322554920465D
:100B90009847204606F046FD23685B6813225249B9
:100BA00020469847204606F03DFD504A1368013321
:100BB00013604F4B1B7813B1042003F053FB069BCB
:100BC0005B680F224B4906A89847044606A806F022
:100BD00029FD2044C3B2484A13704BB9404C2368E6
:100BE0005B681922454920469847204606F01AFDC1
:100BF000069B5B682622424906A89847044606A839
:100C000006F010FD2044C3B23B4A13704BB9344C7C
:100C100023685B681922394920469847204606F028
:100C200001FD069B5B681122364906A898470446D9
:100C300006A806F0F7FC2044C3B22F4A13704BB944
:100C4000274C23685B6819222C4920469847204688
:100C500006F0E8FC069B5B6809222B4906A898472A
:100C6000C0B2254B187048B91D4C23685B68192227
:100C7000224920469847204606F0D4FC00230A2249
:100C80002249097806A806F0F3FC06A806F0CAFC7B
:100C9000069B5B6828221E4906A8984706A806F00E
:100CA000C1FC06A806F0BEFC069B5B682E22194913
:100CB00006A89847044606A806F0B4FC0219D3B269
:100CC0000D490B7043BB064C23685B6819220B4926
:100CD00020469847204606F0A5FC22E00388FF1F27
:100CE000EC9AFF1FB8E70000CCE70000F098FF1F68
:100CF0000288FF1FE0E700006899FF1FF0E700008F
:100D00000CE8000034E8000048E800000088FF1FFD
:100D100054E8000080E80000D2B2A149A14806F0E2
:100D200099FC069B5B6806229F4906A898470446E3
:100D300006A806F077FC2044C3B29C4A13704BB956
:100D4000984C23685B6819229949204698472046A9
:100D500006F068FC069B5B680622964906A8984741
:100D6000044606A806F05EFC904D20442870069BC1
:100D70005B682822904906A89847044606A806F012
:100D800051FC20442870069B5B6807228B4906A80B
:100D90009847044606A806F045FC20442870814C7C
:100DA00023685B680922864920469847204606F05A
:100DB00039FC069B5B680622824906A898470446D0
:100DC00006A806F02FFC20442870069B5B682722AB
:100DD0007D4906A89847044606A806F023FC20444F
:100DE000C3B22B704BB96F4C23685B6819227049F2
:100DF00020469847204606F015FC069B5B680622B5
:100E0000724906A89847069B5B680822704906A8A5
:100E10009847069B5B6801226E4906A89847069B87
:100E20005B680B226C4906A898476C4D069B5B6873
:100E30000422294606A898475A4C23685B681A2260
:100E4000674920469847204606F0ECFB069B5B6806
:100E50001522644906A8984700230A2262490978A6
:100E600006A806F005FC069B5B680C225F4906A8F5
:100E70009847069B5B6801225D4906A898475D4F2D
:100E800000230A22396806A806F0F2FB069B5B687D
:100E90000622594906A89847584B186808F060FC84
:100EA0000226009602460B4606A806F01DFC069B8D
:100EB0005B680B22524906A8984723685B6810229A
:100EC000504920469847204606F0ACFBDFF85C818D
:100ED00000230A22D8F8001006A806F0C9FB069BDA
:100EE0005B681022484906A89847D8F8000009F026
:100EF00011F88046386809F00DF80146404609F0BF
:100F000015F908F02DFC009602460B4606A806F0DF
:100F1000EBFB069B5B680A223C4906A89847002326
:100F20000A223B49096806A806F0A2FB069B5B68FB
:100F30000B22384906A8984700230A223649096837
:100F400006A806F095FB069B5B681322334906A8AA
:100F50009847069B5B680422294606A89847069B8B
:100F60005B6807222E4906A8984706A806F05AFB98
:100F700023685B6810222B4920469847204606F0DC
:100F800051FB069B5B680722274906A8984706A8DD
:100F900006F048FB06A806F045FB236848E000BFC2
:100FA000B0E80000EC9AFF1FBCE800006899FF1F42
:100FB000F0E70000C4E80000CCE80000F8E800001A
:100FC00000E900000CE9000014E900003CE9000021
:100FD000BCE50000D4E60000B0E5000080E90000B8
:100FE00044E9000060E900000088FF1F78E9000084
:100FF00088E900000C99FF1F8CE900006C99FF1F25
:1010000094E90000A0E90000B4E90000C8E900008C
:101010001499FF1FD4E90000E498FF1FE0E90000E5
:10102000F4E90000FCE9000010EA0000F098FF1F5E
:101030005B680422424920469847204606F0F2FAAF
:101040000022404B1A6021E00D2C18BF00267CE5E1
:101050002B685B6801224146284698473B68059308
:10106000059A394B1B6803F57A739342BFF46DAD53
:10107000364C23685B683122354920469847204624
:1010800006F0D0FA334A136801331360012005F0EB
:1010900057FB06A802F0BCFC2C4C23685B680E22B0
:1010A0002D4920469847204606F0BCFA2B4B1B786A
:1010B00013B1042003F0D6F8294B1B7813B3294B46
:1010C0001C68244B1B680293204608F023FF05464A
:1010D000254B186808F01EFF0146284609F026F83F
:1010E00008F03EFBCDE9000122462049174806F0F2
:1010F000B1FA1B4B1B782BB11D4B1A681D491348C5
:1011000006F0A8FA1C49114806F0A4FA14E01B4B9B
:101110001B7843B10022194B1A700C4803685B68B6
:10112000012217499847174B1B782BB10022154B0A
:101130001A70064806F076FA0AB0BDE8F08100BFE2
:1011400018EA00001C99FF1F7499FF1FEC9AFF1FFB
:1011500024EA00001499FF1F58EA00000288FF1FCC
:101160000388FF1FF098FF1F0C99FF1F68EA00001B
:10117000E498FF1F98EA0000B0EA00006999FF1F99
:10118000BCEA0000DC98FF1FF0B400240127CB0864
:10119000C55C01F00703C3F108039A4209D39C40E0
:1011A00007FA03F6013E35402C431944D21AEED11A
:1011B0000BE004FA02F19B1A45FA03F3012404FA46
:1011C00002F2541E2340DCB20C432046F0BC7047B0
:1011D000F0B5002A14BF4FF060574FF06457174A1C
:1011E0001268174C2588174C94FBF5F4A1421BD3C9
:1011F00009E055F8042F36F8024F9EFBF4F4A142A3
:1012000001D2AC45F5D113F0080F18BF47F0806745
:1012100013F0040F0FD047F0007722F47043120947
:1012200002F470621A4306E0044D054E05F1580CB5
:10123000DFF810E0DDE73A430260F0BDE43801007A
:10124000B4380100006CDC0210B4C37AFBB172B692
:10125000C37A13F0010F05D0154A1468C368234000
:1012600083611360C37A13F0020F05D0114A14682A
:1012700003692340C3611360C37A13F0040F05D0E0
:101280000D4A1468436923400362136062B6036821
:10129000DA688A420AD0094A1A600368D96003688A
:1012A00041F0804119610368054A1A6010BC70471B
:1012B00080E100E084E100E088E100E001401F00FF
:1012C00000001F80C37A9BB113F0010F02D0826926
:1012D000084B1A60C37A13F0020F02D0C269064BA2
:1012E0001A60C37A13F0040F02D0026A034B1A602B
:1012F000704700BF00E100E004E100E008E100E029
:1013000070B400250571114E06604177827703772E
:101310009DF80C3080F822309DF8103080F8233092
:101320009DF8143080F82130F023C3804FF4A0736F
:101330000381C57445818581012383744FF6FF7253
:101340000282C2810375856170BC7047AC380100B0
:101350000029C0F234812DE9F041B0F906408C42F9
:1013600040F32B81002AC0F22881B0F90840944252
:1013700040F32381924CD4F800E0924C2668924CC2
:101380002588924C94FBF5F4A6450FD28D4C8E4FD8
:1013900004F15808DFF834C254F8046F37F8025FDC
:1013A0009CFBF5F5AE4501D24445F5D146F06055BC
:1013B000874CE47ABCB372B6854CE47A14F0010F22
:1013C0000CD0DFF828C2DCF80040DFF804E2DEF8D9
:1013D0000C703C40CEF81840CCF800407C4CE47ACD
:1013E00014F0020F0CD0DFF808C2DCF80040DFF880
:1013F000E0E1DEF810703C40CEF81C40CCF8004034
:10140000734CE47A14F0040F0CD0DFF8E8C1DCF878
:101410000040DFF8BCE1DEF814703C40CEF820401C
:10142000CCF8004062B66A4C2468E768AF4209D045
:10143000684F2760664C2468E56046F0F0462661F8
:10144000654D256089B292B290F82040240444F0A2
:10145000004444F02A04614D6C63EC6A14F0F00F10
:1014600018BFAE6B04F47044B4F5405FF5D8C47F88
:1014700041EA044444F01044584D6C63EC6A14F0A3
:10148000F00F18BFAE6B04F47044B4F5405FF5D8AC
:10149000C47F41EA044141F01041504C6163E16A6C
:1014A00011F0F00F18BFA56B01F47041B1F5405F6A
:1014B000F5D890F82010090441F0004141F02B01CB
:1014C000464C6163E16A11F0F00F18BFA56B01F49F
:1014D0007041B1F5405FF5D8C17F42EA014141F06A
:1014E00010413E4C6163E16A11F0F00F18BFA56B2B
:1014F00001F47041B1F5405FF5D8C17F42EA014285
:1015000042F0104235494A63CA6A12F0F00F18BF20
:101510008C6B02F47042B2F5405FF5D890F8202051
:10152000120442F0004242F02C022C494A63CA6A7B
:1015300012F0F00F18BF8C6B02F47042B2F5405FEE
:10154000F5D8264A1168C07F43EA004343F0C053F0
:101550005363D36A13F0805F04D113F0F00FF8D017
:10156000936BF6E71D4B4FF08052DA621960DB6A2D
:1015700013F0F00F05D0194B9A6BDA6A12F0F00FE6
:10158000FAD1134BDB7AC3B113F0010F03D0104B28
:101590009A69134B1A600E4BDB7A13F0020F03D0DB
:1015A0000B4BDA690F4B1A60094BDB7A13F0040F0F
:1015B00003D0074B1A6A0C4B1A60BDE8F0817047E4
:1015C0000888FF1FE4380100B4380100006CDC0219
:1015D0000C88FF1F01401F0000001F8000C0024058
:1015E00000E100E004E100E008E100E080E100E06B
:1015F00084E100E088E100E02DE9F043BDF81C50F3
:10160000B0F906608E4240F35E81B0F90840944222
:1016100040F35981002AC0F25681002902DA5C1891
:1016200023B20021CC18013CB442C0F24881761AA2
:1016300033B2A64CD4F800C0A54C2668A54C278828
:10164000A54C94FBF7F4A44510D2A14FDFF884E237
:1016500007F15809DFF8808257F8046F3EF8024F0F
:1016600098FBF4F4A44501D24F45F5D146F06058FB
:101670009A4CE47ABCB372B6984CE47A14F0010F39
:101680000CD0DFF870E2DEF80040DFF850C2DCF882
:101690000C703C40CCF81840CEF800408F4CE47AF7
:1016A00014F0020F0CD0DFF850E2DEF80040DFF853
:1016B0002CC2DCF810703C40CCF81C40CEF8004046
:1016C000864CE47A14F0040F0CD0DFF830E2DEF838
:1016D0000040DFF808C2DCF814703C40CCF8204031
:1016E000CEF8004062B67D4C2468D4F80CE0C645C4
:1016F0000CD0DFF80CE2C4F800E0784C2468C4F8A1
:101700000C8046F0F0462661754E26608EB29CB283
:10171000771E2744BFB292B290F820301B0443F0EA
:10172000004343F02A036F494B63CB6A13F0F00F79
:1017300018BFD1F838E003F47043B3F5405FF4D834
:10174000C37F46EA034343F0104366494B63CB6AC9
:1017500013F0F00F18BF8E6B03F47043B3F5405FC6
:10176000F5D8C37F47EA034343F010435D494B6319
:10177000CB6A13F0F00F18BF8E6B03F47043B3F510
:10178000405FF5D890F820301B0443F0004343F04D
:101790002B0354494B63CB6A13F0F00F18BF8E6BC9
:1017A00003F47043B3F5405FF5D8C37F42EA0343C7
:1017B00043F010434B494B63CB6A13F0F00F18BF53
:1017C0008E6B03F47043B3F5405FF5D8C37F42EAF4
:1017D000034343F01043434A5363D36A13F0F00FBB
:1017E00018BF916B03F47043B3F5405FF5D890F8E0
:1017F00020301B0443F0004343F02C03394A536369
:10180000D36A13F0F00F18BF916B03F47043B3F574
:10181000405FF5D8334A23B2012B12DDC37F45EA7E
:10182000034343F010435363D36A13F0F00F18BF20
:10183000916B03F47043B3F5405FF5D8013CA4B25B
:10184000E9E7284A1168C37F45EA034343F0C053E0
:101850005363D36A13F0805F04D113F0F00FF8D014
:10186000936BF6E71F4B4FF08052DA621960DB6A28
:1018700013F0F00F05D01B4B9A6BDA6A12F0F00FE1
:10188000FAD1164BDB7AF3B113F0010F03D0134BEF
:101890009A69154B1A60114BDB7A13F0020F03D0D3
:1018A0000E4BDA69114B1A600C4BDB7A13F0040F04
:1018B00009D00A4B1A6A0E4B1A60BDE8F083034C3C
:1018C000D4F800C0B8E6BDE8F08300BF0888FF1F69
:1018D000E4380100B4380100006CDC020C88FF1F02
:1018E00000001F8000C0024000E100E004E100E0D1
:1018F00008E100E080E100E084E100E088E100E050
:1019000001401F002DE9F04782B09846BDF92870CC
:10191000BDF82C60B0F906308B4240F38681054655
:10192000B0F90800904240F38081002903DA88442E
:101930000FFA88F80021002A02DA17443FB2002289
:1019400001EB0804013C9C42A4BF5B1A0FFA83F828
:10195000D319013B8342C0F26581871A3FB2B44B71
:101960001C68B44B1B68B448B0F800E0B34890FB67
:10197000FEF0844210D2AF48DFF8BCC200F1580A32
:10198000DFF8B89250F8043F3CF802EF99FBFEFEF6
:10199000744501D28245F5D143F06059A848C07A18
:1019A000B8B372B6A648C07A10F0010F0CD0DFF8B9
:1019B000A8E2DEF80000DFF888C2DCF80C40204026
:1019C000CCF81800CEF800009D48C07A10F0020F45
:1019D0000CD0DFF888E2DEF80000DFF864C2DCF843
:1019E00010402040CCF81C00CEF800009448C07A8B
:1019F00010F0040F0CD0DFF868E2DEF80000DFF82A
:101A000040C2DCF814402040CCF82000CEF80000A2
:101A100062B68B480068D0F80CE0CE450CD0DFF8F9
:101A200044E2C0F800E086480068C0F80C9043F03B
:101A3000F0430361834B03608CB204F1FF3EC64464
:101A40001FFA8EFE91B24A1E3A4492B295F82030A7
:101A50001B0443F0004343F02A037B484363C36AFB
:101A600013F0F00F18BFD0F838C003F47043B3F58B
:101A7000405FF4D8EB7F44EA034343F010437248DD
:101A80004363C36A13F0F00F18BF846B03F4704311
:101A9000B3F5405FF5D8EB7F4EEA034343F01043C4
:101AA00069484363C36A13F0F00F18BF846B03F4F3
:101AB0007043B3F5405FF5D895F820301B0443F030
:101AC000004343F02B0360484363C36A13F0F00FF5
:101AD00018BF846B03F47043B3F5405FF5D8EB7F18
:101AE00041EA034343F0104357494B63CB6A13F079
:101AF000F00F18BF886B03F47043B3F5405FF5D85F
:101B0000EB7F42EA034343F010434F4A5363D36AE7
:101B100013F0F00F18BF916B03F47043B3F5405FFF
:101B2000F5D895F820301B0443F0004343F02C0314
:101B3000454A5363D36A13F0F00F18BF916B03F457
:101B40007043B3F5405FF5D8002F4EDD3E4CB8F141
:101B5000010F14DD4146EB7F46EA034343F0104397
:101B60006363E36A13F0F00F18BFA26B03F47043D2
:101B7000B3F5405FF5D8013909B20129EBDC2268E1
:101B8000EB7F46EA034343F0C0536363E36A13F019
:101B9000805F04D113F0F00FF8D0A36BF6E74FF09D
:101BA0008053E3622260E36A13F0F00F04D0A36B6A
:101BB000E36A13F0F00FFAD1012F12DD17F0010FD5
:101BC0000FD0DFF87C904846FFF77CFB0023012212
:101BD0001749096801A8FFF7FBFA01994846FFF782
:101BE00033FB013F3FB2002FB1D1154BDB7AE3B19C
:101BF00013F0010F03D0124B9A69144B1A60104B6B
:101C0000DB7A13F0020F03D00D4BDA69104B1A6028
:101C10000B4BDB7A13F0040F07D0094B1A6A0D4BFC
:101C20001A6002E0024B1C689BE602B0BDE8F08738
:101C30000888FF1FE4380100B4380100006CDC02A2
:101C40000C88FF1F00001F8000C0024000E100E080
:101C500004E100E008E100E080E100E084E100E070
:101C600088E100E001401F0000B583B0B0F9063004
:101C70000191B0F90820009200221146FFF742FEC0
:101C800003B05DF804FB00BFF0B401F00301C174C0
:101C9000954B1D68954B1968954B1A88954B93FB8E
:101CA000F2F39D420ED2914B914C03F15807914EA5
:101CB00053F8041F34F8022F96FBF2F2954201D23A
:101CC0009F42F5D141F060528B4BDB7A2BB372B659
:101CD000894BDB7A13F0010F06D0884C2668864DBD
:101CE000EB683340AB612360834BDB7A13F0020F68
:101CF00006D0834C2668804D2B693340EB6123600E
:101D00007D4BDB7A13F0040F06D07E4C26687A4DAB
:101D10006B6933402B62236062B6774B1B68DC68CB
:101D2000944209D0784C1C60734B1B68DA6041F018
:101D3000F0411961754A1A6090F820301B0443F095
:101D4000004343F03603724A5363D36A13F0F00F33
:101D500018BF916B03F47043B3F5405FF5D8C37CB3
:101D6000032B00F29F80DFE803F002295077684AD6
:101D70001168C37F1B0443F0006343F048035363BF
:101D8000D36A13F0805F04D113F0F00FF8D0936B97
:101D9000F6E75F4B4FF08052DA621960DB6A13F0AE
:101DA000F00F05D05A4B9A6BDA6A12F0F00FFAD1A5
:101DB000F023C3804FF4A073038173E0544A116889
:101DC000C37F1B0443F0006343F028035363D36ACB
:101DD00013F0805F04D113F0F00FF8D0936BF6E7A7
:101DE0004B4B4FF08052DA621960DB6A13F0F00F50
:101DF00005D0474B9A6BDA6A12F0F00FFAD14FF424
:101E0000A073C380F02303814CE0414A1168C37F73
:101E10001B0443F0006343F088035363D36A13F059
:101E2000805F04D113F0F00FF8D0936BF6E7384BD6
:101E30004FF08052DA621960DB6A13F0F00F05D0C0
:101E4000334B9A6BDA6A12F0F00FFAD1F023C380A9
:101E50004FF4A073038125E02D4A1168C37F1B0452
:101E600043F0006343F0E8035363D36A13F0805FE9
:101E700004D113F0F00FF8D0936BF6E7244B4FF03A
:101E80008052DA621960DB6A13F0F00F05D0204B44
:101E90009A6BDA6A12F0F00FFAD14FF4A073C38094
:101EA000F0230381144BDB7AC3B113F0010F03D08D
:101EB000114B9A69174B1A600F4BDB7A13F0020F24
:101EC00003D00D4BDA69144B1A600B4BDB7A13F01D
:101ED000040F03D0084B1A6A104B1A600023438189
:101EE0008381F0BC704700BF0888FF1FE438010001
:101EF000B4380100006CDC020C88FF1F80E100E0B8
:101F000084E100E088E100E001401F0000001F8044
:101F100000C0024000E100E004E100E008E100E070
:101F2000F8B590F822100B2902D0072940F0D4818F
:101F300090F8213003F0FB03082B40F0CD8190F89E
:101F400023300D3BDBB2012B00F2C6810446704DFD
:101F5000284601F0A7F894F82110284601F0D2F89D
:101F600094F82310284601F0F9F8284601F000F80B
:101F7000A27F617F284601F057F888B12E46617F25
:101F8000284601F069F80546E077A17F304601F068
:101F900063F8284384F82000207FFF2805D192E1D0
:101FA0000023E37784F82030F8BD012104F0E4FA3F
:101FB0000121207F04F0AEFA052004F0C1FB0021CE
:101FC000207F04F0A7FA142004F0BAFB0121207F3F
:101FD00004F0A0FA962004F0B3FB4E4B19684E4B68
:101FE0001B684E4A10884E4A92FBF0F28A420ED984
:101FF000494A4A4D02F15807494E52F8043F35F814
:10200000020F96FBF0F0884201D9BA42F5D143F0B5
:1020100060513F4AD27A2AB372B63D4AD27A12F060
:10202000010F06D03F480668394DEA683240AA6180
:102030000260374AD27A12F0020F06D03A48066898
:10204000334D2A693240EA610260314AD27A12F095
:10205000040F06D0354806682D4D6A6932402A6261
:10206000026062B62A4A1268D068884209D03048B5
:102070001060274A1268D16043F0F04313612D4B82
:1020800013602D4F2D4A3B785D1EEDB263B3BE1C2D
:1020900094F820107B7843EA014343F000435363F4
:1020A000D36A13F0F00F18BF916B03F47043B3F5CC
:1020B000405FF5D8AB1C1F443046B84201D17719B8
:1020C000E1E7E17F10F8013B43EA014343F00043BD
:1020D0005363D36A13F0F00F18BF916B03F470438E
:1020E000B3F5405FF5D8E8E7144A116894F820305A
:1020F0001B0443F0006343F011035363D36A13F0EE
:10210000805F1DD113F0F00FF8D0936BF6E700BF9E
:102110000C88FF1F0888FF1FE4380100B438010055
:10212000006CDC0280E100E084E100E088E100E096
:1021300001401F0000001F803838010000C002402D
:10214000664B4FF08052DA621960DB6A13F0F00FD1
:1021500005D0624B9A6BDA6A12F0F00FFAD1604B3D
:10216000DB7A002B00F0B28013F0010F03D05C4B40
:102170009A695C4B1A605A4BDB7A13F0020F03D05A
:10218000574BDA69584B1A60554BDB7A13F0040F42
:1021900003D0534B1A6A554B1A60782004F0D0FADA
:1021A000534B1968534B1B68534A1088534A92FB90
:1021B000F0F28A420ED94F4A4F4D02F158074F4E66
:1021C00052F8043F35F8020F96FBF0F0814201D23D
:1021D000BA42F5D143F06051414AD27A2AB372B67D
:1021E0003F4AD27A12F0010F06D0454806683C4DAE
:1021F000EA683240AA610260394AD27A12F0020FCC
:1022000006D040480668364D2A693240EA610260CD
:10221000334AD27A12F0040F06D03B480668304D9C
:102220006A6932402A62026062B62D4A1268D0683A
:10223000884209D035481060294A1268D16043F0BD
:10224000F0431361324B1360244A116894F8203034
:102250001B0443F0006343F029035363D36A13F074
:10226000805F04D113F0F00FF8D0936BF6E71B4BAF
:102270004FF08052DA621960DB6A13F0F00F05D07C
:10228000164B9A6BDA6A12F0F00FFAD1144BDB7A24
:1022900013B313F0010F03D0114B9A69114B1A605D
:1022A0000F4BDB7A13F0020F03D00D4BDA690E4BA4
:1022B0001A600B4BDB7A13F0040F0DD0084B1A6A2F
:1022C0000A4B1A60F8BD0A4B196888E6782004F0BA
:1022D00037FA074B196865E7F8BD00BF00C0024038
:1022E0000C88FF1F00E100E004E100E008E100E0ED
:1022F0000888FF1FE4380100B4380100006CDC02DC
:1023000080E100E084E100E088E100E001401F009E
:1023100000001F802DE9F04F91B0BDF868A0BDF816
:102320006C709DF87060B0F906408C4240F36F828B
:10233000B0F90840944240F36A8206EB460401EB90
:102340004404012C00F1638202EBC604012C00F16D
:102350005E82984603928B460446BA4540F044811B
:10236000012E40F08A8003EB8309BDF80C7007F161
:1023700008039BB204934FF0010809F10503994A41
:102380001344059354468246964B09EB03020023FF
:1023900012F8011B11EA080F18BF43F001035B009C
:1023A000DBB205998A42F3D15E08002B5BD01F2E69
:1023B00007D01E2E10D000253BB2039317E046B97C
:1023C00051E0009405233AB259465046FFF714F9FC
:1023D00049E01E2E0BD100E000250BEB0501009417
:1023E00004233AB209B25046FFF706F93BE006F083
:1023F0001C031C2B0ED1ADB205EB0B010094032383
:10240000039A09B25046FFF7F7F83601F6B20435E1
:102410002DB2D4E706F01803182B0ED1ADB205EBA0
:102420000B0100940223039A09B25046FFF7E4F827
:10243000F600F6B203352DB2C1E716F0100F0DD03D
:10244000ADB205EB0B012346039A09B25046FEF7E5
:102450007FFFB600F6B202352DB2B0E77600F6B2D5
:1024600001352DB2ABE74FEA48085FFA88F801372B
:10247000BFB2049B9F4287D1C9E103EB830308935A
:102480001FFA86F84FEA4802099208EB48020A92BE
:102490004FEA88020B9208EB88020C9208220792FE
:1024A0004FF000090122069205334E4A13440D9362
:1024B00004905446089B4B4A9A18002312F8011BBB
:1024C0000698014218BF43F001035B00DBB20D998F
:1024D0008A42F3D15F08002B73D01F2F04D01E2F28
:1024E00020D110E067B96CE0039B09FB083201942E
:1024F00000960C9B12B259460498FFF703FA60E06D
:102500001E2F18D100E00023039A09FB082203FBC9
:1025100008B1019400960B9B12B209B20498FFF720
:10252000F1F94EE0039B09FB08331BB2059300232E
:102530000FFA86FA554607F01C021C2A11D11FFA21
:1025400083FA03FB08B1019400950A9B059A09B22E
:102550000498FFF7D7F93F01FFB20AF104031BB259
:10256000C0E707F01802182A11D11FFA83FA03FBFB
:1025700008B101940095099B059A09B20498FFF7E8
:10258000C1F9FF00FFB20AF103031BB2AAE717F07B
:10259000100F11D01FFA83FA03FB08B101940095C4
:1025A0002B46059A09B20498FFF7ACF9BF00FFB2B9
:1025B0000AF102031BB295E77F00FFB201331BB2A1
:1025C00090E7069B5B00DBB2069309F101090FFA65
:1025D00089F9079B013B9BB20793002B7FF46AAFFD
:1025E00015E100BF3C33010000230122894909683D
:1025F0000FA8FEF7EDFD0F998748FEF725FEB3B251
:102600001FFA8BFB03EB43020BEB4202013A92B23F
:10261000BDF80C1001EBC303013B9BB294F8200002
:10262000000440F0004040F02A007C4D6863E86AF6
:1026300010F0F00F18BFD5F838E000F47040B0F596
:10264000405FF4D8E07F4BEA004B4BF01040734DF5
:102650006863E86A10F0F00F18BFD5F838E000F4AE
:102660007040B0F5405FF4D8E07F42EA004242F0AB
:1026700010426A484263C26A12F0F00F18BF856BBD
:1026800002F47042B2F5405FF5D894F820201204AD
:1026900042F0004242F02B0260484263C26A12F0EC
:1026A000F00F18BF856B02F47042B2F5405FF5D8A9
:1026B000E27F41EA024242F0104258494A63CA6A44
:1026C00012F0F00F18BF886B02F47042B2F5405F51
:1026D000F5D8E27F43EA024343F010434F4A536385
:1026E000D36A13F0F00F18BF916B03F47043B3F586
:1026F000405FF5D894F820301B0443F0004343F0CA
:102700002C03464A5363D36A13F0F00F18BF916B42
:1027100003F47043B3F5405FF5D808EB880808234D
:1027200003934FF0010C08F105093D4B99443B4AD6
:10273000002E3ED04FF0000B394B08EB030E1EF875
:10274000010B00EA0C00002814BF50463846002157
:10275000E37F40EA034343F010435363D36A13F02B
:10276000F00F18BF956B03F47043B3F5405FF5D8D5
:102770000131CBB29E42EBD8F145E0D10021E37F9D
:1027800047EA034343F010435363D36A13F0F00F57
:1027900018BF906B03F47043B3F5405FF5D8013177
:1027A000CBB29E42EBD80BF1010B5FFA8BF39E424A
:1027B000C2D84FEA4C0C5FFA8CFC039B013B9BB2E6
:1027C0000393002BB4D1154A116894F820301B04F0
:1027D00043F0006353631346DA6A12F0805F04D15A
:1027E00012F0F00FF8D09A6BF6E70C4B4FF08052D6
:1027F000DA621960DB6A13F0F00F05D0074B9A6BB1
:10280000DA6A12F0F00FFAD10348FEF75BFD11B05F
:10281000BDE8F08F0888FF1F0C88FF1F00C0024032
:102820003C3301002DE9F04F83B000920193DDF8B5
:102830003090002900F0D3818E46874B1D68874B6E
:102840001B68874A1188874A92FBF1F295420ED2A3
:10285000824A834C02F15807824E52F8043F34F802
:10286000021F96FBF1F18D4201D2BA42F5D143F03D
:1028700060517D4AD27A2AB372B67B4AD27A12F07C
:10288000010F06D0794C2668774DEA683240AA617C
:102890002260754AD27A12F0020F06D0744C266874
:1028A000714D2A693240EA6122606F4AD27A12F091
:1028B000040F06D06F4C26686B4D6A6932402A625D
:1028C000226062B6684A1268D4688C4209D06A4CA9
:1028D0001460654A1268D16043F0F0431361674B9E
:1028E00013600D9B09EB030A0022654B01274FF093
:1028F00080580199009C01EB040B90F8201009040A
:1029000041F0004141F02B015963D96A11F0F00FF9
:1029100018BF9C6B01F47041B1F5405FF5D81FFA08
:1029200089F4C17F44EA014141F010415963D96AF9
:1029300011F0F00F18BF9D6B01F47041B1F5405FCD
:10294000F5D8C17F44EA014141F010415963D96A89
:1029500011F0F00F18BF9C6B01F47041B1F5405FAE
:10296000F5D8009C019D013C07FA04F111EA0E0F15
:1029700001D0013292E0002A40F3908090F82010BC
:10298000090441F0004141F02A015963D96A11F06C
:10299000F00F18BF9E6B01F47041B1F5405FF5D8A0
:1029A000C67FA91A89B241EA064141F01041596334
:1029B000D96A11F0F00F18BF9E6B01F47041B1F5A8
:1029C000405FF5D8C67FA9B241EA064141F0104107
:1029D0005963D96A11F0F00F18BF9E6B01F4704172
:1029E000B1F5405FF5D890F82010090441F000419E
:1029F00041F02C015963D96A11F0F00F18BF9E6B9A
:102A000001F47041B1F5405FF5D8013A11D0C67FAD
:102A1000C18941EA064141F010415963D96A11F078
:102A2000F00F18BF9E6B01F47041B1F5405FF5D80F
:102A3000EBE71E6890F81FC0C18941EA0C4141F0E4
:102A4000C0515963D96A11F0805F1BD111F0F00FAA
:102A5000F8D0996BF6E700BF0888FF1FE438010043
:102A6000B4380100006CDC020C88FF1F80E100E03C
:102A700084E100E088E100E001401F0000001F80C9
:102A800000C00240C3F82C801E60D96A11F0F00F1C
:102A900004D0996BD96A11F0F00FFAD10135002CEE
:102AA0007FF461AF002A79DD90F82010090441F02D
:102AB000004141F02A015963D96A11F0F00F18BFA3
:102AC0009C6B01F47041B1F5405FF5D8C47FC2EB57
:102AD0000B0189B241EA044141F010415963D96ABE
:102AE00011F0F00F18BF9C6B01F47041B1F5405F1D
:102AF000F5D8C47F1FFA8BF141EA044141F010413F
:102B00005963D96A11F0F00F18BF9C6B01F4704142
:102B1000B1F5405FF5D890F82010090441F000416C
:102B200041F02C015963D96A11F0F00F18BF9C6B6A
:102B300001F47041B1F5405FF5D8013A11D0C47F7E
:102B4000C18941EA044141F010415963D96A11F049
:102B5000F00F18BF9C6B01F47041B1F5405FF5D8E0
:102B6000EBE71C68C57FC18941EA054141F0C051CE
:102B70005963D96A11F0805F04D111F0F00FF8D0D9
:102B8000996BF6E7C3F82C801C60D96A11F0F00F3E
:102B900004D0996BD96A11F0F00FFAD109F101094B
:102BA000D1457FF4AAAE0F4BDB7AC3B113F0010F0E
:102BB00003D00C4B9A690C4B1A600A4BDB7A13F06A
:102BC000020F03D0074BDA69084B1A60054BDB7A1A
:102BD00013F0040F03D0034B1A6A054B1A6003B0BD
:102BE000BDE8F08F0C88FF1F00E100E004E100E089
:102BF00008E100E02DE9F04F87B0D0F818A09AF86E
:102C00000E308B4209D89AF80F20914205D8C91A84
:102C10009AF8123001FB03F113E09AF81020914268
:102C2000C0F003819AF81140A14200F2FE809AF8A8
:102C30000F400134E31A1944891A9AF8123001FB43
:102C400003F104909AF81220DAF80000FEF79CFADB
:102C5000DAF8083003440393032200211846FEF7F4
:102C600093FA002840F0E1809AF813502A46032195
:102C7000DDF80C804046FEF787FA044603359AF8E3
:102C800014703A4629464046FEF77EFA06463D4411
:102C90009AF815703A4629464046FEF775FA7A1EAC
:102CA00001239340034204D00123BB40C31A059380
:102CB00000E00590DDF814B03D449AF816703A46ED
:102CC00029460398FEF760FA7A1E012393400342D7
:102CD0001DBF4FF0010808FA07F8C8EB000880464E
:102CE0003D449AF817703A4629460398FEF74CFA85
:102CF000049BB3F90A30002B02DA0023049A5381B3
:102D0000049BB3F90A3013EB0B0905D5059A9B1AFE
:102D1000049A53814FF0000904EB09030499B1F9B7
:102D20000620934214DD0B7D002B7ED0BBF1000FFB
:102D300002DB00234B8103E0059B5B42049A538135
:102D40009AF8182004998B8913448B814FF000095D
:102D50000499B1F90C30B1F908209A4265DD4A892D
:102D6000104448819AF8192013449B1BC8EB0308B0
:102D70000596002E59D02F444FF0010A02E0059B22
:102D8000002B52D07E1CFB08039AD25CFB4303F05D
:102D9000070342FA03F313F0010F1FD10027E51BCD
:102DA000202D28BF20252A4631460398FEF7ECF94E
:102DB000CDF804A0CDF8008009EB07032A460146B0
:102DC0000498FFF72FFD2E442F44BC42E7D808F1AA
:102DD0000108059B013B05933746D0E703223146A6
:102DE0000398FEF7D1F900F1020B04370026A51B6A
:102DF000202D28BF20252A4639460398FEF7C4F91E
:102E0000CDF804B0CDF8008009EB06032A46014650
:102E10000498FFF707FD2F442E44B442E7D8D84466
:102E2000059BCBEB03030593A9E707B0BDE8F08F43
:102E300010B584B0044683695BB10A2906D11A7EB5
:102E40008389134483810023438136E0FFF7D2FE58
:102E500033E00A2907D1827C838903EBC203838193
:102E60000023438129E00D2927D0B0F90C20B0F9C7
:102E70000A00A37C0293238A0193E38900930B4603
:102E800001462046FFF746FAA27C91B201EB4100D1
:102E9000638903EB40031BB26381207D68B1B4F901
:102EA0000600A2EB820200EB4202934205DDA389F9
:102EB00003EBC101A18100236381012004B010BD97
:102EC000002906DBB0F90630994203DB591E09B22E
:102ED00000E000214181002A06DBB0F908309A4267
:102EE00003DB5A1E12B200E000228281704700BF4D
:102EF0000182C181704700BF024B1B6801221A701A
:102F0000704700BF8499FF1F417082704FF00042EC
:102F1000C26000228280C28002810122027070475A
:102F200010B504460E4800F023F80121607803F044
:102F300023FB0121607803F0EDFAA078FF280DD083
:102F4000002103F019FBA07822284FF00202054966
:102F500028BFFF2003F050FB034B1C60012010BD75
:102F60000C88FF1FF92E00008499FF1F704700BFD7
:102F700010B441680A6814684B68234313600368FF
:102F8000184A1A600368184ADA60036802F180423E
:102F90001A610368154A1A604468427A144BA118F2
:102FA00091F8241003EBC10149680A3254F8222039
:102FB0000A604268047A1119097E03EBC10149686D
:102FC00002EB8402D2690A604268817A501890F854
:102FD000300003EBC0035B6802EB8102526B1A60A6
:102FE00010BC704701401F000110003800001F8016
:102FF000183C010010B4446894F83C308B4207D070
:1030000004F13C02012312F8010F884205D100E0CF
:103010000023234493F86C0003E00133092BF2D121
:10302000002010BC704700BF70B504461546FFF77E
:10303000E1FF68B1064629462046FFF7DBFF03465D
:1030400040B1334013F0FF0F0CBF0120002070BDD2
:10305000002070BD002070BD30B4456895F83C304C
:103060008B4207D005F13C02012312F8014F8C423C
:103070000FD100E000230A4A02EBC1014A6803F1C4
:10308000120155F8211011604268134493F86C0046
:1030900003E00133092BE8D1002030BC704700BFAA
:1030A000183C01004268437A134493F824308B4261
:1030B00025D010B492F824408C4206D092F82540D6
:1030C0008C4208BF012101D018E000211468246857
:1030D0005268144211D00A4A02EBC3035B68002411
:1030E0001C6043685C1894F8244002EBC4025268E8
:1030F00001F10A0453F824301360417210BC704788
:10310000183C01004268037A13441B7E8B4222D094
:1031100010B4147E8C4205D0547E8C4208BF01212D
:1031200001D017E00021146824685268144210D0BE
:10313000094A02EBC3035B6800241C6043685C1807
:10314000247E02EBC40252688C1D03EB84035B688F
:103150001360017210BC7047183C01004268837A0A
:10316000134493F830308B4226D010B492F830409C
:103170008C4206D092F831408C4208BF012101D028
:1031800019E00021146824685268144212D00B4AD6
:1031900002EBC3035B6800241C6043685C1894F86E
:1031A000304002EBC402526801F10C0403EB8403CB
:1031B0005B681360817210BC704700BF183C01004F
:1031C0004B68436000230381704700BF30B40B7825
:1031D00013B3084610F8014F002CFBD102E0032C7A
:1031E00003DD1FE00020044605462E2B06D1FF28F4
:1031F0001ADC131918710134284604E000EB800032
:10320000303B03EB400011F8013F002BE7D1FF28D2
:103210000CDC032C02DD0BE000200446144420717A
:10322000012006E0002004E0002002E0002000E091
:10323000002030BC704700BF024B034A1A600022D6
:103240005A6070478899FF1F303D01002DE9F04119
:1032500082B00C463E4B1B680093009B038100F13B
:103260000C07022200F10801384600F06DFD02ADA6
:10327000012325F8023D02222946384600F064FD6C
:103280004FF48073ADF8063002222946384600F02C
:103290005BFD0023ADF8063002222946384600F0D7
:1032A00053FD02222946384600F04EFD02222946EF
:1032B000384600F049FD23786BB326464FF00108ED
:1032C00001E0144626462378DBB12E2B02D11CE008
:1032D0002E2B1AD014F8013F002BF9D111E08DF8F4
:1032E000055042460DF10501384600F02DFD2A46F5
:1032F0003146384600F028FD621C2378002BE0D1CF
:1033000009E0A51B002DEADC05E0A51B002DD8BFB8
:103310000134D7DDE3E702A9002301F8033D0122D0
:10332000384600F011FD4FF4807502AC24F8025DC0
:1033300002222146384600F007FDADF80650022271
:103340002146384600F000FD012002B0BDE8F081C2
:10335000F499FF1F2DE9F04F89B081460F46924640
:10336000994B1B680293029E00F10C04964D4FF09E
:103370003208A346204600F025FD00280ADC2B6811
:103380000393039B9B1BBB4200F20C81404603F05E
:10339000D7F9EEE7D9F80420D9F820309A4240F066
:1033A0000481B9F82430352B40F00281204600F02A
:1033B0005FFC0B2840F3FF800C2205A9204600F09B
:1033C000E9FCBDF81620130A43EA02231BB29AB2A5
:1033D000ADF81220B9F80800BDF81410884201D1E8
:1033E000002B05DB584600F051FC4FF6FC70E8E07E
:1033F00040F20F231A4205D0204600F047FC4FF65A
:10340000FB70DEE0BDF81A40230A43EA0424A4B2AC
:1034100054B1BDF8182013029BB253EA122300F0F6
:10342000CD800025012605E0584600F02FFC4FF620
:10343000FA70C6E032460DF10601584600F0AAFCCB
:103440009DF806307BB1013B8DF80630584600F000
:1034500087FC9DF80620531EDBB28DF80630002A4B
:10346000F4D1002BE6D1584600F07AFC584600F023
:1034700077FC584600F074FC584600F071FC0135AA
:10348000ADB2BDF8182013029BB243EA12239D424D
:10349000D0DB93E032460DF10301584600F07AFC90
:1034A0009DF8033013F0C00F0FD1BBB1013B8DF875
:1034B0000330584600F054FC9DF80320531EDBB245
:1034C0008DF80330002AF4D106E0584600F048FC9D
:1034D00000238DF8033001E0002BDBD1022201A98B
:1034E000584600F057FC02220DF10601584600F044
:1034F00051FC584600F034FC584600F031FC584668
:1035000000F02EFC584600F02BFC02220DF11201B7
:10351000584600F03FFCBDF8042013029BB243EA7A
:103520001223012B08D0BDF8122013029BB253EADC
:1035300012232CD000271DE0BDF8062013029BB2F9
:1035400043EA1223012BEED1BDF8122013029BB2E5
:1035500043EA1223042B05D0584600F097FB4FF6A0
:10356000F7702EE004220AEB0201584600F012FC2C
:10357000012026E0584600F0F3FB0137BFB2BDF84A
:10358000122013029BB243EA12239F42F2DB013561
:10359000ADB2AC427FF47EAF584600F077FB4FF6F9
:1035A000F6700EE04FF6FF700BE04FF6FE7008E08D
:1035B0004FF6FE7005E04FF6FD7002E00025012693
:1035C00068E709B0BDE8F08FF499FF1F2DE9F041DD
:1035D00084B005460F469046FFF7F8FD002837D126
:1035E00004466A68294B5B689A4233D005F10C06A1
:1035F000274B1B680193019901F00F0101F58061D0
:10360000304600F04FFB01283CD1224B02936B68FF
:103610000393352202A9304600F088FB044698B196
:1036200039462846FFF712FE68B1304600F086FBA7
:10363000044690B908E0424641F288312846FFF737
:1036400089FE044600E00024304600F05BFB19E0F0
:10365000012417E06FF0010414E0424641F2883182
:103660002846FFF777FE0446B0F1FF3FECD1424613
:1036700041F288312846FFF76DFE0446B0F1FF3F66
:10368000D9D0E1E7204604B0BDE8F0818899FF1F5A
:10369000F499FF1F303D0100F8B504460F46164669
:1036A0001D46017D0F4801F053F806233A460421D8
:1036B000092000F0F7FE0423F21819460F2000F04D
:1036C000F1FE0423069A1A441946012000F0EAFE8E
:1036D0000423079A1A441946052000F0E3FE6B689C
:1036E0006360F8BDC499FF1F10B58AB00F4C0294F7
:1036F0005268039204945B68059306940C9B5B6884
:1037000007930894FF238DF824308DF825308DF829
:10371000263000238DF8273008AB019306AB0093C9
:1037200004AB02AAFFF7B8FF0AB010BD303D01009C
:1037300010B58AB054680394094A0492059406921D
:103740005B680793089201238DF80F30039B099360
:1037500008AB009306AB04AAFFF7C6FF0AB010BD82
:10376000303D010000B587B052680192074B0293CB
:103770000392049301238DF80730019B059304AB5A
:1037800002AAFFF7D5FF07B05DF804FB303D01004A
:1037900010B50446054B03600021024642F8041FA1
:1037A00004230F2001F096F8204610BD303D0100A3
:1037B000024A02604A684260704700BF303D010023
:1037C000044B054A1A6000225A601A610A221A75CF
:1037D000704700BFA099FF1F303D010008B5036886
:1037E0001B6B984780F00100C0B208BD10B582B0D5
:1037F00002AB03F8011D0268546801221946A04774
:1038000002B010BD407B083818BF0120704700BFD0
:10381000407B4B7B834203D1083818BF012070479F
:10382000002070472DE9F04192B007460E469046C1
:10383000114D03950024049406A800F00BFB01959C
:1038400002940E490EA8FFF7B3FF0EA903A8FFF7D5
:10385000B7FC01AA314603A8FFF7B8FE012808D13A
:103860003B689B691095029A1192424610A938460E
:10387000984712B0BDE8F081303D0100A099FF1FCC
:1038800038B5437B082B03D101230371002038BDD9
:103890001446054692B2184600F0CAFB10B901233F
:1038A0002B7138BD204638BD417B082904D008B5AE
:1038B000024800F0E7FF08BD00207047C499FF1FD1
:1038C00000B583B001220DF10701407B00F006FC3A
:1038D0000028CCBF9DF807004FF0FF3003B05DF823
:1038E00004FB00BF08B512B2407B00F0F7FB08BD37
:1038F00010B582B0044603689B68984738B10DF153
:103900000701607B00F01EFC9DF8070001E04FF00E
:10391000FF3002B010BD00BF08B5407B00F022FCB4
:1039200008BD00BF10B4002202714FF47A748460A5
:103930000273024A0260417310BC7047C039010033
:10394000417B082908D008B54901083101F0F80188
:10395000032000F05BFE08BD002070472DE9F8430E
:10396000437B082B48D1914688460546002403270F
:10397000E6B27101083101F0F801384600F046FE68
:1039800018B100F0FB03182B01D16E7302E0013473
:10399000082CEDD1687B082831D01C4B1B880133E3
:1039A0009BB213B1194A138003E04FF48062174BA6
:1039B0001A800023154A1288012100F09DFA4A4618
:1039C00008F10401687B00F0EDFA18B908236B7365
:1039D000BDE8F88301242846FFF7B2FF172811D06D
:1039E000204602F0ADFE2846FFF7AAFF0028F2D1DC
:1039F00008236B73BDE8F8830020BDE8F88300203E
:103A0000BDE8F8830120BDE8F88300BF3088FF1FC0
:103A1000437B082B2AD0F0B583B00446184600F04B
:103A2000FDFA134B1B680093009F114E01252046A1
:103A3000FFF786FF50B133680193019BDB1BB3F5A1
:103A40007A7F03D2284602F07BFEF0E72046FFF79C
:103A500077FF10B1607B00F03DFA627B0021054BDF
:103A600023F812100823637303B0F0BD704700BF42
:103A7000F499FF1F9099FF1F437B082B18D010B5B6
:103A80000446FFF75DFF182804D80A4BC34013F023
:103A9000010F09D11C2809D123689B68204698474B
:103AA000003018BF012010BD002010BD012010BD46
:103AB000002070470100100110B582B002AB03F87E
:103AC000011D0268546801221946A04702B010BDCA
:103AD00070B584B006460024E5B229466846FFF773
:103AE00021FF6846FFF72CFF68B90023F288012107
:103AF000284600F001FA284600F03EFAF288044B0E
:103B000023F8142002E00134082CE5D104B070BD84
:103B10009099FF1F00220271014A0260C180704724
:103B2000003A01002DE9F04184B00646154D00240D
:103B300027464FF00108E1B26846FFF7F3FE35F87B
:103B4000022FF3889A4212D16846FFF7F9FE142833
:103B50000CD06846FFF7F4FE1C2808D16846FFF732
:103B6000A3FE20B96846FFF753FF00E04746013443
:103B7000082CE0D11FB933689B683046984704B0E1
:103B8000BDE8F0818E99FF1F2DE9F04385B0064610
:103B900089469046FFF7C6FF002427460D4DE1B247
:103BA0006846FFF7BFFE35F81420F3889A420AD121
:103BB0006846FFF7C5FE172805D1424649466846C4
:103BC000FFF75EFE07440134082CE8D1384605B003
:103BD000BDE8F0839099FF1FF0B585B007460E460B
:103BE0000846FFF79FFF184D0024E1B26846FFF733
:103BF00099FE35F8022FF3889A421BD16846FFF7E9
:103C00009FFE172804D06846FFF79AFE1C2811D1A2
:103C10006846FFF749FE68B19DF804303B71029B8E
:103C2000BB609DF80C303B73084B3B609DF80D303A
:103C30007B7306E00134082CD7D108213846FFF702
:103C400071FE384605B0F0BD8E99FF1FC0390100E6
:103C500008B503681B6B984708BD00BF024A0260A5
:103C60004A694260704700BF303D0100008B7047D9
:103C7000808B704710B582B002AB03F8011D02685B
:103C8000546801221946A04702B010BD10B5044681
:103C9000838B33B12368DB6820469847A38B002BC6
:103CA000F8D110BD437B082B26D12DE9F0410F46FA
:103CB000804600240326E5B26901083101F0F801CD
:103CC000304600F0A3FC08B1182802D188F80D5046
:103CD00002E00134082CEED198F80D0008280DD030
:103CE000A8F80E700023A8F81C303A46022100F014
:103CF00003F90120BDE8F081002070470020BDE8F5
:103D0000F08100BF437B082B0CD010B50446184649
:103D100000F0E0F8627B0021034B23F81210082327
:103D2000637310BD704700BF9099FF1F08B5002353
:103D300043830431407B00F035FA08BD08B5407B71
:103D400000F054FA08BD00BF10B5044693B20A460D
:103D5000418B407B00F008FA638B0344638310BD02
:103D6000838B83B110B582B0044601220DF10701A7
:103D7000407B00F0B3F9002808DDA38B013BA3834F
:103D80009DF8070004E04FF0FF3070474FF0FF3020
:103D900002B010BD838B73B110B50446934294BF3B
:103DA0001AB212B2407B00F099F9002806DDA38B0D
:103DB0001B1AA38310BD4FF0FF3070474FF0FF3048
:103DC00010BD00BF10B582B0044603685B69984718
:103DD000617B164800F056FD28B308226946607BD7
:103DE00000F07CF9034600281BDD9DF800302375A8
:103DF0009DF8013063759DF80230A3759DF803307E
:103E0000E3759DF804209DF8053003EB022323831E
:103E10009DF806009DF8073003EB002080B2A083D8
:103E20000346184600E0002002B010BDC499FF1FF1
:103E3000838B4BB100B583B00DF10701407B00F0DF
:103E400081F99DF8070002E04FF0FF30704703B0A2
:103E50005DF804FB002202714FF47A7181600273F5
:103E600003490160082141730249016142617047C1
:103E7000143A0100303D01002DE9F04192B00746AF
:103E80000E469046114D03950024049406A8FFF7B2
:103E9000E1FF019502940E490EA8FFF789FC0EA9D7
:103EA00003A8FFF78DF901AA314603A8FFF78EFB9F
:103EB000012808D13B681B6A1095029A119242466C
:103EC00010A93846984712B0BDE8F081303D010096
:103ED000A099FF1F10B5044610220146054800F0C6
:103EE000F9FD61010C31FF2201F0FC01022000F01C
:103EF00039FA10BDC499FF1F2DE9F0414C1EE4B200
:103F0000042C31D8984617460C460646FFF7E2FFC8
:103F100075010C35EDB244EA08022946002000F094
:103F200021FA57B13A0A2946042000F01BFAFAB2E6
:103F30002946052000F016FA0EE00D4B1C880134CE
:103F4000A4B21C80220A2946042000F00BFAE2B237
:103F50002946052000F006FA01223146054800F006
:103F6000B9FD0120BDE8F0810020BDE8F08100BF6F
:103F7000C099FF1FC499FF1F10B5044641010831C5
:103F800001F0F801032000F041FB132806D10222C2
:103F90002146034800F09EFD012010BD002010BD09
:103FA000C499FF1F0B78FF2B09D14B78FF2B0DD144
:103FB0008B78FF2B0AD1CB78FF2B07D124E02BB9CC
:103FC0004B781BB98B780BB9CB7803B3F2B170B5D2
:103FD00014460A46064645010C35EDB2042329462F
:103FE0000C2000F05FFA220A2946102000F0BAF9EE
:103FF000E2B22946112000F0B5F904223146064804
:1040000000F068FD012304E0002300E000231846CF
:104010007047184670BD00BFC499FF1F08B508223D
:104020000146024800F056FD08BD00BFC499FF1FBD
:104030002DE9F84F07468B46B2F5006F28BF4FF4C5
:10404000006216464FEA401A5FFA8AFA0AF108043B
:10405000E4B2DFF884904FF003083946484600F098
:10406000E9FB05462146404600F0D0FA172801D06A
:104070001C2802D1B542F0D300E00026164D33468D
:104080005A463946284600F0CBFB202239462846BE
:1040900000F020FD02254FF003082146284600F0DD
:1040A000B5FA10F0100F0BD12146404600F0AEFAE1
:1040B0000028F2D13846FFF70DFF0020BDE8F88F49
:1040C0000AF10C01102201F0FC01022000F04AF973
:1040D0003046BDE8F88F00BFC499FF1FF0B583B02C
:1040E00005460F4616460146154800F0CBFB04B2C4
:1040F0007CB96901083101F0F801032000F086FA6B
:10410000142819D0C0B1B0F11C0418BF4FF0FF340F
:1041100002E0B442A8BF3446002C0DDD084E002357
:104120000093A3B23A462946304600F09DFC402257
:104130002946304600F0CEFC204603B0F0BD00BF5B
:10414000C499FF1F10B582B00124009423460A468B
:104150000146034800F088FC204602B010BD00BFB5
:10416000C499FF1F704700BFF0B583B005460E46E7
:1041700017461C4601460A4800F05CFBA04204D2E8
:104180002946074800F056FB044600943B46324659
:104190002946034800F012FB204603B0F0BD00BFE3
:1041A000C499FF1F38B50B782BB94B781BB98B78A6
:1041B0000BB9CB78B3B1BAB115460A4644010C34F9
:1041C000E4B2042321460C2000F06CF92A0A2146AF
:1041D000102000F0C7F8EAB22146112000F0C2F822
:1041E000012038BD002038BD002038BD70B506461E
:1041F00020220146154800F06DFC7601F6B206F16A
:104200000804E4B202252146284600F0FFF910F028
:10421000100F10D12146284600F0F8F910F0080FD1
:10422000F1D006F10C01182201F0FC01022000F08F
:1042300099F8002070BD06F10C01102201F0FC017C
:10424000022000F08FF8012070BD00BFC499FF1F4D
:1042500008B5400100F1080101F0F801032000F069
:10426000D5F908BD002867D02DE9F04383B0471E7B
:10427000FFB201370025DFF8E490304EDFF8E08030
:10428000ECB22046FFF7E4FF222836D8DFE800F042
:1042900012353535353535353535353535353535F1
:1042A000353535351A353522353535352A353535F7
:1042B00035353000224B93E803003060B180090CA3
:1042C000B17122E01F4B93E803003060B180090C0C
:1042D000B1711AE01C4B93E803003060B180090C07
:1042E000B17112E0194B93E8030086E803000CE07B
:1042F00098E803003060317107E02046FFF7A8FF1F
:1043000002464946304606F07DFD6101083101F064
:10431000F801002000F07AF90D4B53F8203000939B
:1043200033462A460B490C4803F094F90135BD4247
:10433000A6D103B0BDE8F083704700BFB899FF1F56
:10434000683A0100703A0100783A0100BC3A010075
:10435000543A0100943A0100EC9AFF1F883A010098
:10436000803A0100F8B504460E461546424B1B68DC
:10437000424AD27A2AB372B6404AD27A12F0010F78
:1043800006D03F490F683D48C2683A4082610A60E2
:104390003A4AD27A12F0020F06D03A490F683748EB
:1043A00002693A40C2610A60344AD27A12F0040FBC
:1043B00006D035490F68314842693A4002620A60C6
:1043C00062B62E4A1268D168994209D02F4911600D
:1043D0002A4A1268D36043F0804313612C4B136068
:1043E00000212C4B187802F095F8244B1B684FF0F5
:1043F0000042DA62220A5A63DA6A002AFCDA9A6B0D
:104400004FF00042DA62E4B25C63DA6A002AFCDA56
:104410009A6B4FF00042DA625E63DA6A002AFCDAD5
:104420009A6B4FF00042DA625D63DA6A002AFCDAC6
:104430009B6B0121174B187802F06CF80F4BDB7A5D
:10444000C3B113F0010F03D00C4B9A69124B1A60E1
:104450000A4BDB7A13F0020F03D0084BDA690F4BDB
:104460001A60064BDB7A13F0040F03D0034B1A6A71
:104470000B4B1A600120F8BDC899FF1F0C88FF1F65
:1044800080E100E084E100E088E100E001401F00FD
:1044900000001F80C299FF1F00E100E004E100E07E
:1044A00008E100E0F8B507460E4615461C464C4BA1
:1044B0001B684C4AD27A72B372B64A4AD27A12F068
:1044C000010F09D0DFF838E1DEF800204548C16867
:1044D0000A408261CEF80020424AD27A12F0020FDE
:1044E00009D0DFF820E1DEF800203E4801690A40EB
:1044F000C261CEF800203B4AD27A12F0040F09D0F4
:10450000DFF804E1DEF80020364841690A40026223
:10451000CEF8002062B6334A1268D168994209D0B9
:10452000314911602F4A1268D36043F08043136110
:104530002E4B136000212E4B187801F0EBFF294B16
:104540001A684FF00043D3623B0A5363D36A002BCF
:10455000FCDA936B4FF00043D362FFB25763D36A28
:10456000002BFCDA936B4FF00043D3625663D36A9F
:10457000002BFCDA936B7CB1691E601E15FA80F08B
:104580004FF0004511F8013FD5625363D36A002B09
:10459000FCDA936B8142F5D10121154B187801F0BB
:1045A000B9FF104BDB7AC3B113F0010F03D00D4BF1
:1045B0009A69104B1A600B4BDB7A13F0020F03D091
:1045C000084BDA690C4B1A60064BDB7A13F0040FC8
:1045D00003D0044B1A6A094B1A602046F8BD00BF8D
:1045E000C899FF1F0C88FF1F01401F0000001F809B
:1045F000C299FF1F00E100E004E100E008E100E0F3
:1046000080E100E084E100E088E100E070B504466C
:104610000D46444B1B68444AD27A2AB372B6424ACA
:10462000D27A12F0010F06D040490E683E48C268A7
:10463000324082610A603C4AD27A12F0020F06D000
:104640003B490E68384802693240C2610A60364A06
:10465000D27A12F0040F06D036490E683248426909
:10466000324002620A6062B62F4A1268D1689942EB
:1046700009D0314911602C4A1268D36043F080435D
:1046800013612E4B136000212D4B187801F042FF6F
:10469000254B1B684FF00042DA62220A5A63DA6A3D
:1046A000002AFCDA9A6B4FF00042DA62E4B25C63F3
:1046B000DA6A002AFCDA9A6B4FF00042DA625D6334
:1046C000DA6A002AFCDA9A6B4FF00042DA620022C2
:1046D0005A63DA6A002AFCDA9C6BE4B20121184BB7
:1046E000187801F017FF104BDB7AC3B113F0010FFC
:1046F00003D00D4B9A69134B1A600B4BDB7A13F006
:10470000020F03D0084BDA690F4B1A60064BDB7AB5
:1047100013F0040F03D0044B1A6A0C4B1A602046A6
:1047200070BD00BFC899FF1F0C88FF1F80E100E02B
:1047300084E100E088E100E001401F0000001F80EC
:10474000C299FF1F00E100E004E100E008E100E0A1
:104750002DE9F041174C21704FF47A7001F0F0FF11
:104760000121207801F008FF1348FEF701FC002129
:104770000846FFF74BFF60F07F02D2B20421002011
:10478000FFF7F0FD002502264FF01E081F276C01E1
:104790000C34E4B2324621464046FFF7E3FD324690
:1047A00021463846FFF7DEFD0135082DEFD1BDE883
:1047B000F08100BFC299FF1F0C88FF1F2DE9F8434D
:1047C00016469946BDF820704901CCB204F108089C
:1047D0005FFA88F841462420FFF718FF0546414656
:1047E0002520FFF713FF304400EB0525ADB204F19F
:1047F00014013B464A4601F0FC012846FFF752FEF1
:104800003D44ADB20C34E4B22A0A21462420FFF71D
:10481000A9FDEAB221462520FFF7A4FDBDE8F883F3
:1048200000B583B0009313460022FFF7C7FF03B023
:104830005DF804FB2DE9F041490101F10805EDB2F5
:1048400000264FF02008212729464046FFF7DEFECC
:10485000044629463846FFF7D9FE00EB042084B20F
:104860005CB129464046FFF7D1FE06462946384648
:10487000FFF7CCFE00EB062086B2A642E4D120462C
:10488000BDE8F0812DE9F041490101F10805EDB2E3
:1048900000264FF02608272729464046FFF7B6FE98
:1048A000044629463846FFF7B1FE00EB042084B2E7
:1048B0005CB129464046FFF7A9FE06462946384620
:1048C000FFF7A4FE00EB062086B2A642E4D1204604
:1048D000BDE8F081F8B507460E4615461C464D4B1F
:1048E0001B684D4AD27A72B372B64B4AD27A12F032
:1048F000010F09D0DFF83CE1DEF800204648C1682E
:104900000A408261CEF80020434AD27A12F0020FA8
:1049100009D0DFF824E1DEF800203F4801690A40B1
:10492000C261CEF800203C4AD27A12F0040F09D0BE
:10493000DFF808E1DEF80020374841690A400262EA
:10494000CEF8002062B6344A1268D168994209D084
:1049500032491160304A1268D36043F080431361DA
:104960002F4B136000212F4B187801F0D3FD2A4BF9
:104970001B684FF00042DA623A0A5A63DA6A002A88
:10498000FCDA9A6B4FF00042DA62FFB25F63DA6AD8
:10499000002AFCDA9A6B4FF00042DA625E63DA6A50
:1049A000002AFCDA9B6B94B1691E601E15FA80F038
:1049B000194F4FF0004600253A68D6625563D36A16
:1049C000002BFCDA936B01F8013F8142F4D1012105
:1049D000144B187801F09EFD0F4BDB7AC3B113F036
:1049E000010F03D00C4B9A690F4B1A600A4BDB7A0C
:1049F00013F0020F03D0084BDA690C4B1A60064B18
:104A0000DB7A13F0040F03D0034B1A6A084B1A60C9
:104A10002046F8BDC899FF1F0C88FF1F01401F00EA
:104A200000001F80C299FF1F00E100E004E100E0E8
:104A300008E100E080E100E084E100E088E100E0DE
:104A400000B583B010461A46ADF80600BDF8060062
:104A500049011831BDF8103001F0F80180B2FFF7BC
:104A600039FF03B05DF804FB2DE9F04F83B08146B8
:104A70000E4692461F469DF830804D01EDB205F17D
:104A8000080B5FFA8BFB59462820FFF7BFFD044651
:104A900059462920FFF7BAFD00EB042084B20097A5
:104AA0005346224631464846FFF7CAFFB8F1000F89
:104AB0000DD13C44A4B20C35EDB2220A294628207F
:104AC000FFF750FCE2B229462920FFF74BFC03B068
:104AD000BDE8F08F38B54901CCB204F10C0101F00A
:104AE000FC010120FFF73EFC0834E4B20125214619
:104AF0002846FFF78BFD0028F9D138BD014A024B4B
:104B00001A60704700000138C899FF1F72B60A4B3F
:104B100070221A704121094A11700F21013A117057
:104B200080221A701A46137813F0800FFBD0044BC2
:104B3000186862B6704700BF0000024007000240DC
:104B40000800024008B5FFF7E1FF034B98429CBF05
:104B500000EB8000400008BD7F96980010B5044629
:104B6000FFF7D4FF030E2370030C6370030AA370D6
:104B7000E07010BD10B582B0044601A8FFF7EEFF4B
:104B800004232370E9236370E523A3709DF80530A7
:104B9000E3709DF8063023719DF80730637102B011
:104BA00010BD00BF064B1B680360064B1B684360CB
:104BB000054B1B688360054B1B68C360704700BFD3
:104BC00054800440588004405C800440608004406D
:104BD00030B587B00A4B1D695C7B204600F0DCF9DC
:104BE00001230493074B0393002202920190009249
:104BF00013462146284600F087FB07B030BD00BFB2
:104C0000E099FF1FA08601000078704730B40029AA
:104C100050D00B46D0E91445B5F1FF3F08BFB4F1C1
:104C2000FF3F04D0013445F10005C0E9144580F888
:104C300021300C2B3AD8DFE803F007151D21191D90
:104C40002125292D2D313500D0E91623B3F1FF3F61
:104C500008BFB2F1FF3F31D0013243F10003C0E998
:104C600016232BE0836A0133836227E0C36A013392
:104C7000C36223E0036B013303631FE0436B013323
:104C800043631BE0836B0133836317E0C36B013322
:104C9000C36313E0036C013303640FE0436A013321
:104CA00043620BE0C36C0133C36407E0436C013320
:104CB000436403E0002380F82130C5E730BC70472F
:104CC00008B5A1F14803DBB2032B04D90C21FFF78F
:104CD0009DFFFF2008BD0170002008BD08B501F050
:104CE0000103002B14BF0320042009B241FA00F095
:104CF00005F014F94FF0765105F064F908BD00BFD6
:104D000090F820303BB330B583B00D4604460278AE
:104D1000134B597B1869002301930123009302234D
:104D200000F06EFF022808D00D4B1B6993F851125A
:104D30002046FFF76BFFFF200FE0094C206900F0D1
:104D40007BFF00022880206900F076FF2B88184343
:104D50002880002001E0FD20704703B030BD00BF77
:104D6000E099FF1F70B582B090F8203073B30E4603
:104D70000446032902D90C21FFF748FF154D21787D
:104D8000284600F02DFC3146284600F099F8C0B2C4
:104D9000012805D00B212046FFF738FFFF2516E03C
:104DA0000C48427B002300930123016900F014FFAB
:104DB000054628B101462046FFF728FFFF2506E0FB
:104DC000667000212046FFF721FF00E0FD25284600
:104DD00002B070BDE099FF1F2DE9F04182B090F85C
:104DE0002030002B49D016460D4607464B1EDBB23D
:104DF000022B02D90C21FFF709FFDFF888803978F0
:104E0000404600F0EDFB2946404600F059F8C4B298
:104E1000310A404600F054F82044C4B2F1B2404692
:104E200000F04EF82044C4B2032C05D00B213846C4
:104E3000FFF7ECFEFF2421E01248427B00230093A1
:104E40000123016900F0C8FE044628B10146384636
:104E5000FFF7DCFEFF2411E07D70012D01D17E8083
:104E600006E0022D01D1BE8002E0032D08BFFE80C6
:104E700000213846FFF7CAFE00E0FD24204602B0BC
:104E8000BDE8F081E099FF1F10B50446012380F8CA
:104E900020300A461946FFF79FFF034618B100234A
:104EA00084F82030FD23184610BD00BF0369D3F8F5
:104EB0003801D3F83431C01A704700BF704700BFC3
:104EC0000369D3F84422B2F5817F09D8D3F844228C
:104ED000501CC3F84402134483F83C11012070476E
:104EE000012303710020704730B40469D4F84432C0
:104EF000B3F5817F1FD8D4F84452C5F581750135CB
:104F000004F59E73D4F84442954202D20122027104
:104F10002A4642B1013C23448D1811F8014B03F895
:104F2000014FA942F9D10169D1F844321344C1F8C3
:104F30004432104602E001230371002030BC704768
:104F400038B50446084B0360036993F84822022AE7
:104F500008D1D3F864522DB1284602F011FB28463F
:104F600002F0BAFC204638BDEC3A010010B4002231
:104F700002714FF47A7484600273054A02604173CF
:104F80004FF41C74034A04FB0121016110BC7047FB
:104F9000EC3A01003488FF1F01280CBF02200120D9
:104FA000704700BFC3681B7813F0200F40F0B0803B
:104FB00070B504460D46836880211970C3681221BC
:104FC000197090F84932012B0BD022B9002380F8D8
:104FD0004832012070BD531EDBB2012B00F29A80D3
:104FE00000E0012225B94FF080714B4B196005E0BC
:104FF000012D03D14FF00071474B1960022A40F098
:105000008380D4F864624EB9082002F061FC064641
:10501000002102F057FAC4F864627EB13379102B94
:105020000CD1304602F0ACFA304602F055FC0023B9
:10503000C4F86432012084F8480270BD65BB326850
:10504000938B43F008039383D4F8642213791033CD
:105050003248334941F82300127953119B0003F180
:10506000604303F5614302F01F02012101FA02F2DD
:105070001A60D4F864321A68938B43F00203938366
:10508000D4F864321B7903F1804303F50433002222
:105090001A7096221A702FE0012D2DD1D4F86432A7
:1050A0001A68938B43F008039383D4F8642213792E
:1050B00010331C481A4941F82300127953119B0000
:1050C00003F1604303F5614302F01F02012101FA7D
:1050D00002F21A60D4F864321A68938B43F0020328
:1050E0009383D4F864321B7903F1804303F50433CE
:1050F00000221A7097221A70002384F85A32022371
:1051000084F84832012070BD012084F8480270BD47
:1051100000207047012070BD00E100E061620000E6
:105120000082FF1F7162000070B4244CA4FB0135A3
:10513000AD092B02A4FB0225AD09B3FBF5F5B5F5CE
:10514000A05F1FDB1E4A012352F8044FB5EB042F6A
:1051500003DB0133372BF7D100E0A3B15C1E184EFF
:1051600056F82420A5EB0222002AB8BF524256F876
:105170002360A5EB0625002DB8BF6D42AA42D8BF1B
:10518000234600E0002342680E4CE45C14700C4A95
:1051900052F82330B1FBF3F3C0F84C320A4B99427A
:1051A00003D9836904221A7006E08369074AA2FBC7
:1051B0000121C1F30751197070BC7047D34D6210C3
:1051C000043B0100E03B0100FF6BDC02819F5E16A7
:1051D0002DE9F0479DF820E0BEF1000F72D0C468C1
:1051E000247814F0200F64D16CE0012A64D81C46A6
:1051F000154689468046BEF1000F32D090F84B32FA
:10520000002B0CBF4FF0000A4FF0020A90F84A3210
:10521000032B26D8DFE803F0020B141D51461120A2
:1052200001F0AAF95146102001F0A6F919E0514603
:10523000122001F0A1F95146132001F09DF910E070
:1052400051461E2001F098F951461D2001F094F9B5
:1052500007E051461F2001F08FF951461A2001F056
:105260008BF9B9F1000F0DD115B1012D05D009E071
:10527000214B1E60043B1E6014E0204B1E60043B6B
:105280001E600FE0B9F1010F0CD1022D06D0032DE5
:1052900008D11B4B1F6004331F6003E0194B1E60D5
:1052A000043B1E6088F84A5288F84B420120BDE852
:1052B000F0870020BDE8F0870020BDE8F0870020DF
:1052C000BDE8F087002B40F2032608BF4FF41976A3
:1052D00040F2036440F26467002B18BF27460029A0
:1052E00083D0012902D00020BDE8F087941E012C54
:1052F0007FF67DAFE3E700BF04A004400CA00440AC
:1053000000D004402CB0044070B582B004469DF833
:1053100018600D4629B93048016841F0400101602C
:1053200006E0012904D12C48016841F080010160A8
:1053300084F84922002184F851123AB96369202285
:105340001A7022681170E269117011E06269002E12
:105350003AD130E05B00DBB21370E2697300DBB27C
:1053600005E07600F6B21670E2695B00DBB21370FE
:10537000002300939DF820309DF81C2029462046EC
:10538000FFF726FF099A15492046FFF7CDFE9DF845
:10539000282029462046FFF705FE94F849321BB91C
:1053A000A36880221A7002E0A368C0221A7000234A
:1053B000C4F86C320EE02021117022685B00DBB271
:1053C0001370E2690023D2E72821117022689E42FF
:1053D000C0D8C6E702B070BD34800440006CDC0267
:1053E0002DE9F04F83B090F84A32032B62D8DFE802
:1053F00003F0400244064FF01208132540E04FF03E
:105400001F081A253CE0404601F0A8F890B9013C7D
:1054100014F0FF040ED05146284601F07BF83346C5
:10542000013BFDD14946284601F074F83346013B63
:10543000FDD1E8E797F84B3297F84A220021009116
:1054400059463846FFF7C4FEFB681B7813F07F0F00
:105450000BD0BB6800221A7050231A46013AFDD1C6
:10546000BA6880211170013BFDD1002387F85132C9
:1054700020E04FF01108102502E04FF01E081D2516
:105480008B46074690F84B32002B0CBF00210221BF
:10549000404601F071F80121284601F03BF8012156
:1054A000284601F069F80B244FF0000A50264FF00F
:1054B0000109A8E703B0BDE8F08F00BF2DE9F04176
:1054C00004460E4615461F4601F016F90DB9D4F8EC
:1054D000685201F011F98046A3681A7812F0200F83
:1054E00002D0B4221A7039E02DB101F005F9C8EBF1
:1054F000000085420AD9E3681B7813F0200FF3D12E
:10550000002384F84932A368B0221A70A3681B787C
:1055100013F0200F16D131462046FFF761FFD4F873
:105520006C32B3F1FF3F1CBF0133C4F86C32E36847
:105530001B7813F0200F05D1002384F84932A368AB
:10554000B0221A70A3681B7803F0200303F0FF0059
:1055500023B9042384F85132BDE8F08194F848322D
:10556000013BDBB2012B31D800F058FF16B1012E00
:1055700003D005E0184B1B7804E0184B1B7801E0C2
:10558000154B1B78834224DB0F2803DC0120387085
:10559000BDE8F08116B1012E08D00FE0A0F1100394
:1055A000DBB20D4A13700120BDE8F081A0F11003B9
:1055B000DBB20A4A13700120BDE8F081A0F11003AC
:1055C000DBB2054A13700120BDE8F0810120BDE87F
:1055D000F0810120BDE8F08118E400E019E400E06A
:1055E0000369490083F83C1103690122C3F844228E
:1055F00000230371026982F8513270472DE9F043AC
:1056000083B01E4600238DF80730D0F84432002BBB
:1056100000F0C480044615460EB9D0F86862E3680D
:1056200012221A700DF1070332462046FFF746FF9B
:10563000002800F0B38094F848321BB19DF8072091
:10564000002A53D001F058F88146012384F85132E2
:1056500084F8505204F23B1700254FF00208D4F8AA
:1056600044329D4231D22EB101F046F8C9EB000020
:1056700086422AD9236917F8012F1A70E268137835
:1056800013F0020FFBD082F80080E2681378DBB2DF
:1056900013F0100F08D0072384F851321023137031
:1056A000A36880221A7079E013F0010F0BD01DB9A6
:1056B000052384F8513202E0062384F85132A368AE
:1056C00080221A706AE00135C9E7D4F844329D425D
:1056D00034BF0423002384F8513294F85032012B54
:1056E000A3680CBF8022B0221A7057E05A1ED2B2B3
:1056F000012A53D8012284F8512284F85052002202
:10570000C4F84022022B14D1D4F84432042B18D808
:105710000FE013689B6833B91368002101201872E9
:1057200059729972D972136800221A765A769A764B
:10573000DA76A368F0221A70236994F83C211A7073
:105740002CE0012384F85A32D4F8641204F59F73D4
:10575000D4F84422033A086803600868002301254E
:10576000057143710868C3710868057243728372DA
:10577000C37208685542C5600868C2830968CA8256
:10578000D4F86422216910680161106803754375BB
:1057900010688371B1F1804FBED3BAE703B0BDE8A2
:1057A000F08300BF2DE9F04182B09DF82050002425
:1057B0008DF80740002B00F07981B3F5827F03D389
:1057C000082380F8513271E1C0F854320023C0F848
:1057D0003431C0F83831099B13B9D0F868320993D5
:1057E00016460446C36812221A700DF10703099A7F
:1057F000FFF764FE002800F0598194F8483223B185
:105800009DF80720002A00F0918000F075FF074600
:10581000022384F8513284F850522269730043F015
:105820000103DBB21370E268137813F0020FFBD0B0
:1058300002231370E2681378DBB213F0100F08D064
:10584000072384F8513210231370A36880221A7042
:105850002CE113F0010F06D0052384F85132A36820
:1058600080221A7022E1032384F85132D4F8543292
:10587000012BA3680CBFA822A0221A7023691B78F1
:10588000022600254FF0A808D4F83821D4F8543265
:105890009A4280F00B8194F85132DBB2032B40F036
:1058A0000581E268137813F0020FFBD01670099B94
:1058B00043B100F021FFC01B099B83428CBF002035
:1058C000012000E02846D4F838310233D4F85422BD
:1058D000934200F08280002800F0D08094F8593282
:1058E000002B7AD0B2E0002800F0828094F8593280
:1058F000002B40F0CB807BE0042384F8513294F8F5
:105900005032012B06D00DE084F8515294F85032F9
:10591000012BB9D11023013BFDD1A36880221A705D
:105920000028B1D0012384F85932ABE75A1ED2B215
:10593000012A00F2BB80022284F8512284F85052DE
:10594000934240D1D4F85432042B3CD9012384F83B
:105950005A32D4F8643221691A681160186800223A
:10596000027142711868C271B1F1804F02D31A6896
:10597000926832B91A680021012010725172917236
:10598000D1721A680023137353739373D373D4F8CB
:10599000641204F13000D4F85422013A0D682861F1
:1059A00008680125057543750868837108680572E4
:1059B00043728372C3720B68504298610868134641
:1059C000C2830A68D382A368F0221A702269730026
:1059D00043F00103DBB2137068E0A36883F8008032
:1059E000D4F838310133D4F8542293420BD27AE7F9
:1059F00023691A78D4F83831591CC4F83811234473
:105A000083F830208CE784F85952A368B0221A70CA
:105A100023691A78D4F83831591CC4F83811234452
:105A200083F8302000283FF46FAF65E784F85952BF
:105A3000A368B0221A7023691A78D4F83831591C37
:105A4000C4F83811234483F8302055E7D4F83831AE
:105A50000133D4F854229342E8D244E784F85952EF
:105A6000A368B0221A7023691A78D4F83831591C07
:105A7000C4F83811234483F8302045E7D4F838318E
:105A80000133D4F854229342E8D22CE784F85952D7
:105A9000A368B0221A7023691A78D4F83831591CD7
:105AA000C4F83811234483F8302025E702B0BDE85C
:105AB000F08100BF036993F85132043B042B0CD8EA
:105AC000DFE803F0090305071000022070470320F8
:105AD000704704207047042070470079003018BFD9
